:020000040800F2
:10000000F804002001010008651600085D160008CC
:100010006116000833020008751B0008000000008C
:100020000000000000000000000000004919000866
:100030003702000800000000671600084B1900088E
:100040001B0100081B0100081B0100081B01000820
:100050001B0100081B0100081B0100081B01000810
:100060001B0100081B0100081B0100081B01000800
:100070001B0100081B0100081B0100081B010008F0
:100080001B0100081B0100081B0100080000000004
:100090000000000000000000000000001B0100083C
:1000A0000000000000000000000000000000000050
:1000B0001B0100081B0100081B0100081B010008B0
:1000C0001B0100081B0100081B0100081B010008A0
:1000D0001B010008E51A00081B0100081B010008AD
:1000E0001B0100081B010008DFF810D000F070F8B9
:1000F000004800473D210008AFF30080F8040020CD
:100100000648804706480047FEE7FEE7FEE7FEE7B1
:10011000FEE7FEE7FEE7FEE7FEE7FEE7531900080D
:10012000E900000840EA01039B0703D009E008C981
:10013000121F08C0042AFAD203E011F8013B00F8AC
:10014000013B521EF9D27047D2B201E000F8012BF8
:10015000491EFBD270470022F6E710B513460A4647
:1001600004461946FFF7F0FF204610BD2DE9F05F69
:100170000546002092469B46884606468146402416
:100180001BE0284641464746224600F042F85346C7
:100190005A46C01A914110D311461846224600F023
:1001A00029F82D1A67EB01084F462246012000214D
:1001B00000F020F817EB00094E41201EA4F10104C5
:1001C000DFDC484631462A464346BDE8F09F000042
:1001D000064C074D06E0E06840F0010394E8070094
:1001E00098471034AC42F6D3FFF782FF482400084A
:1001F00068240008202A04DB203A00FA02F10020DB
:1002000070479140C2F1200320FA03F31943904054
:100210007047202A04DB203A21FA02F000217047BF
:1002200021FA02F3D040C2F120029140084319465E
:10023000704700BFFEE770472DE9F84703460022EC
:1002400094466EE14FF0010808FA02F4D1F80080FC
:1002500008EA0400A0427DD1DFF8DCA2D1F80480D6
:10026000A8EB0A09D0453AD014DCB8F1030F50D0FE
:1002700009DCB8F1000F31D0B8F1010F1CD0B8F192
:10028000020F49D120E0B8F1110F18D0B8F1120FC8
:1002900042D11EE0B9F5881F25D006DCB9F5803FB4
:1002A00020D0B9F5801F37D11AE0B9F5001F18D05A
:1002B000B9F5041F30D117E0D1F80CC02DE0D1F80A
:1002C0000C8008F1040C28E0D1F80C8008F1080C2F
:1002D00023E0D1F80C8008F10C0C1EE000BF00BF39
:1002E00000BF00BF00BF00BFD1F80880B8F1000F09
:1002F00002D14FF0040C0BE0D1F80880B8F1010FE7
:1003000003D14FF0080C1C6102E04FF0080C5C6157
:1003100003E04FF0000C00E000BF00BFFF2801D851
:10032000984601E003F104084646FF2802D84FEA48
:10033000820803E0A2F108084FEA88084746D6F889
:1003400000804FF00F0909FA07F928EA09080CFAAA
:1003500007F900E088E048EA0908C6F80080D1F80B
:10036000048008F08058B8F1805F7DD100BFDFF8CD
:10037000CC81D8F8188048F00108DFF8C091C9F89E
:100380001880C846D8F8188008F00108CDF8008019
:1003900000BF00BF4FEAB9384FEA920958F8295018
:1003A0004FEA82784FEA18794FF00F0808FA09F8F7
:1003B00025EA0805DFF88881434502D14FF000089F
:1003C00016E0DFF88081434502D14FF001080FE0CD
:1003D000DFF87481434502D14FF0020808E0DFF8EE
:1003E0006C81434502D14FF0030801E04FF004084F
:1003F0004FEA82794FEA197908FA09F848EA0505BF
:10040000DFF84C814FEA920948F82950D1F804806E
:1004100008F48018B8F5801F0AD1DFF83881D8F8C1
:10042000008048EA0008DFF82C91C9F8008009E054
:10043000DFF82081D8F8008028EA0008DFF814915E
:10044000C9F80080D1F8048008F40018B8F5001F3E
:1004500010D1DFF8008108F10408D8F8008048EADC
:100460000008DFF8F09000E05AE009F10409C9F84B
:1004700000800DE0DFF8DC8008F10408D8F8008087
:1004800028EA0008DFF8CC9009F10409C9F80080D7
:10049000D1F8048008F40038B8F5003F0ED1DFF839
:1004A000B480A8F10408D8F8008048EA0008DFF812
:1004B000A490A9F10409C9F800800DE0DFF8948048
:1004C000A8F10408D8F8008028EA0008DFF8849032
:1004D000A9F10409C9F80080D1F8048008F4803833
:1004E000B8F5803F0ED1DFF86C80A8F10808D8F885
:1004F000008048EA0008DFF85C90A9F10809C9F813
:1005000000800DE0DFF84C80A8F10808D8F80080E2
:1005100028EA0008DFF83C90A9F10809C9F8008032
:10052000521CD1F8008028FA02F8B8F1000F7FF4CD
:1005300089AEBDE8F88700000000111000100240ED
:1005400000080140000C014000100140001401406F
:1005500008000140080401400AB1016101E00B04F8
:1005600003617047014800687047000008000020E0
:100570000348006803490978084401490860704746
:10058000080000201000002010B50848006840F066
:10059000100006490860032000F080F80F2000F0EA
:1005A00007F800F02BF8002010BD000000200240EA
:1005B00070B504460E4800784FF47A71B1FBF0F044
:1005C0000C490968B1FBF0F5284600F03FFF08B17F
:1005D000012070BD102C07D200222146501E00F0D1
:1005E0001EF80548046001E00120F2E70020F0E772
:1005F00010000020000000200C0000207047014681
:100600000846002809DB00F01F0301229A40430935
:100610009B0003F1E023C3F8002100BF70472DE9E0
:10062000F05F80460D461646002701F0B5FA0746F2
:1006300039462A46334601F00700C0F1070ABAF1ED
:10064000040F02D94FF0040A01E0C0F1070AD146B5
:1006500000F1040ABAF1070F02D24FF0000A01E0DC
:10066000A0F1030AD4464FF0010A0AFA09FAAAF1E6
:10067000010A0AEA020A0AFA0CFA4FF0010B0BFA15
:100680000CFBABF1010B0BEA030B4AEA0B0421460E
:10069000404601F089FABDE8F09F000000BF00F07D
:1006A0000702064B19684FF6FF031940044B0B4332
:1006B00043EA0221014B196000BF70470CED00E0D6
:1006C0000000FA05012001490862704700000E424F
:1006D0002DE9F04706464FF00008002500270024CA
:1006E000A146012E31D0022E56D0102E5FD13248B5
:1006F0004468006800F0807008B33048C4F3834158
:10070000475C04F4803078B12B484068C0F3404027
:100710002B4911F8008004F4803040B12948B0FB27
:10072000F8F000FB07F502E0274807FB00F5224838
:10073000406800F48000B0F5800F01D1A94603E0C5
:1007400068000321B0FBF1F932E01B48046A04F4AD
:100750004070B0F5807F05D104F0020010B14FF475
:10076000004918E004F44070B0F5007F07D112484A
:10077000406A00F0020010B149F640490BE004F471
:100780004070B0F5407F06D10B48006800F400309F
:1007900008B14FF224490BE000F08CF90649496892
:1007A000C1F38131491C4900B0FBF1F900E000BF01
:1007B00000BF4846BDE8F08700100240362400081C
:1007C0004624000800127A0000093D00F8B50446EE
:1007D00000260025207800F0010000286BD00027BB
:1007E0004348C06900F0805070B900BF4048C069FC
:1007F00040F080503E49C8610846C06900F0805012
:10080000009000BF00BF01273A48006800F48070E4
:10081000B0B93848006840F4807036490860FFF786
:10082000A1FE064606E0FFF79DFE801B642801D965
:100830000320F8BD2F48006800F480700028F2D033
:100840002B48006A00F440752DB3A08800F4407076
:10085000A84220D02648006A20F44075012026498D
:100860000860002008602248056205F0010090B190
:10087000FFF778FE064608E0FFF774FE801B41F2A2
:100880008831884201D90320D3E71948006A00F073
:1008900002000028F0D01648006A20F44070616819
:1008A000084313490862012F04D10846C06920F0AB
:1008B0008050C86100BF207800F00200022807D1F4
:1008C0000B48406820F44040A1680843084948604C
:1008D000207800F01000102807D10548406820F467
:1008E0008000E1680843024948600020A1E7000059
:1008F00000100240007000404004424270B50446BF
:100900000D460CB9012070BD5A48006800F0070080
:10091000A8420ED25748006820F0070028435549E6
:1009200008600846006800F00700A84201D00120D6
:10093000E9E7207800F0020002281DD1207800F0BD
:100940000400042805D14C48406840F4E0604A495E
:100950004860207800F00800082805D14648406823
:1009600040F46050444948604348406820F0F0003B
:10097000A168084340494860207800F0010078B33E
:100980006068012806D13C48006800F4003090B946
:100990000120B8E76068022806D13748006800F0F7
:1009A000007040B90120AEE73348006800F0020053
:1009B00008B90120A7E73048406820F003006168CB
:1009C00008432D494860FFF7CDFD064609E0FFF7D3
:1009D000C9FD801B41F28831884202D9032092E789
:1009E00007E02548406800F00C006168B0EB810F1B
:1009F000EDD12048006800F00700A8420ED91D483C
:100A0000006820F0070028431A490860084600687B
:100A100000F00700A84201D0012074E7207800F020
:100A20000400042807D11448406820F4E060E1681D
:100A3000084311494860207800F00800082808D1D0
:100A40000D48406820F46050216940EAC1000A491D
:100A5000486000F03FF808494968C1F30311074AAC
:100A6000515CC8400649086006480068FFF7A0FDD1
:100A7000002048E700200240001002400C2400083B
:100A8000000000200C0000200148006870470000B2
:100A90000000002000B5FFF7F7FF04494968C1F3E3
:100AA0000221034A515CC84000BD00000010024012
:100AB0001C24000800B5FFF7E7FF04494968C1F3AB
:100AC000C221034A515CC84000BD00000010024032
:100AD0001C24000870B500210022002400230020FF
:100AE000134D696801F00C05F5B1042D02D0082DF5
:100AF00019D101E00F4819E00F4DC1F38346AB5DFA
:100B000001F4803555B10A4D6D68C5F340450B4E73
:100B1000725D084D5D43B5FBF2F402E0084D03FB46
:100B200005F4204602E000BF024800BF00BF70BDD0
:100B30000010024000127A00242400083424000827
:100B400000093D00F8B504460CB90120F8BD207835
:100B500000F00100002878D0F848406800F00C0050
:100B600004280CD0F548406800F00C00082811D18A
:100B7000F248406800F48030B0F5803F0AD1EF4879
:100B8000006800F4003000285FD0606800285CD165
:100B90000120DBE700BF6068B0F5803F06D1E74881
:100BA000006840F48030E549086028E0606858B982
:100BB000E248006820F48030E04908600846006898
:100BC00020F4802008601AE06068B0F5A02F0BD1F7
:100BD000DA48006840F48020D84908600846006878
:100BE00040F4803008600AE0D448006820F4803087
:100BF000D24908600846006820F48020086000BFE1
:100C0000606888B1FFF7AEFC054606E0FFF7AAFC76
:100C1000401B642801D9032098E7C848006800F405
:100C200000300028F2D010E0FFF79CFC054606E0FB
:100C3000FFF798FC401B642801D9032086E7BF48D2
:100C4000006800F400300028F2D1207800F00200A3
:100C5000022857D1B948406800F00C0050B1B7489D
:100C6000406800F00C00082818D1B448406800F42F
:100C7000803098B9B148006800F0020020B12069C6
:100C8000012801D0012061E7AC48006820F0F8009D
:100C9000616940EAC100A949086033E02069E8B110
:100CA0000120A7490860FFF75DFC054606E0FFF755
:100CB00059FC401B022801D9032047E79F480068E0
:100CC00000F002000028F2D09C48006820F0F800F4
:100CD000616940EAC1009949086013E00020984921
:100CE0000860FFF73FFC054606E0FFF73BFC401BB2
:100CF000022801D9032029E79048006800F002008B
:100D00000028F2D1207800F0080008282DD1A06931
:100D1000B8B101208B490860FFF724FC054606E0C6
:100D2000FFF720FC401B022801D903200EE783486F
:100D3000406A00F002000028F2D0012000F094FC8C
:100D400013E000207F490860FFF70CFC054606E031
:100D5000FFF708FC401B022801D90320F6E677487C
:100D6000406A00F002000028F2D1207800F0040070
:100D7000042873D100277148C06900F0805070B911
:100D800000BF6E48C06940F080506C49C861084699
:100D9000C06900F08050009000BF00BF01276A4882
:100DA000006800F48070B0B96748006840F4807053
:100DB00065490860FFF7D6FB054606E0FFF7D2FB62
:100DC000401B642801D90320C0E65F48006800F496
:100DD00080700028F2D000BFE068012806D1574893
:100DE000006A40F001005549086227E0E06858B900
:100DF0005248006A20F00100504908620846006A23
:100E000020F00400086219E0E06805280BD14B4887
:100E1000006A40F00400494908620846006A40F050
:100E2000010008620AE04548006A20F001004349D9
:100E300008620846006A20F00400086200BFE0680B
:100E4000A0B1FFF78FFB054609E0FFF78BFB401BC6
:100E500041F28831884202D9032077E622E0374800
:100E6000006A00F002000028EFD012E0FFF77AFBE2
:100E7000054608E0FFF776FB401B41F288318842C7
:100E800001D9032062E62D48006A00F00200002824
:100E9000F0D1012F05D12948C06920F080502749A1
:100EA000C86100BFE069C8B32448406800F00C0086
:100EB000082860D0E069022848D10020204908664F
:100EC000FFF750FB054606E0FFF74CFB401B0228EE
:100ED00001D903203AE61948006800F000700028A4
:100EE000F2D1206AB0F5803F07D11448406820F461
:100EF0000030A168084311494860D4E9080108435B
:100F00000E49496821F4741108430C4948600120D6
:100F10000B490866FFF726FB054607E03DE0FFF7B3
:100F200021FB401B022801D903200FE6034800687B
:100F300000F000700028F2D02FE000000010024006
:100F400000004242800442420070004000201449E8
:100F50000866FFF707FB054606E0FFF703FB401BAB
:100F6000022801D90320F1E50E48006800F0007066
:100F70000028F2D111E0E069012800D1E6E5094836
:100F8000466806F48031206A814204D106F470116B
:100F9000606A814201D00120D8E50020D6E500003A
:100FA000000042420010024010B50346002200201B
:100FB000024A02EB81021468A0B210BD006C00402E
:100FC00010B503460020034800EB810094B2046092
:100FD00010BD0000006C0040F8B505460C461646F2
:100FE0000020009005B10CB90120F8BD002269462F
:100FF000284600F01AF808B10120F6E7287B207097
:10100000E87BE070687B6070A87BA0705EB1E078E0
:1010100000F049FBE070607800F045FB6070A0785C
:1010200000F041FBA0700020DFE72DE9F04780468B
:101030000C46914600250026AA460027B8F1000F6D
:1010400000D014B90120BDE8F087D8F8000040684E
:10105000C0F3800008B10120F5E7404600F0EAFB4C
:1010600005464FF46160B5FBF0F7B5FBF0F100FB0E
:1010700011503C21B0FBF1F060704FF46160B5FBA2
:10108000F0F100FB11503C21B0FBF1F201FB12002A
:10109000A070182F39D31820B7FBF0FAB7FBF0F186
:1010A00000FB11702070404600F0B8FB0646701C33
:1010B00018B1AE4201D9761B01E04FF0FF360AEBC2
:1010C0004A00C000C0EB4011C1EB0020A5EB0015A9
:1010D0002946404600F021FC08B10120B3E7701C0E
:1010E00038B12E443146404600F000FC40B10120AA
:1010F000A9E73146404600F0F9FB08B10120A2E71C
:101100005146404600F0DCFA00E02770B9F1000FCC
:101110000BD0207800F0C7FA2070607800F0C3FA96
:101120006070A07800F0BFFAA07000208BE700008C
:1011300070B5044600250CB9012070BD607C20B953
:1011400000202074204600F053F8022060742046EE
:1011500000F05CF918B1042060740120EDE720462E
:1011600000F009FB18B1042060740120E5E7206855
:10117000406820F0070021684860A06828B11B483B
:10118000006820F00100194908601848001F006835
:1011900020F46070A16808431449091F0860606862
:1011A000401C08B1656809E00120FFF791FA054687
:1011B0001DB9042060740120BFE76D1EC5F3034014
:1011C00021688860A8B22168C860204600F0F0FA63
:1011D00018B1042060740120AFE70021E173012100
:1011E0006173A173012060740020A6E7306C004099
:1011F00010B58EB0044601200E490860282104A8CD
:10120000FEF7A9FF002000900190029003900420B7
:1012100004900120079000200B9004A8FFF792FC97
:1012200001200090000201906846FFF7CFFA0EB04F
:1012300010BD00003C0442422DE9F04704460D4633
:10124000904600260027B14604B115B90120BDE83B
:10125000F08700BF207C012801D10220F7E70120A0
:10126000207400BF02206074B8F1000F06D1E97845
:10127000E17369786173A978A1730BE0E87800F0F5
:1012800007FAE073687800F003FA6073A87800F05A
:10129000FFF9A073A27B617BE07B00F0E5FA20738D
:1012A000207B2870204600F0C5FA06464FF46160A6
:1012B000B6FBF0F9B9F1180F2FD91820B9FBF0F0EF
:1012C00000EB4000C000C0EB4011C1EB0020A6EBDA
:1012D00000163146204600F020FB38B1042060742F
:1012E00000BF0020207400BF0120B0E7204600F0BE
:1012F00095FA0746781C80B1B7420ED20B480744D6
:101300003946204600F0F2FA38B10420607400BF7C
:101310000020207400BF012099E70120607400BF05
:101320000020207400BF00BF91E700008051010041
:101330002DE9F04704460D4690460026002704B1EB
:1013400015B90120BDE8F08700BF207C012801D13C
:101350000220F7E70120207400BF02206074B8F17A
:10136000000F0BD128784FF4616148436978C1EBD5
:10137000011100EB8100A978461812E0287800F0EE
:1013800087F94FF4616100FB01F9687800F080F99A
:10139000C0EB001009EB8009A87800F079F909EB9F
:1013A00000063146204600F0B8FA38B104206074D7
:1013B00000BF0020207400BF0120C3E72068406800
:1013C00020F0050021684860204600F027FA074613
:1013D000781C80B1B7420ED20B48074439462046EC
:1013E00000F084FA38B10420607400BF002020743B
:1013F00000BF0120A6E70120607400BF0020207418
:1014000000BF00BF9EE700008051010070B5044698
:1014100000250CB9012070BD2068406820F008004C
:1014200021684860FFF79EF8054607E0FFF79AF845
:10143000401BB0F57A7F01D90320ECE720684068B3
:1014400000F008000028F1D00020E4E770B5044661
:101450002546681EB0F1807F01D301200FE0681E91
:101460004FF0E02148610F214FF0FF3000F09CFB6E
:1014700000204FF0E021886107200861002070BD46
:1014800010B504460CB9012010BDA06900B100E000
:1014900000BF94F8410028B9002084F8400020469D
:1014A00000F02AF8242084F841002068C06820F465
:1014B00000502168C860204600F04CFA206800699E
:1014C00020F49040216808612068406920F02A00DB
:1014D000216848612068C06840F400502168C860F5
:1014E00000206064202084F8410084F8420000203D
:1014F000606300BFC8E7000010B586B00446254908
:101500002068884243D100BF2348806940F004002E
:10151000214988610846806900F00400019000BFFD
:1015200000BF00BF0846806940F4804088610846DB
:10153000806900F48040019000BF00BF4815029010
:1015400002200390012004900320059002A9134873
:10155000FEF772FE4FF4806002900020039002A913
:101560000E48FEF769FE2520FFF749F803221146D1
:101570002520FFF754F82068C06840F0200021685B
:10158000C8602068C06840F010002168C86006B0DC
:1015900010BD00000038014000100240000801406A
:1015A0002DE9F84F04460E46174699464FF0000ABB
:1015B00094F8420020284FD106B117B90120BDE8A8
:1015C000F88F00206064222084F84200002020630D
:1015D000FEF7C8FF8246A785E785A068B0F5805F63
:1015E00004D1206910B90025B04602E035464FF01D
:1015F000000829E05346002220212046CDF8009023
:1016000000F026FA08B10320D9E745B92068406800
:10161000C0F30800A8F8000008F1020811E0A06873
:10162000B0F5805F03D0A06828B9206918B9206898
:101630004068287004E02068406800F07F0028704F
:101640006D1CE08D401EE085E08D0028D2D1202069
:1016500084F842000020B2E70220B0E700BFFEE7B6
:1016600000BFFEE77047704708B508490968C90818
:101670004FF47A72B1FBF2F14143009100BF00BF19
:1016800000994A1E00920029F9D108BD00000020EF
:10169000014600BF080900EB8000420001F00F0086
:1016A0001044C0B270470146002203E0521CA1F171
:1016B0000A00C1B20A29F9D2100741EA1060704746
:1016C0002DE9F04706468846002700240025A1465C
:1016D000F77B747BB57B00BF40E0012C0BD0032C63
:1016E00009D0052C07D0072C05D0082C03D00A2CD4
:1016F00001D00C2C0CD11F2D01D26D1C2CE00C2C18
:1017000002D0641C012527E0012401257F1C23E071
:10171000042C05D0062C03D0092C01D00B2C06D1AB
:101720001E2D01D26D1C17E0641C012514E0022C53
:1017300012D11C2D01D26D1C0EE01C2D08D1B8B2A7
:1017400000F053F808B16D1C06E0641C012503E0AD
:101750001D2D01D1641C012509F10109C145BCD32E
:10176000F7737473B573EAB2E1B2384600F07CF8EF
:101770003073BDE8F08770B504460025FEF7F2FE31
:10178000054607E0FEF7EEFE401BB0F57A7F01D973
:10179000032070BD2068406800F020000028F1D0D0
:1017A0002068406840F01000216848600020F0E7A1
:1017B00070B5044600252068406820F010002168BC
:1017C0004860FEF7CFFE054607E0FEF7CBFE401B64
:1017D000B0F57A7F01D9032070BD2068406800F021
:1017E00020000028F1D00020F6E7014601F00300B8
:1017F00008B1002070476420B1FBF0F200FB12102A
:1018000008B10120F6E74FF4C870B1FBF0F200FB1D
:10181000121008B90120EDE70020EBE70146002295
:1018200000230868006A82B20868406A83B243EA0B
:101830000240704730B501460022002300240020FA
:101840000D68AD69AAB20D68ED69ACB20D68AD69FD
:10185000ABB29A4205D00D68ED6963F31F45284687
:1018600001E044EA024030BDF0B504460B460021D9
:10187000002504F5FA61032B1BD2C3EBC30000EB78
:1018800003100926B0FBF6F01044001D4618481E50
:1018900006EB90066427B0FBF7F0361A481EBF002F
:1018A000B0FBF7F030440726B0FBF6F706FB170550
:1018B0001AE0C3EBC30000EB03100926B0FBF6F0FF
:1018C0001044001D084400EB91006426B1FBF6F6BD
:1018D000801B4FF4C876B1FBF6F63044801E072615
:1018E000B0FBF6F706FB1705E8B2F0BD70B504468D
:1018F0000D4600262046FFF73EFF08B101260AE00C
:10190000280C21680862A8B2216848622046FFF7C7
:101910004FFF00B10126304670BD70B504460D463C
:1019200000262046FFF727FF08B101260AE0280C11
:1019300021688861A8B22168C8612046FFF738FF96
:1019400000B10126304670BD704710B5FEF710FE9D
:1019500010BD704770B504462168096921F44051F3
:10196000E2681143226811612269A168114362692A
:1019700041EA02052168C96841F20C62914329439A
:101980002268D1602168496921F44071A26911433C
:10199000226851612D4A2168914202D1FFF78AF8ED
:1019A00001E0FFF777F800EBC00101EB001162687E
:1019B0009200B1FBF2F100EBC00202EB001263688F
:1019C0009B00B2FBF3F26423B2FBF3F202EBC2031F
:1019D00003EB0212A1EB8201322202EB011164221D
:1019E000B1FBF2F101F0F00100EBC00202EB0012DA
:1019F00063689B00B2FBF3F26423B2FBF3F201EBEA
:101A0000021200EBC00101EB001163689B00B1FB07
:101A1000F3F100EBC00303EB00136668B600B3FB01
:101A2000F6F36426B3FBF6F303EBC30606EB0313EE
:101A3000A1EB8301322303EB01116423B1FBF3F12A
:101A400001F00F0111442268916070BD003801401F
:101A50002DE9F04104460D4617469846069E34E0AF
:101A6000701C88B32EB1FEF77DFDA0EB0800B042DC
:101A70002BD900BF00BF21680C3151E8001F21F4B1
:101A8000D07021680C3141E80002002AF3D100BF78
:101A900000BF00BF2168143151E8001F21F0010090
:101AA0002168143141E80002002AF3D100BF202050
:101AB00084F8410084F8420000BF002084F8400010
:101AC00000BF0320BDE8F081FFE7206800682840E0
:101AD000A84201D1012000E00020B842C0D000207F
:101AE000F0E700001CB5002001901C480068006869
:101AF000C0F34010B8B11A480088802802D30020F3
:101B0000174908804FF47A73012201A91348FFF79F
:101B100047FD9DF80410124802880088401C104BB5
:101B20001880104881540D4800680068C0F3001008
:101B300090B10C490CA000F01FF800F059FC00BF58
:101B40000020009005480068006800900348006885
:101B50004068009000BF00BF1CBD00002C000020AA
:101B60000400002074000020726563763A2025731B
:101B70000D0A000000BFFEE70FB4054B10B503A926
:101B8000044A029800F034F810BC5DF814FB000021
:101B9000AD2000081400002002480068C0F30220B5
:101BA000704700000CED00E010B5002804DB0A07C8
:101BB000130E054A135406E00A07140E034A00F0F8
:101BC0000F031B1FD45410BD00E400E018ED00E02B
:101BD00002E008C8121F08C1002AFAD170477047F6
:101BE000002001E001C1121F002AFBD17047000054
:101BF0002DE9FF4F8DB00F460546002606E025284B
:101C00000BD0DDE90F1290476D1C761C2878002858
:101C1000F5D111B03046BDE8F08F0024A246A146B0
:101C20000122E94900E0044315F8013F203B02FA94
:101C300003F00842F7D128782A2810D06FF02F023D
:101C40002878A0F13001092914D80AEB8A0102EBA7
:101C5000410144F0020400EB010A6D1CF0E701CFE2
:101C60005FEA000A03D544F40054CAF1000A44F0C4
:101C700002046D1C28782E2817D115F8010F44F0A6
:101C800004042A280ED06FF02F022878A0F130012A
:101C900009290AD809EB890102EB410100EB01098E
:101CA0006D1CF2E757F8049B6D1C28786C280FD048
:101CB00006DC4C2817D068280DD06A2814D104E01F
:101CC000742810D07A280FD10DE044F400140AE0F3
:101CD00044F4801401E044F440146978814202D154
:101CE00004F580146D1C6D1C28786E281ED00CDC49
:101CF000632830D004DC00288BD0582811D19FE015
:101D0000642867D069280CD164E073282DD004DCE6
:101D10006F2872D0702804D194E075286ED078288E
:101D20006DD0DDE90F129047761C4BE1C4F30250F1
:101D3000022806D0032809D0042801CF09D0066064
:101D400040E101CFF117C0E900613BE101CF06801E
:101D500038E1067036E117F8040B8DF8000000201A
:101D60008DF80100EB46012003E057F804BB4FF06B
:101D7000FF3061074FF0000102D40DE008F10101CE
:101D8000884649450FDA8045F8DB1BF80810002922
:101D9000F4D108E008F1010188468142FADB1BF822
:101DA00008100029F6D1DDE90F23AAEB08008146CF
:101DB000214600F031F9304400EB080604E0DDE98B
:101DC0000F121BF8010B9047B8F10108F7D221461A
:101DD0004846F2E00A21C4F302524FF0000B08918A
:101DE000022A04D001CFC117032A09D00AE0FF1D3F
:101DF00027F00707F7E8020108E02CE01EE01FE0EB
:101E000000B2C117042A01D140B2C117021E71F1FC
:101E1000000206DA0023D0EB030063EB01012D2260
:101E200002E0220504D52B228DF82420012203E0B4
:101E3000E20701D02022F7E7904653E00A210BE0A9
:101E4000102109E010214FF0000B44F004044FF082
:101E50000809089103E008214FF0000B0891C4F332
:101E60000252022A04D001CF0021032A06D006E044
:101E7000FF1D27F00707F7E8020103E080B2042AFC
:101E800000D1C0B24FF0000822072BD52A78702A63
:101E900007D0DDF820C08CF0100C5CEA0B0C05D0EC
:101EA0000EE040228DF82420012208E050EA0103D0
:101EB00006D030238DF824308DF82520022290465C
:101EC000089B83F0080353EA0B030BD150EA01028D
:101ED00001D1620706D530228DF824204FF0010889
:101EE000A9F101092A78582A04D038A20B9208AA2D
:101EF0000A920BE03AA2F9E75B46089AFEF736F938
:101F00000B9B9B5C0A9A521E0A92137050EA0102C4
:101F1000F2D10A98ADEB000000F1200B600702D56A
:101F200024F4803401E04FF00109D94502DDA9EB2A
:101F30000B0000E0002000EB0B0141440890AAEBED
:101F4000010AE00306D4DDE90F232146504600F0E4
:101F500063F806444FF0000908E009A911F80900E8
:101F6000DDE90F12904709F10109761CC145F4DB48
:101F7000E0030CD5DDE90F232146504600F04CF874
:101F8000064404E0DDE90F1230209047761C0899E2
:101F9000481E08900029F5DC08E00A980A990078A4
:101FA000491C0A91DDE90F129047761CBBF1000134
:101FB000ABF1010BF1DC21465046DDE90F2300F0C7
:101FC00019F806446D1C21E609280100303132332E
:101FD0003435363738396162636465660000000065
:101FE000303132333435363738394142434445464F
:101FF000000000002DE9F041044600251E4617466A
:10200000880404D405E039462020B0476D1C641EC6
:10201000F9D52846BDE8F0812DE9F04104460025B8
:102020001E469046C80301D5302700E020278804CB
:1020300004D505E041463846B0476D1C641EF9D50D
:102040002846BDE8F08110B5044603E04FF47A70ED
:1020500000F005F8201EA4F10104F7D110BD0146DF
:1020600001EBC102D2004FF0E0235A6100229A61D5
:102070001A46126942F004021A611A46126942F0C5
:1020800001021A6100BF4FF0E022106900F0010266
:102090001AB100F48032002AF5D04FF0E022126924
:1020A00022F001024FF0E0231A61704700BF054A99
:1020B000126802F04002002AF9D0C2B2014B1B1D87
:1020C0001A6070470038014010B501221102024821
:1020D000FEF742FA10BD0000000C014010B50122CD
:1020E00051020248FEF738FA10BD0000000C014012
:1020F00000B585B000BF0F48806940F008000D4969
:1021000088610846806900F00800009000BF00BFA9
:102110004FF440700190012002900390032004903E
:1021200001A90548FEF788F8FFF7CEFFFFF7D6FFB5
:1021300005B000BD00100240000C014092B0FEF757
:1021400023FA4FF4E01000F009F9FFF7D1FF4FF444
:10215000E13000F037F900F083F81AA0FFF70CFD2A
:10216000012000F0ADF84AF2A551884215D040F2A6
:10217000EA700C9008200B9010200A9009901E2005
:102180000890282007901C220BA96846FDF7CAFF7B
:1021900007A80FC800F0A0F800BF4AF2A55101201F
:1021A00000F0D0F8012000F08BF80446214609A089
:1021B000FFF7E2FC05E000F017F84FF47A70FFF744
:1021C00042FFF8E768656C6C6F20776F726C642172
:1021D0000D0A0000B6C1B3F6C0B4B5C4D6B5CEAAD8
:1021E000A3BA25580D0A000000B585B00020049060
:1021F0000390002204A90F48FEF717FF002203A94D
:102200000C48FEF7E9FE9DF812009DF811109DF8AC
:102210001020CDE9002102909DF80E309DF80D2090
:102220009DF80F0000F5FA6103A0FFF7A5FC05B0CB
:1022300000BD0000180000207274632074696D6591
:102240003A2025642D253032642D25303264202536
:102250003032643A253032643A253032640D0A0057
:1022600008B500BF1348C06940F080501149C861EB
:102270000846C06900F08050009000BF00BF00BF5A
:102280000846C06940F00060C8610846C06900F0B7
:102290000060009000BF00BFFEF714FA064807492F
:1022A000086047F6FF704860002104488160FEF72F
:1022B0003FFF08BD00100240002800401800002029
:1022C00070B50446002521460248FEF76DFE05461E
:1022D000A8B270BD180000200FB41CB500200190FA
:1022E00000900698C0B28DF804000598C0B28DF831
:1022F00005000498C0B28DF80600002201A910481C
:10230000FFF716F80998A0F5FA60C0B28DF803003F
:102310000898C0B28DF801000798C0B28DF802008D
:10232000002269460648FEF787FF00BF04480068A0
:102330004068C0F340100028F8D01CBC5DF814FBC6
:102340001800002070B504460D462A462146024872
:10235000FEF736FE70BD00001800002030B58FB0CB
:1023600005460124282105A8FDF7F5FE142168463D
:10237000FDF7F1FE01200590000406900020079073
:1023800002200C90C1030D910E9505A8FEF7DAFB13
:1023900004460CB100BFFEE70F2000900220019020
:1023A000002002904FF480600390002004900221EE
:1023B0006846FEF7A3FA04460CB100BFFEE70FB073
:1023C00030BD000010B504460748084908600846BB
:1023D000446000218160C160016181610C21416123
:1023E000FFF74EF810BD0000003801402C0000201F
:1023F00010B580210348FDF7AEFE00200249088099
:1024000010BD000074000020040000200000000047
:102410000000000001020304060708090000000094
:102420000102030402030405060708090A0B0C0D48
:102430000E0F1010010202030405060708090A0B1B
:102440000C0D0E0F1010010268240008000000207F
:1024500018000000D01B000880240008180000208D
:10246000E0040000E01B00080024F400000000006D
:10247000000000001000000001000000000000004B
:04000005080000E906
:00000001FF
