:020000040800F2
:10000000F804002001010008A9170008A117000842
:10001000A51700086D010008C91C000800000000B9
:100020000000000000000000000000009D1A000811
:100030007101000800000000AB1700089F1A0008BB
:100040001B0100081B0100081B0100081B01000820
:100050001B0100081B0100081B0100081B01000810
:100060001B0100081B0100081B0100081B01000800
:100070001B0100081B0100081B0100081B010008F0
:100080001B0100081B0100081B0100080000000004
:100090000000000000000000000000001B0100083C
:1000A0000000000000000000000000000000000050
:1000B0001B0100081B0100081B0100081B010008B0
:1000C0001B0100081B0100081B0100081B010008A0
:1000D0001B010008391C00081B0100081B01000857
:1000E0001B010008D5170008DFF810D000F02CF82D
:1000F000004800470D200008AFF30080F8040020FE
:100100000648804706480047FEE7FEE7FEE7FEE7B1
:10011000FEE7FEE7FEE7FEE7FEE7FEE7A71A0008B8
:10012000E9000008D2B201E000F8012B491EFBD221
:1001300070470022F6E710B513460A4604461946F2
:10014000FFF7F0FF204610BD064C074D06E0E068C3
:1001500040F0010394E8070098471034AC42F6D30E
:10016000FFF7C6FFBC4A0008DC4A000800BFFEE7F4
:10017000704700002DE9F8470346002294466EE1DF
:100180004FF0010808FA02F4D1F8008008EA0400F0
:10019000A0427DD1DFF8DCA2D1F80480A8EB0A09E7
:1001A000D0453AD014DCB8F1030F50D009DCB8F1D7
:1001B000000F31D0B8F1010F1CD0B8F1020F49D1B6
:1001C00020E0B8F1110F18D0B8F1120F42D11EE0A3
:1001D000B9F5881F25D006DCB9F5803F20D0B9F5E8
:1001E000801F37D11AE0B9F5001F18D0B9F5041FE8
:1001F00030D117E0D1F80CC02DE0D1F80C8008F117
:10020000040C28E0D1F80C8008F1080C23E0D1F8A8
:100210000C8008F10C0C1EE000BF00BF00BF00BF47
:1002200000BF00BFD1F80880B8F1000F02D14FF035
:10023000040C0BE0D1F80880B8F1010F03D14FF0A6
:10024000080C1C6102E04FF0080C5C6103E04FF009
:10025000000C00E000BF00BFFF2801D8984601E075
:1002600003F104084646FF2802D84FEA820803E05B
:10027000A2F108084FEA88084746D6F800804FF0F8
:100280000F0909FA07F928EA09080CFA07F900E04A
:1002900088E048EA0908C6F80080D1F8048008F030
:1002A0008058B8F1805F7DD100BFDFF8CC81D8F8ED
:1002B000188048F00108DFF8C091C9F81880C846D6
:1002C000D8F8188008F00108CDF8008000BF00BF02
:1002D0004FEAB9384FEA920958F829504FEA827824
:1002E0004FEA18794FF00F0808FA09F825EA0805CF
:1002F000DFF88881434502D14FF0000816E0DFF8AF
:100300008081434502D14FF001080FE0DFF874818E
:10031000434502D14FF0020808E0DFF86C81434505
:1003200002D14FF0030801E04FF004084FEA827950
:100330004FEA197908FA09F848EA0505DFF84C810F
:100340004FEA920948F82950D1F8048008F480183F
:10035000B8F5801F0AD1DFF83881D8F8008048EA64
:100360000008DFF82C91C9F8008009E0DFF820814F
:10037000D8F8008028EA0008DFF81491C9F8008056
:10038000D1F8048008F40018B8F5001F10D1DFF888
:10039000008108F10408D8F8008048EA0008DFF876
:1003A000F09000E05AE009F10409C9F800800DE07E
:1003B000DFF8DC8008F10408D8F8008028EA00089B
:1003C000DFF8CC9009F10409C9F80080D1F8048065
:1003D00008F40038B8F5003F0ED1DFF8B480A8F17A
:1003E0000408D8F8008048EA0008DFF8A490A9F1D2
:1003F0000409C9F800800DE0DFF89480A8F1040832
:10040000D8F8008028EA0008DFF88490A9F10409F0
:10041000C9F80080D1F8048008F48038B8F5803F2E
:100420000ED1DFF86C80A8F10808D8F8008048EAFF
:100430000008DFF85C90A9F10809C9F800800DE018
:10044000DFF84C80A8F10808D8F8008028EA0008F6
:10045000DFF83C90A9F10809C9F80080521CD1F8D6
:10046000008028FA02F8B8F1000F7FF489AEBDE8E9
:10047000F887000000001110001002400008014041
:10048000000C014000100140001401400800014030
:1004900008040140024693680B400BB1012000E0C4
:1004A000002070470AB1016101E00B04036170474D
:1004B00001480068704700000800002003480068F9
:1004C0000349097808440149086070470800002082
:1004D0001000002010B50848006840F010000649E0
:1004E0000860032000F080F80F2000F007F800F00B
:1004F0002BF8002010BD00000020024070B504461B
:100500000E4800784FF47A71B1FBF0F00C4909689D
:10051000B1FBF0F5284601F03BF808B1012070BDB1
:10052000102C07D200222146501E00F01EF805486C
:10053000046001E00120F2E70020F0E71000002055
:10054000000000200C0000207047014608460028EB
:1005500009DB00F01F0301229A4043099B0003F1CD
:10056000E023C3F8002100BF70472DE9F05F80460B
:100570000D461646002701F0B9FB074639462A46C4
:10058000334601F00700C0F1070ABAF1040F02D99F
:100590004FF0040A01E0C0F1070AD14600F1040A55
:1005A000BAF1070F02D24FF0000A01E0A0F1030AEE
:1005B000D4464FF0010A0AFA09FAAAF1010A0AEA36
:1005C000020A0AFA0CFA4FF0010B0BFA0CFBABF122
:1005D000010B0BEA030B4AEA0B042146404601F0EB
:1005E0008DFBBDE8F09F000000BF00F00702064B46
:1005F00019684FF6FF031940044B0B4343EA0221ED
:10060000014B196000BF70470CED00E00000FA05D7
:10061000012001490862704700000E422DE9F047B1
:1006200006464FF00008002500270024A146012EB1
:1006300031D0022E56D0102E5FD132484468006867
:1006400000F0807008B33048C4F38341475C04F481
:10065000803078B12B484068C0F340402B4911F8F6
:10066000008004F4803040B12948B0FBF8F000FB72
:1006700007F502E0274807FB00F52248406800F430
:100680008000B0F5800F01D1A94603E06800032186
:10069000B0FBF1F932E01B48046A04F44070B0F595
:1006A000807F05D104F0020010B14FF4004918E03A
:1006B00004F44070B0F5007F07D11248406A00F0A2
:1006C000020010B149F640490BE004F44070B0F567
:1006D000407F06D10B48006800F4003008B14FF2AB
:1006E00024490BE000F08CF906494968C1F38131D7
:1006F000491C4900B0FBF1F900E000BF00BF4846CB
:10070000BDE8F08700100240A84A0008B84A000877
:1007100000127A0000093D00F8B5044600260025C5
:10072000207800F0010000286BD000274348C06902
:1007300000F0805070B900BF4048C06940F0805060
:100740003E49C8610846C06900F08050009000BF73
:1007500000BF01273A48006800F48070B0B93848FB
:10076000006840F4807036490860FFF7A1FE064635
:1007700006E0FFF79DFE801B642801D90320F8BD29
:100780002F48006800F480700028F2D02B48006ADF
:1007900000F440752DB3A08800F44070A84220D02A
:1007A0002648006A20F44075012026490860002090
:1007B00008602248056205F0010090B1FFF778FE5D
:1007C000064608E0FFF774FE801B41F2883188423C
:1007D00001D90320D3E71948006A00F0020000287D
:1007E000F0D01648006A20F440706168084313494D
:1007F0000862012F04D10846C06920F08050C8610A
:1008000000BF207800F00200022807D10B484068A2
:1008100020F44040A168084308494860207800F06F
:100820001000102807D10548406820F48000E168D6
:100830000843024948600020A1E700000010024080
:10084000007000404004424270B504460D460CB9A9
:10085000012070BD5A48006800F00700A8420ED27F
:100860005748006820F007002843554908600846AB
:10087000006800F00700A84201D00120E9E72078D5
:1008800000F0020002281DD1207800F004000428A6
:1008900005D14C48406840F4E0604A4948602078FF
:1008A00000F00800082805D14648406840F4605030
:1008B000444948604348406820F0F000A16808437C
:1008C00040494860207800F0010078B36068012852
:1008D00006D13C48006800F4003090B90120B8E728
:1008E0006068022806D13748006800F0007040B9FF
:1008F0000120AEE73348006800F0020008B901208B
:10090000A7E73048406820F00300616808432D499C
:100910004860FFF7CDFD064609E0FFF7C9FD801BE3
:1009200041F28831884202D9032092E707E0254846
:10093000406800F00C006168B0EB810FEDD12048F9
:10094000006800F00700A8420ED91D48006820F09A
:10095000070028431A4908600846006800F00700AD
:10096000A84201D0012074E7207800F00400042898
:1009700007D11448406820F4E060E1680843114959
:100980004860207800F00800082808D10D48406829
:1009900020F46050216940EAC1000A49486000F033
:1009A0003FF808494968C1F30311074A515CC84040
:1009B0000649086006480068FFF7A0FD002048E7E8
:1009C0000020024000100240162C00080000002009
:1009D0000C00002001480068704700000000002063
:1009E00000B5FFF7F7FF04494968C1F30221034A44
:1009F000515CC84000BD000000100240262C0008D9
:100A000000B5FFF7E7FF04494968C1F3C221034A73
:100A1000515CC84000BD000000100240262C0008B8
:100A200070B500210022002400230020134D6968C6
:100A300001F00C05F5B1042D02D0082D19D101E00B
:100A40000F4819E00F4DC1F38346AB5D01F48035CB
:100A500055B10A4D6D68C5F340450B4E725D084DAA
:100A60005D43B5FBF2F402E0084D03FB05F42046BC
:100A700002E000BF024800BF00BF70BD001002408E
:100A800000127A00964A0008A64A000800093D00B4
:100A9000F8B504460CB90120F8BD207800F001003B
:100AA000002878D0F848406800F00C0004280CD0EA
:100AB000F548406800F00C00082811D1F248406861
:100AC00000F48030B0F5803F0AD1EF48006800F4B0
:100AD000003000285FD0606800285CD10120DBE78F
:100AE00000BF6068B0F5803F06D1E748006840F479
:100AF0008030E549086028E0606858B9E24800683D
:100B000020F48030E04908600846006820F4802026
:100B100008601AE06068B0F5A02F0BD1DA480068D1
:100B200040F48020D84908600846006840F48030CE
:100B300008600AE0D448006820F48030D249086098
:100B40000846006820F48020086000BF606888B113
:100B5000FFF7AEFC054606E0FFF7AAFC401B642841
:100B600001D9032098E7C848006800F40030002845
:100B7000F2D010E0FFF79CFC054606E0FFF798FC7A
:100B8000401B642801D9032086E7BF48006800F4B1
:100B900000300028F2D1207800F00200022857D15E
:100BA000B948406800F00C0050B1B748406800F008
:100BB0000C00082818D1B448406800F4803098B977
:100BC000B148006800F0020020B12069012801D07E
:100BD000012061E7AC48006820F0F800616940EA54
:100BE000C100A949086033E02069E8B10120A749A4
:100BF0000860FFF75DFC054606E0FFF759FC401B67
:100C0000022801D9032047E79F48006800F002004E
:100C10000028F2D09C48006820F0F800616940EAA2
:100C2000C1009949086013E0002098490860FFF767
:100C30003FFC054606E0FFF73BFC401B022801D9BC
:100C4000032029E79048006800F002000028F2D154
:100C5000207800F0080008282DD1A069B8B1012043
:100C60008B490860FFF724FC054606E0FFF720FCEF
:100C7000401B022801D903200EE78348406A00F098
:100C800002000028F2D0012000F090FD13E00020C7
:100C90007F490860FFF70CFC054606E0FFF708FCFB
:100CA000401B022801D90320F6E67748406A00F08D
:100CB00002000028F2D1207800F00400042873D14B
:100CC00000277148C06900F0805070B900BF6E48BD
:100CD000C06940F080506C49C8610846C06900F0A6
:100CE0008050009000BF00BF01276A48006800F4F0
:100CF0008070B0B96748006840F48070654908604A
:100D0000FFF7D6FB054606E0FFF7D2FB401B642841
:100D100001D90320C0E65F48006800F48070002815
:100D2000F2D000BFE068012806D15748006A40F0C1
:100D300001005549086227E0E06858B95248006A46
:100D400020F00100504908620846006A20F00400C3
:100D5000086219E0E06805280BD14B48006A40F0B2
:100D60000400494908620846006A40F00100086230
:100D70000AE04548006A20F001004349086208463D
:100D8000006A20F00400086200BFE068A0B1FFF72D
:100D90008FFB054609E0FFF78BFB401B41F28831D2
:100DA000884202D9032077E622E03748006A00F043
:100DB00002000028EFD012E0FFF77AFB054608E0BA
:100DC000FFF776FB401B41F28831884201D90320AE
:100DD00062E62D48006A00F002000028F0D1012FE1
:100DE00005D12948C06920F080502749C86100BF5B
:100DF000E069C8B32448406800F00C00082860D0BF
:100E0000E069022848D1002020490866FFF750FB1E
:100E1000054606E0FFF74CFB401B022801D90320E2
:100E20003AE61948006800F000700028F2D1206A04
:100E3000B0F5803F07D11448406820F40030A16825
:100E4000084311494860D4E9080108430E4949683C
:100E500021F4741108430C49486001200B490866CD
:100E6000FFF726FB054607E03DE0FFF721FB401BAF
:100E7000022801D903200FE60348006800F0007043
:100E80000028F2D02FE00000001002400000424293
:100E90008004424200700040002014490866FFF7B9
:100EA00007FB054606E0FFF703FB401B022801D9BC
:100EB0000320F1E50E48006800F000700028F2D130
:100EC00011E0E069012800D1E6E50948466806F42A
:100ED0008031206A814204D106F47011606A814237
:100EE00001D00120D8E50020D6E5000000004242F4
:100EF0000010024010B5034600220020024A02EB17
:100F000081021468A0B210BD006C004010B5034609
:100F10000020034800EB810094B2046010BD000083
:100F2000006C004010B5044602A000F0CFFE00F0B7
:100F3000A1FF10BD72696E672072696E67207269C9
:100F40006E672E2E2E0D0A0010B50446206800682C
:100F5000C0F3400068B120684068C0F3400040B171
:100F60002046FFF7DFFF2068406820F0020021687C
:100F700048604FF40030024908600120607410BDE1
:100F8000140401402DE9F04106460C4690461F46E8
:100F9000002506B114B90120BDE8F081304600F00B
:100FA000E7FC05464FF46160B5FBF0F01821B0FB9B
:100FB000F1F201FB120020704FF46160B5FBF0F11B
:100FC00000FB11503C21B0FBF1F060704FF4616008
:100FD000B5FBF0F100FB11503C21B0FBF1F201FB3D
:100FE0001200A0705FB1207800F007FC20706078DC
:100FF00000F003FC6070A07800F0FFFBA070002000
:10100000CAE7F8B505460C4616460020009005B123
:101010000CB90120F8BD00226946284600F01AF8F4
:1010200008B10120F6E7287B2070E87BE070687B40
:101030006070A87BA0705EB1E07800F0DEFBE0702D
:10104000607800F0DAFB6070A07800F0D6FBA0704A
:101050000020DFE72DE9F04780460C469146002549
:101060000026AA460027B8F1000F00D014B90120CD
:10107000BDE8F087D8F800004068C0F3800008B1F0
:101080000120F5E7404600F07FFC05464FF4616023
:10109000B5FBF0F7B5FBF0F100FB11503C21B0FBC4
:1010A000F1F060704FF46160B5FBF0F100FB11509E
:1010B0003C21B0FBF1F201FB1200A070182F39D3D4
:1010C0001820B7FBF0FAB7FBF0F100FB11702070AD
:1010D000404600F04DFC0646701C18B1AE4201D9E6
:1010E000761B01E04FF0FF360AEB4A00C000C0EB70
:1010F0004011C1EB0020A5EB00152946404600F049
:10110000B6FC08B10120B3E7701C38B12E4431465B
:10111000404600F095FC40B10120A9E73146404629
:1011200000F08EFC08B10120A2E75146404600F0D5
:1011300071FB00E02770B9F1000F0BD0207800F0B0
:101140005CFB2070607800F058FB6070A07800F0C5
:1011500054FBA07000208BE770B5044600250CB945
:10116000012070BD607C20B900202074204600F072
:1011700053F802206074204600F0EAF918B1042008
:1011800060740120EDE7204600F09FFB18B10420B9
:1011900060740120E5E72068406820F007002168BE
:1011A0004860A06828B11B48006820F00100194978
:1011B00008601848001F006820F46070A1680843A8
:1011C0001449091F08606068401C08B1656809E09F
:1011D0000120FFF723FA05461DB9042060740120A1
:1011E000BFE76D1EC5F3034021688860A8B221687F
:1011F000C860204600F086FB18B10420607401200E
:10120000AFE70021E17301216173A17301206074D4
:101210000020A6E7306C004010B58EB004460120D7
:1012200012490860282104A8FEF783FF00200090DF
:101230000190029003900420049001200790002068
:101240000B9004A8FFF724FC0120009000020190FD
:101250006846FFF761FA022211462920FFF785F957
:101260002920FFF772F90EB010BD00003C04424285
:101270002DE9F84304460D4617460026002000904D
:1012800004B115B90120BDE8F88300BF207C012816
:1012900001D10220F7E70120207400BF0220607412
:1012A000002269462046FFF7D5FE08B10120EAE793
:1012B0009DF800004FF4616148439DF80110C1EBB7
:1012C000011100EB81009DF8021000EB01085FB9ED
:1012D00028784FF4616148436978C1EB011100EB54
:1012E0008100A978461812E0287800F07BFA4FF4C4
:1012F000616100FB01F9687800F074FAC0EB00103E
:1013000009EB8009A87800F06DFA09EB0006464564
:1013100001D2184806443146204600F091FB38B10E
:101320000420607400BF0020207400BF0120AAE7E1
:101330002068406820F0020021684860206800684A
:1013400040F00200216808600B48006840F400305B
:101350000949086008480830006840F40030064930
:10136000083108600120607400BF0020207400BFB5
:1013700000BF88E780510100000401402DE9F047DB
:1013800004460D46904600260027B14604B115B923
:101390000120BDE8F08700BF207C012801D1022098
:1013A000F7E70120207400BF02206074B8F1000F3D
:1013B00006D1E978E17369786173A978A1730BE0CC
:1013C000E87800F00FFAE073687800F00BFA6073C9
:1013D000A87800F007FAA073A27B617BE07B00F0A5
:1013E000EDFA2073207B2870204600F0CDFA0646E7
:1013F0004FF46160B6FBF0F9B9F1180F2FD918203E
:10140000B9FBF0F000EB4000C000C0EB4011C1EBB5
:101410000020A6EB00163146204600F028FB38B12C
:101420000420607400BF0020207400BF0120B0E7DA
:10143000204600F09DFA0746781C80B1B7420ED2D4
:101440000B4807443946204600F0FAFA38B1042028
:10145000607400BF0020207400BF012099E70120C4
:10146000607400BF0020207400BF00BF91E700003F
:10147000805101002DE9F04704460D4690460026B4
:10148000002704B115B90120BDE8F08700BF207C1A
:10149000012801D10220F7E70120207400BF0220BB
:1014A0006074B8F1000F0BD128784FF461614843A4
:1014B0006978C1EB011100EB8100A978461812E0B0
:1014C000287800F08FF94FF4616100FB01F968782A
:1014D00000F088F9C0EB001009EB8009A87800F053
:1014E00081F909EB00063146204600F0C0FA38B118
:1014F0000420607400BF0020207400BF0120C3E7F7
:101500002068406820F0050021684860204600F00F
:101510002FFA0746781C80B1B7420ED20B48074419
:101520003946204600F08CFA38B10420607400BFC0
:101530000020207400BF0120A6E70120607400BFD6
:101540000020207400BF00BF9EE700008051010012
:1015500070B5044600250CB9012070BD20684068B4
:1015600020F0080021684860FEF7A2FF054607E06A
:10157000FEF79EFF401BB0F57A7F01D90320ECE710
:101580002068406800F008000028F1D00020E4E75F
:1015900070B504462546681EB0F1807F01D3012056
:1015A0000FE0681E4FF0E02148610F214FF0FF303F
:1015B00000F0A4FB00204FF0E021886107200861C3
:1015C000002070BD10B504460CB9012010BDA06903
:1015D00000B100E000BF94F8410028B9002084F871
:1015E0004000204600F02AF8242084F841002068BA
:1015F000C06820F400502168C860204600F054FA0A
:101600002068006920F490402168086120684069E2
:1016100020F02A00216848612068C06840F400502A
:101620002168C86000206064202084F8410084F8AC
:1016300042000020606300BFC8E7000010B586B01C
:10164000044625492068884243D100BF2348806969
:1016500040F00400214988610846806900F00400D8
:10166000019000BF00BF00BF0846806940F4804081
:1016700088610846806900F48040019000BF00BF87
:101680004815029002200390012004900320059049
:1016900002A91348FEF76EFD4FF48060029000200F
:1016A000039002A90E48FEF765FD2520FEF74DFFC9
:1016B000032211462520FEF758FF2068C06840F03D
:1016C00020002168C8602068C06840F010002168D0
:1016D000C86006B010BD0000003801400010024094
:1016E000000801402DE9F84F04460E46174699467A
:1016F0004FF0000A94F8420020284FD106B117B9E4
:101700000120BDE8F88F00206064222084F84200A8
:1017100000202063FEF7CCFE8246A785E785A068FF
:10172000B0F5805F04D1206910B90025B04602E011
:1017300035464FF0000829E053460022202120467C
:10174000CDF8009000F02EFA08B10320D9E745B992
:1017500020684068C0F30800A8F8000008F10208FB
:1017600011E0A068B0F5805F03D0A06828B92069B7
:1017700018B920684068287004E02068406800F0CC
:101780007F0028706D1CE08D401EE085E08D0028F4
:10179000D2D1202084F842000020B2E70220B0E736
:1017A00000BFFEE700BFFEE77047704708B5084975
:1017B0000968C9084FF47A72B1FBF2F14143009114
:1017C00000BF00BF00994A1E00920029F9D108BD50
:1017D0000000002010B50248FFF7B6FB10BD000066
:1017E00018000020014600BF080900EB80004200FD
:1017F00001F00F001044C0B270470146002203E020
:10180000521CA1F10A00C1B20A29F9D2100741EA1B
:10181000106070472DE9F0470646884600270024EF
:101820000025A146F77B747BB57B00BF40E0012C0F
:101830000BD0032C09D0052C07D0072C05D0082C81
:1018400003D00A2C01D00C2C0CD11F2D01D26D1C01
:101850002CE00C2C02D0641C012527E0012401257A
:101860007F1C23E0042C05D0062C03D0092C01D0CA
:101870000B2C06D11E2D01D26D1C17E0641C012516
:1018800014E0022C12D11C2D01D26D1C0EE01C2D77
:1018900008D1B8B200F053F808B16D1C06E0641C22
:1018A000012503E01D2D01D1641C012509F1010969
:1018B000C145BCD3F7737473B573EAB2E1B238466D
:1018C00000F07CF83073BDE8F08770B50446002561
:1018D000FEF7EEFD054607E0FEF7EAFD401BB0F51A
:1018E0007A7F01D9032070BD2068406800F0200095
:1018F0000028F1D02068406840F01000216848605E
:101900000020F0E770B5044600252068406820F00C
:10191000100021684860FEF7CBFD054607E0FEF7A2
:10192000C7FD401BB0F57A7F01D9032070BD206848
:10193000406800F020000028F1D00020F6E70146C2
:1019400001F0030008B1002070476420B1FBF0F201
:1019500000FB121008B10120F6E74FF4C870B1FB8C
:10196000F0F200FB121008B90120EDE70020EBE7D0
:101970000146002200230868006A82B20868406AB3
:1019800083B243EA0240704730B50146002200238B
:10199000002400200D68AD69AAB20D68ED69ACB2F3
:1019A0000D68AD69ABB29A4205D00D68ED6963F37D
:1019B0001F45284601E044EA024030BDF0B5044628
:1019C0000B460021002504F5FA61032B1BD2C3EB63
:1019D000C30000EB03100926B0FBF6F01044001D15
:1019E0004618481E06EB90066427B0FBF7F0361A3F
:1019F000481EBF00B0FBF7F030440726B0FBF6F7F7
:101A000006FB17051AE0C3EBC30000EB0310092621
:101A1000B0FBF6F01044001D084400EB9100642672
:101A2000B1FBF6F6801B4FF4C876B1FBF6F63044F6
:101A3000801E0726B0FBF6F706FB1705E8B2F0BDDF
:101A400070B504460D4600262046FFF73EFF08B15C
:101A500001260AE0280C21680862A8B221684862C1
:101A60002046FFF74FFF00B10126304670BD70B52C
:101A700004460D4600262046FFF727FF08B1012641
:101A80000AE0280C21688861A8B22168C861204654
:101A9000FFF738FF00B10126304670BD704710B522
:101AA000FEF70CFD10BD704770B50446216809694A
:101AB00021F44051E2681143226811612269A16852
:101AC0001143626941EA02052168C96841F20C626A
:101AD000914329432268D1602168496921F440710A
:101AE000A2691143226851612D4A2168914202D1B5
:101AF000FEF786FF01E0FEF773FF00EBC00101EB8C
:101B0000001162689200B1FBF2F100EBC00202EB3F
:101B1000001263689B00B2FBF3F26423B2FBF3F2A2
:101B200002EBC20303EB0212A1EB8201322202EBB1
:101B300001116422B1FBF2F101F0F00100EBC002EF
:101B400002EB001263689B00B2FBF3F26423B2FB6A
:101B5000F3F201EB021200EBC00101EB001163682C
:101B60009B00B1FBF3F100EBC00303EB00136668CD
:101B7000B600B3FBF6F36426B3FBF6F303EBC30640
:101B800006EB0313A1EB8301322303EB0111642362
:101B9000B1FBF3F101F00F0111442268916070BDB7
:101BA000003801402DE9F04104460D46174698469D
:101BB000069E34E0701C88B32EB1FEF779FCA0EBD2
:101BC0000800B0422BD900BF00BF21680C3151E89A
:101BD000001F21F4D07021680C3141E80002002A76
:101BE000F3D100BF00BF00BF2168143151E8001FCE
:101BF00021F001002168143141E80002002AF3D1EC
:101C000000BF202084F8410084F8420000BF00207B
:101C100084F8400000BF0320BDE8F081FFE72068A2
:101C200000682840A84201D1012000E00020B8420D
:101C3000C0D00020F0E700001CB5002001901C4837
:101C400000680068C0F34010B8B11A4800888028C6
:101C500002D30020174908804FF47A73012201A9AA
:101C60001348FFF73FFD9DF80410124802880088D2
:101C7000401C104B1880104881540D4800680068C3
:101C8000C0F3001090B10C490CA000F01FF800F058
:101C9000B1FF00BF00200090054800680068009078
:101CA000034800684068009000BF00BF1CBD0000F2
:101CB0002C00002004000020740000207265637670
:101CC0003A2025730D0A000000BFFEE70FB4054B54
:101CD00010B503A9044A029800F033F810BC5DF86F
:101CE00014FB0000F11E00081400002002480068E8
:101CF000C0F30220704700000CED00E010B5002892
:101D000004DB0A07130E054A135406E00A07140EF3
:101D1000034A00F00F031B1FD45410BD00E400E081
:101D200018ED00E002E008C8121F08C1002AFAD12D
:101D300070477047002001E001C1121F002AFBD14B
:101D400070472DE9F84F9946924688460546002788
:101D500006E025280AD051464A4690476D1C7F1C54
:101D600028780028F5D13846BDE8F88F002315F80B
:101D7000011F18462E2915D115F8011F04232A2901
:101D80000DD06FF02F022978A1F13004092C09D869
:101D900000EB800002EB400008446D1CF3E758F8AC
:101DA000040B6D1C2A78002ADDD0632A07D0732A21
:101DB0000FD0104651464A4690477F1C2AE018F83B
:101DC000042B8DF8002000218DF801106E460121B2
:101DD00003E058F8046B4FF0FF315A074FF000044E
:101DE00001D409E0641C84420BDA8C42FADB325DD8
:101DF000002AF7D105E0641C8C42FCDB305D002832
:101E0000F9D1274404E016F8010B51464A469047A1
:101E1000641EF8D26D1CA3E700B585B000BF0E4864
:101E2000806940F010000C4988610846806900F024
:101E30001000009000BF00BF4FF40050019001203F
:101E4000029003900320049001A90448FEF792F940
:101E500000F006F805B000BD00100240001001407F
:101E600010B5012251030248FEF71CFB10BD000013
:101E70000010014010B500224FF400510148FEF758
:101E800011FB10BD0010014010B5044603E04FF4F3
:101E90007A7000F005F8201EA4F10104F7D110BDFE
:101EA000014601EBC102D2004FF0E0235A6100224B
:101EB0009A611A46126942F004021A611A461269BE
:101EC00042F001021A6100BF4FF0E022106900F0F9
:101ED00001021AB100F48032002AF5D04FF0E0225E
:101EE000126922F001024FF0E0231A6170470000EE
:101EF00000BF054A126802F04002002AF9D0C2B2BF
:101F0000014B1B1D1A6070470038014000B585B0B9
:101F100000BF0D48806940F004000B498861084605
:101F2000806900F00400009000BF00BF0F20019006
:101F300000200290012003900320049001A903488F
:101F4000FEF718F905B000BD00100240000801407E
:101F500010B501212C48FEF79DFA80B90A20FFF741
:101F600093FF01212848FEF795FA40B900BF0121EF
:101F70002548FEF78FFA0028F9D0012010BD022174
:101F80002148FEF787FA80B90A20FFF77DFF02217A
:101F90001D48FEF77FFA40B900BF02211A48FEF73C
:101FA00079FA0028F9D00220E8E704211648FEF764
:101FB00071FA80B90A20FFF767FF04211248FEF783
:101FC00069FA40B900BF04210F48FEF763FA002800
:101FD000F9D00320D2E708210B48FEF75BFA80B95D
:101FE0000A20FFF751FF08210748FEF753FA40B9CE
:101FF00000BF08210448FEF74DFA0028F9D004205C
:10200000BCE70020BAE70000000801401FB5FEF75A
:1020100061FA4FF4E01000F0A3FD4FF4E13000F05E
:10202000D3FDFFF7F9FEFFF771FF00F099F900F01B
:102030000BFD5AA0FFF74AFE5CA103C9CDE90201DE
:102040005C4903C9CDE90001052400BF002500BF9C
:1020500000F050FB012000F027FD4AF2A551884214
:1020600008D0012000F070FD02A800F041FD684694
:1020700000F026FD91E002A800F0C2FC684600F0E6
:10208000A7FC694602A800F02CFCFFF761FF0128BD
:1020900006D002287AD0032879D004287BD177E0B3
:1020A000012570E002A9085D2246002100F0C2FA75
:1020B0006420FFF7E9FE02A9085D2246012100F035
:1020C000B9FA6420FFF7E0FEFFF742FF012806D0CF
:1020D000022809D003280ED0042852D144E000255C
:1020E00002A800F005FD4DE0201EA4F10101CCB2D4
:1020F00000DC052446E0052C01D0042C08D102A800
:10210000005D3B2804DA02A8005D401C02A90855C6
:10211000032C08D102A8005D172804DA02A8005D8C
:10212000401C02A90855022C08D102A8005D1F28F6
:1021300004DA02A8005D401C02A90855012C08D150
:1021400002A8005D0C2804DA02A8005D401C02A968
:10215000085544B902A8005D632804DA02A8005DAE
:10216000401C02A908550DE002A8005D002804DD0E
:1021700002A8005D401E02A9085503E006E006E043
:1021800009E000BF00BF002D8CD105E004E000BFD6
:10219000FFF766FE00E000BF00BF6CE768656C6C8F
:1021A0006F20776F726C64210D0A00001A081A17ED
:1021B0000E1E0000102C000870B506460D460024C7
:1021C0002946304600F01BF900BF04E0002000F073
:1021D000E8FB601CC4B2102CF8DB681CC1B23046AE
:1021E00000F00DF9002404E0002000F0DAFB601C90
:1021F000C4B2102CF8DB70BD70B5064600240EE0AA
:102200002146002000F0FBF8002504E0304600F0F5
:10221000C8FB681CC5B2802DF8DB601CC4B2082C5A
:10222000EEDB70BD00B585B000BF1748806940F097
:102230000800154988610846806900F00800009090
:1022400000BF00BF00BF0846806940F008008861F9
:102250000846806900F00800009000BF00BF8815A4
:1022600001900120029003900320049001A90748E7
:10227000FDF780FF4FF40070019001A90348FDF7BE
:1022800079FF05B000BD000000100240000C0140C5
:1022900010B5012211020548FEF704F900224FF49F
:1022A00080710248FEF7FEF810BD0000000C0140EE
:1022B00010B5012211020A48FEF7F4F8012251027A
:1022C0000748FEF7EFF800224FF400710448FEF7CC
:1022D000E9F800224FF480710148FEF7E3F810BDE1
:1022E000000C014010B5012211020748FEF7DAF890
:1022F00000224FF400710448FEF7D4F80122510285
:102300000148FEF7CFF810BD000C014070B504463F
:10231000254600261EE005F08000802805D1012218
:1023200081000E48FEF7BEF805E000224FF4007170
:102330000A48FEF7B7F86806050E012211020748A1
:10234000FEF7B0F800224FF480710448FEF7AAF8B7
:10235000701CC6B2082EDEDB70BD0000000C014010
:1023600010B5FFF75FFF6420FFF78EFDAE2000F091
:1023700002FBD52000F0FFFA802000F0FCFAA82034
:1023800000F0F9FA3F2000F0F6FAD32000F0F3FA5B
:10239000002000F0F0FA402000F0EDFAA12000F05B
:1023A000EAFAC82000F0E7FADA2000F0E4FA122096
:1023B00000F0E1FA812000F0DEFACF2000F0DBFA35
:1023C000D92000F0D8FAF12000F0D5FADB2000F097
:1023D000D2FA302000F0CFFAA42000F0CCFAA620E8
:1023E00000F0C9FA8D2000F0C6FA142000F0C3FAFC
:1023F000AF2000F0C0FA0020FFF7FEFE10BD70B560
:1024000004460D4605F1B001C8B200F0B4FA04F07C
:102410000F0000F0B0FA102141EA141000F0ABFAFE
:1024200070BD70B504460D46C5B10A2094FBF0F0AE
:102430003030C6B21023324606211A2000F058F878
:102440000A2094FBF0F100FB11403030C6B210239B
:1024500032460621222000F04BF803E006211A2024
:10246000FFF7AAFE70BD70B504460D46C5B10A203F
:1024700094FBF0F03030C6B21023324606213820EB
:1024800000F036F80A2094FBF0F100FB11403030E8
:10249000C6B2102332460621402000F029F803E09E
:1024A00006213820FFF788FE70BD70B504460D4642
:1024B000C5B10A2094FBF0F03030C6B2102332468A
:1024C0000621562000F014F80A2094FBF0F100FBDE
:1024D00011403030C6B21023324606215E2000F093
:1024E00007F803E006215620FFF766FE70BD0000E6
:1024F0002DE9F0478246884616461C46A6F1200084
:10250000C6B22046E11704EB5171C1F3C709E117C8
:1025100004EB5171C910A4EBC10119B109F101001B
:1025200000F0FF09002535E008EB0500C1B2504678
:10253000FFF765FF204604EBD07149106943CFB225
:102540001FE00C2C08D106EB4601144A02EB810176
:10255000C85D00F026FA12E0102C06D1104901EBFC
:102560000611C85D00F01DFA09E0182C07D106EB32
:10257000C6010C4A02EB8101C85D00F012FA781C1A
:10258000C7B204EBD47149106A1C5143B942D8DC7C
:10259000681CC5B24D45C7DBBDE8F087D62E0008E4
:1025A0004A3300083A3900082DE9F04180460E46CA
:1025B0001746002415E03019C1B24046FFF71FFF4F
:1025C0002005050C07E0094901EB4711485D00F0C3
:1025D000E8F9681C85B2601C0001A842F3DC601CAD
:1025E00084B2022CE7DBBDE8F08100002E2C00084D
:1025F00070B504460D46C5B10A2094FBF0F03030AA
:10260000C6B21023324600215820FFF771FF0A207E
:1026100094FBF0F100FB11403030C6B2102332467B
:1026200000216020FFF764FF03E000215820FFF73E
:10263000C3FD70BD70B505460E461446092C33D255
:10264000DFE804F0050A0F14191E23282D00314677
:10265000284600F06EF928E03146284600F0E4F8FC
:1026600023E031462846FFF7C3FF1EE031462846E7
:1026700000F01DF819E03146284600F0B3F814E0E8
:102680003146284600F0F2F80FE031462846FFF7C1
:10269000C8FE0AE031462846FFF7E5FE05E0314670
:1026A0002846FFF702FF00E000BF00BF70BD70B515
:1026B00004460D46C5B10A2094FBF0F03030C6B296
:1026C0001023324602211A20FFF712FF0A2094FB42
:1026D000F0F100FB11403030C6B210233246022127
:1026E0002220FFF705FF03E002211A20FFF764FD17
:1026F00070BD000010B50020FFF77EFD102336A24C
:102700000021082000F0D4F8002211462820FFF70D
:102710004BFF102332A20021382000F0C9F801221B
:1027200000214820FFF740FF10232DA20021582050
:1027300000F0BEF8022200216820FFF735FF1023C9
:1027400027A202211A2000F0B3F810233A22022116
:102750002D20FFF7CDFE102321A20221382000F00A
:10276000A7F810233A2202214B20FFF7C1FE1023C5
:102770001BA20221562000F09BF8032204210A200C
:10278000FFF712FF042211461A20FFF70DFF102356
:102790003A2204212A20FFF7ABFE102310A20621C3
:1027A0001A2000F085F810233A2206212D20FFF789
:1027B0009FFE10230AA20621382000F079F810238A
:1027C0003A2206214B20FFF793FE102304A2062194
:1027D000562000F06DF810BD32303030000000009F
:1027E0003030000070B504460D46C5B10A2094FB98
:1027F000F0F03030C6B21023324602213820FFF705
:1028000077FE0A2094FBF0F100FB11403030C6B295
:102810001023324602214020FFF76AFE03E0022126
:102820003820FFF7C9FC70BD70B504460D46C5B130
:102830000A2094FBF0F03030C6B21023324600215B
:102840003820FFF755FE0A2094FBF0F100FB114001
:102850003030C6B21023324600214020FFF748FE38
:1028600003E000213820FFF7A7FC70BD70B50446D7
:102870000D46C5B10A2094FBF0F03030C6B21023EB
:10288000324602215620FFF733FE0A2094FBF0F176
:1028900000FB11403030C6B21023324602215E20C8
:1028A000FFF726FE03E002215620FFF785FC70BDEE
:1028B0002DE9F04106460F4614461D460CE02278ED
:1028C0002B4639463046FFF713FE284605EBD071FC
:1028D00006EB6101CEB2641C20780028EFD1BDE880
:1028E000F08170B504460D462078012100F021F8F2
:1028F00060780121FFF798FFA0780121FFF778FEAB
:10290000E0780121FFF7D3FE20790121FFF76AFF6C
:1029100060790121FFF7AAFF28780121FFF781FDE7
:1029200068780121FFF79FFDA8780121FFF7BDFD21
:1029300070BD70B504460D46C5B10A2094FBF0F099
:102940003030C6B21023324600211820FFF7D0FDE8
:102950000A2094FBF0F100FB11403030C6B2102386
:10296000324600212020FFF7C3FD03E0002118209C
:10297000FFF722FC70BD10B50446FFF799FC7820E4
:10298000FFF7C4FCFFF784FC0020FFF7BFFCFFF754
:102990007FFC2046FFF7BAFCFFF77AFCFFF7A2FCAA
:1029A00010BD10B50446FFF783FC7820FFF7AEFC9E
:1029B000FFF76EFC4020FFF7A9FCFFF769FC2046FB
:1029C000FFF7A4FCFFF764FCFFF78CFC10BD0000D0
:1029D0001CB5044600200090019000231A46694669
:1029E0000648FEF7CFFA9DF8000020709DF8010020
:1029F00060709DF80200A0701CBD0000180000204F
:102A00001CB50446002001900090002201A90D4849
:102A1000FEF720FB002269460A48FEF7F2FA9DF80D
:102A2000030020709DF8010060709DF80200A07006
:102A30009DF80400E0709DF8050020719DF80600E7
:102A400060711CBD1800002008B500BF1348C069A4
:102A500040F080501149C8610846C06900F08050BC
:102A6000009000BF00BF00BF0846C06940F0006092
:102A7000C8610846C06900F00060009000BF00BF58
:102A8000FDF7C6FD06480749086047F6FF70486035
:102A9000002104488160FEF75FFB08BD0010024082
:102AA000002800401800002070B50446002521468B
:102AB0000248FEF71FFA0546A8B270BD18000020B4
:102AC0001CB50446002000900190019020788DF8FC
:102AD000000060788DF80100A0788DF802000022D7
:102AE00069460248FEF7C4FB1CBD00001800002028
:102AF0001CB50446002001900090E0788DF8040099
:102B000020798DF8050060798DF80600002201A972
:102B10000C48FEF7AFFC20788DF8030060788DF844
:102B20000100A0788DF80200002269460548FEF7F2
:102B300025FC00BF034800684068C0F3401000282F
:102B4000F8D01CBD1800002070B504460D462A467A
:102B500021460248FEF7DAF970BD00001800002097
:102B600030B58FB005460124282105A8FDF7E1FA0C
:102B700014216846FDF7DDFA012005900004069057
:102B80000020079002200C90C1030D910E9505A81E
:102B9000FDF77EFF04460CB100BFFEE70F2000905A
:102BA00002200190002002904FF4806003900020EA
:102BB000049002216846FDF747FE04460CB100BFB1
:102BC000FEE70FB030BD000010B5044607480849C5
:102BD00008600846446000218160C1600161816134
:102BE0000C214161FEF7EEFC10BD000000380140F1
:102BF0002C00002010B580210348FDF79AFA002030
:102C00000249088010BD000074000020040000206C
:102C1000170F00000000000000000000000001028B
:102C20000304060708090000000001020304002055
:102C300018C744444444FC4444444404000004048D
:102C4000040704040404FF04040404040400000052
:102C500000FE2222222222222222FE0000008040A8
:102C6000300F02020202020242827F0000000000D6
:102C700000FE82828282828282FE000000000000CA
:102C800000FF40404040404040FF0000000000F88E
:102C9000012220222AF22222222202FE000000FF2C
:102CA00000001F01017F09110F40807F00002010EC
:102CB0002CE7242400F01010FF1010F00000010198
:102CC000017F211100070202FF020207000000003D
:102CD000FC2424242526242424FC000000000000D9
:102CE000FF814121030509112945428080004040B0
:102CF00042CC000020180F08F80808080000000067
:102D0000007F201001010101FF010101010080800D
:102D1000EE888888E88F088878484E40C000000018
:102D20007F2424247F008140300F30418000000048
:102D300000000001E21CE0000000000000008040F4
:102D400020100C03000000030C30408080001010A5
:102D500090909090901010FF10101116100000200D
:102D600060203F10101000030C102040F8000000FD
:102D7000000000F0F0101010121C18101010F0F0ED
:102D80000000000000000000000000FFFF111131F2
:102D9000D11111111111BFDF60000000000000000F
:102DA0000000003F7F3010080805060E091910309A
:102DB000306020000000000000000C38100000000F
:102DC000C0783E2420E020202020300000000002B7
:102DD000020202FE020014131010101010FF101057
:102DE00010101018100000000000001F0C04020159
:102DF00000000000007F0000000000000000000054
:102E00000000F8484040C040407E444040C0404040
:102E1000FC780000000000000808FF89888888FF0F
:102E2000090444300EEBE92808281C0C00000000BF
:102E300000003F101010103F404020100C0700030E
:102E40000C1830602000000000000000000408089A
:102E500010F0C000000000000000000000000000B2
:102E6000000000000080C0381E03010E70E08000EA
:102E700000000000000000402010080402010000D3
:102E800000000000000003070E1C381010000000B6
:102E90000080808080808080808080FCFC808488AE
:102EA00098706040000000000808080808F808084A
:102EB000080800037FE000000000000000000000A0
:102EC00030301010080F0808040404000003071C29
:102ED0001830607E4000000000000000000000008C
:102EE00000000000FC000000000002000000000CD8
:102EF000020C020000000000000090D0BCD0BC908A
:102F00000003000300001824FE448C0003020702A3
:102F100001001824D8B04C80000300010201C03821
:102F2000E438E0000102020102020806000000008D
:102F3000000000000000000000F804020000000192
:102F40000204000204F80000000402010000906086
:102F5000F86090000000010000002020FC2020000C
:102F60000000010000000000000000000806000052
:102F700000002020202020000000000000000000B1
:102F8000000000000002000000000080601C020041
:102F9000040300000000F8040404F8000102020227
:102FA00001000008FC000000000203020000188479
:102FB0004424180003020202020008042424D8005A
:102FC00001020202010040B088FC80000000000302
:102FD00002003C242424C400010202020100F8245F
:102FE000242CC0000102020201000C04E41C0400B5
:102FF000000003000000D8242424D80001020202AB
:10300000010038444444F8000003020201000000BB
:10301000100000000000020000000000200000007E
:10302000000006000000002050880402000000009C
:1030300001029090909090000000000000000002BB
:10304000048850200002010000001804C424180065
:10305000000002000000F804E494F80001020202FB
:10306000020000E09CF0800002030000030204FC68
:103070002424D800020302020100F80404040C0016
:1030800001020202010004FC0404F800020302022F
:10309000010004FC24740C0002030202030004FC7F
:1030A00024740C00020302000000F0080444CC4029
:1030B00000010202010004FC2020FC0402030000C5
:1030C00003020404FC0404000202030202000004E0
:1030D00004FC040406040403000004FC24D00C04D3
:1030E00002030200030204FC0400000002030202C7
:1030F0000203FC3CC03CFC0003000300030004FC92
:1031000030C4FC04020302000300F8040404F800C5
:1031100001020202010004FC242418000203020040
:103120000000F8848404F80001020207050004FC92
:1031300024649800020302000302182424448C0033
:103140000302020201000C04FC040C000002030252
:10315000000004FC0000FC04000102020100047CE9
:1031600080E01C040000030000001CE03CE01C00A8
:10317000000300030000049C609C040002030003A1
:103180000200041CE01C04000002030200000C8486
:10319000641C04000203020203000000FE0202009D
:1031A000000007040400000E30C000000000000111
:1031B0000200000202FE00000004040700000004F8
:1031C00002040000000000000000000000000000F9
:1031D00008080808080800000200000000000000BD
:1031E00000000040A0A0C00000010202030204FC95
:1031F0002020C00000030202010000C02020600067
:1032000000010202020000C02024FC0000010202B2
:10321000030200C0A0A0C0000001020202000020C2
:10322000F82424040002030202000040A0A0602051
:1032300000070A0A0A0404FC2020C000020302005E
:1032400003020020E400000000020302000000006E
:1032500020E4000008080807000004FC80E02020AB
:103260000203020003020404FC0000000202030245
:103270000200E020E020C00003000300030020E083
:103280002020C00002030200030200C02020C00072
:1032900000010202010020E02020C000080F0A0205
:1032A000010000C02020E0000001020A0F0820E019
:1032B000402020000203020000000060A0A02000C7
:1032C0000002020203000020F820000000000102BA
:1032D000020020E00020E00000010202030220E0E2
:1032E000208060200000030100006080E08060001A
:1032F0000003000300002060806020000203000340
:10330000020020E020806020080807010000002063
:10331000A0602000000203020200000020DE020084
:10332000000000070400000000FF00000000000F84
:1033300000000002DE20000000040700000002017F
:103340000204040200000000000000000000000071
:1033500000000000000000000000000000F8000075
:103360000000000000333000000000100C06100CBC
:103370000600000000000000000040C07840C07857
:103380004000043F04043F040400007088FC08303F
:103390000000001820FF211E0000F008F000E018D7
:1033A000000000211C031E211E0000F00888700090
:1033B00000001E2123241927211010160E000000E2
:1033C00000000000000000000000000000E0180401
:1033D0000200000000071820400000020418E0006E
:1033E00000000040201807000000404080F08040AE
:1033F00040000202010F01020200000000F0000084
:1034000000000101011F0101010000000000000097
:10341000000080B07000000000000000000000000C
:103420000000000101010101010100000000000095
:10343000000000303000000000000000000080604C
:103440001804006018060100000000E010080810D1
:10345000E000000F102020100F00001010F80000F6
:1034600000000020203F202000000070080808888D
:10347000700000302824222130000030088888485D
:1034800030000018202020110E000000C02010F88D
:10349000000000070424243F240000F8088888085E
:1034A00008000019212020110E0000E01088881863
:1034B0000000000F112020110E0000380808C83845
:1034C00008000000003F0000000000708808088825
:1034D0007000001C222121221C0000E010080810AE
:1034E000E0000000312222110F00000000C0C000E7
:1034F00000000000003030000000000000800000EC
:1035000000000000806000000000000080402010EB
:1035100008000001020408102000404040404040E4
:103520004000040404040404040000081020408047
:10353000000000201008040201000070480808087C
:10354000F0000000003036010000C030C828E8104C
:10355000E0000718272423140B000000C038E00007
:103560000000203C23020227382008F88888887051
:103570000000203F202020110E00C030080808085D
:103580003800071820202010080008F80808081044
:10359000E000203F202020100F0008F88888E8086D
:1035A0001000203F20202320180008F88888E80811
:1035B0001000203F200003000000C0300808083839
:1035C000000007182020221E020008F8080000084A
:1035D000F808203F210101213F20000808F80808D1
:1035E00000000020203F2020000000000808F8080C
:1035F0000800C08080807F00000008F888C028187C
:103600000800203F20012638200008F808000000AC
:103610000000203F20202020300008F8F800F8F8B3
:103620000800203F003F003F200008F830C000089D
:10363000F808203F200007183F00E0100808081095
:10364000E0000F10202020100F0008F808080808DC
:10365000F000203F210101010000E01008080810DF
:10366000E0000F18242438504F0008F88888888814
:103670007000203F2000030C3020007088080808EC
:1036800038000038202121221C00180808F80808FA
:1036900018000000203F2000000008F80800000883
:1036A000F808001F202020201F000878880000C88C
:1036B0003808000007380E010000F80800F800087C
:1036C000F800033C0700073C030008186880806886
:1036D000180820302C03032C30200838C800C838C4
:1036E00008000000203F2000000010080808C8382B
:1036F00008002038262120201800000000FE0202C9
:1037000002000000007F40404000000C30C000007C
:103710000000000000010638C00000020202FE00A6
:103720000000004040407F00000000000402020250
:103730000400000000000000000000000000000085
:103740000000808080808080808000020204000071
:103750000000000000000000000000008080808069
:1037600000000019242222223F2008F80080800057
:103770000000003F112020110E000000008080801A
:103780000000000E11202020110000000080808821
:10379000F800000E112020103F2000008080808063
:1037A0000000001F222222221300008080F088885F
:1037B00088180020203F20200000000080808080AA
:1037C0008000006B94949493600008F800808080DF
:1037D0000000203F210000203F200080989800003A
:1037E00000000020203F202000000000008098986A
:1037F000000000C08080807F000008F8000080800A
:103800008000203F24022D302000000808F800002E
:1038100000000020203F20200000808080808080E9
:103820008000203F20003F20003F8080008080807B
:103830000000203F210000203F2000008080808089
:103840000000001F202020201F00808000808000BA
:10385000000080FFA12020110E0000000080808069
:103860008000000E112020A0FF80808080008080DA
:10387000800020203F212000010000008080808007
:1038800080000033242424241900008080E08080FC
:1038900000000000001F2020000080800000008049
:1038A0008000001F202020103F20808080000080AA
:1038B000808000010E3008060100808000800080BA
:1038C00080800F300C030C300F000080800080805F
:1038D00080000020312E0E3120008080800000808A
:1038E000808080818E70180601000080808080803A
:1038F00080000021302C2221300000000000807C5C
:10390000020200000000003F404000000000FF00F5
:10391000000000000000FF0000000002027C8000A8
:1039200000000040403F00000000000601010202CC
:10393000040400000000000000000000000000007F
:103940000000000000000000000000000000000077
:103950000000000000000000000000000000000067
:10396000000000F0F0F00000000000000000000186
:103970007F010000000000000000001C1C1C000073
:10398000000000008060301C8C60301C0C000000C7
:103990000000000000000000000000000000000027
:1039A000000000000000000000E00000000000E057
:1039B00000000086E69F86868686E69F86000001D8
:1039C0001F01010101011F010100000080C06020F2
:1039D000F820E0C00000000003070C18FF70E18130
:1039E00000000000070F10107F100F07000080601C
:1039F000206080000000E02000000F3020309F7029
:103A0000DC371030C0000000100E0300071810183B
:103A100007000000C02020E0C0000000000080E09F
:103A20001F38E88703C43C040000070F1810100B70
:103A3000070D1010080000808C4C380000000000BA
:103A40000000000000000000000000000000000076
:103A50000000000000000000000000000000000066
:103A600080E0300804000000000000FEFF010000BC
:103A70000000000000000000030F182040000004B8
:103A80000830E0800000000000000000000001FF9E
:103A9000FE0000000000004020180F03000000009E
:103AA0000000000000000000C00000000000004214
:103AB00066663C18FF183C66664200000000000085
:103AC0000300000000000000000000008000000073
:103AD0000000001010101010FF1010101010000047
:103AE00000000000030000000000000000000000D3
:103AF00000000000000000000000000000000000C6
:103B0000000000808C4C3800000000000000000025
:103B10000000000000000000000000101010101055
:103B20001010101010000000000000000000000045
:103B30000000000000000000000000000000000085
:103B40000000000000000000000000001C1C1C0021
:103B50000000000000000000000000000000E0384D
:103B60000C000000000080701C03000000000060DA
:103B7000380E0100000000000000000080C060203E
:103B80002060C080000000FEFF010000000001FF77
:103B9000FE000001070E181010180E0701000000AB
:103BA000808080C0E000000000000000000000FFF6
:103BB000FF000000000000001010101F1F10101068
:103BC00000000080402020202060C0800000000312
:103BD0000300804020381F070000001C1A19181825
:103BE0001818181F00000080C020202060C080002E
:103BF0000000000303001010182FE78000000007EA
:103C00000F10101010180F07000000000000000037
:103C1000C0E0F000000000C0B088868180FFFF8017
:103C20008000000000000010101F1F101000000096
:103C3000E060606060606060000000003F100808A5
:103C40000818F0E0000000070B101010101C0F0304
:103C50000000000080C040202020E0C0000000FCE8
:103C6000FF211008080818F0E0000001070C1810E8
:103C70001010080F03000000C0E06060606060E0AA
:103C80006000000003000000E018070000000000D2
:103C90000000001F1F00000000000080C060202006
:103CA000202060C080000087EF2C1818303068CFCB
:103CB000830000070F0810101010180F07000000F5
:103CC000C0C020202020C0800000001F3F60404076
:103CD000402010FFFE0000000C1C101010080F0305
:103CE00000000000000000000000000000000000D4
:103CF0000000000E0E0E0000000000000000001C7E
:103D00001C1C00000000000000000000000000007B
:103D1000000000000000000C0C000000000000008B
:103D20000000005838000000000000000000000003
:103D30000080402010000000102844820100000094
:103D40000000000000000000010204081000000054
:103D500000000000000000000000008484848484CF
:103D600084848484840000000000000000000000BF
:103D70000000000010204080000000000000000053
:103D80000000000001824428100000001008040216
:103D900001000000000000C020201010101030E0D2
:103DA000C0000003030000F010080C07030000002F
:103DB00000001C1C1C0000000000000000C040604F
:103DC00020202040C00000FCFF01F00E03C1FE03D4
:103DD000807F0001070E0811111011090402000074
:103DE000000080E0E000000000000000807C434014
:103DF000477FF880000010181F1000000000131FFC
:103E00001C1020E0E02020202060C080000000FF87
:103E1000FF10101010182FE78000101F1F10101037
:103E20001010180F0700000080C0402020202060E4
:103E3000E00000FCFF0100000000000001000001A4
:103E4000070E181010100804030020E0E0202020C6
:103E50002040C080000000FFFF000000000001FFC4
:103E6000FE00101F1F10101018080E07010020E0A0
:103E7000E020202020202060800000FFFF10101094
:103E8000107C00000000101F1F10101010101018E0
:103E9000060020E0E020202020206060800000FF5D
:103EA000FF101010107C00000100101F1F100000F8
:103EB000000000000000000080C06020202040E0E2
:103EC000000000FCFF0100004040C0C14040000174
:103ED000070E181010100F0F000020E0E020000067
:103EE000000020E0E02000FFFF101010101010FF75
:103EF000FF00101F1F1000000000101F1F10000007
:103F0000202020E0E020202000000000000000FF32
:103F1000FF000000000000001010101F1F10101004
:103F2000000000000000202020E0E0202020000011
:103F30000000000000FFFF0000000060E0808080C3
:103F4000C07F3F00000020E0E020000020A06020B3
:103F5000200000FFFF30187CE3C000000000101FAD
:103F60001F10000001131F1C181020E0E0200000AB
:103F700000000000000000FFFF0000000000000043
:103F80000000101F1F10101010101018060020E065
:103F9000E0E000000000E0E0E02000FF013FFEC0A4
:103FA000E01E01FFFF00101F1000031F0300101F81
:103FB0001F1020E0E0C0000000000020E02000FF13
:103FC0000003071C78E08000FF00101F10000000B5
:103FD0000000030F1F00000080C060202060C08030
:103FE000000000FEFF010000000000FFFE000001D5
:103FF000070E181010180C07010020E0E020202008
:10400000202060C0800000FFFF2020202020301FE3
:104010000F00101F1F100000000000000000000033
:1040200080C060202060C080000000FEFF01000012
:10403000000000FFFE000001070E1111133C7C6719
:10404000210020E0E0202020202060C0800000FF30
:10405000FF101030F0D0080F0700101F1F100000D5
:1040600000030F1C10100080C06020202020404062
:10407000E00000070F0C1818303060E08100001FCE
:104080000C0810101010180F07008060202020E08E
:10409000E020202060800100000000FFFF00000001
:1040A000000100000000101F1F100000000020E0B1
:1040B000E020000000000020E02000FFFF000000E2
:1040C00000000000FF0000070F181010101010086B
:1040D00007002060E0E02000000020E060200000F9
:1040E000077FF88000807C03000000000000071FAD
:1040F0001C070000000020E0E02000E0E02000209D
:10410000E0200007FFF8E01FFFFCE01F00000000B8
:10411000031F0300011F03000000002060E0A00057
:104120000020E0602000000000038F7CF8C6010042
:1041300000000010181E130001171F181000206047
:10414000E0E02000000020E06020000001073EF8D1
:10415000E0180700000000000010101F1F101000E2
:10416000000000806020202020A0E0E0200000006F
:104170000000C0F03E0F0300000000101C1F1710CD
:104180001010101806000000000000FC04040404D5
:1041900004000000000000FF00000000000000001C
:1041A0000000007F404040404000000010E0000060
:1041B00000000000000000000000031C6080000000
:1041C000000000000000000000030C7080000000F0
:1041D0000404040404FC00000000000000000000CF
:1041E00000FF00000000000040404040407F000011
:1041F000000000000010080C040C08100000000073
:1042000000000000000000000000000000000000AE
:10421000000000000000000000000000000000009E
:10422000000000000000000000000000000080808E
:10423000808080808080808080800000000404086E
:104240000800000000000000000000000000000066
:10425000000000000000000000000000000000005E
:1042600000000000000000000000000098D8446436
:104270002424FCF80000000F1F18101010081F1F46
:1042800010180020E0F00000000000000000000016
:10429000FFFF180804040CF8F00000001F0F1810AE
:1042A0001010180F030000000000000000000000C4
:1042B000000000E0F8180404043C3800000000038B
:1042C0000F0C101010100806000000000000000085
:1042D0000020E0F0000000E0F81C04040408FFFFE8
:1042E000000000030F18101010081F0F0800000036
:1042F000000000000000000000000000E0F848445A
:1043000044444C7870000000030F0C181010100883
:1043100004000000000080C0602020E0C000000415
:104320000404FFFF040404040000000010101F1F19
:10433000101010000000000000000000000000004D
:104340000000000070F88C04048CF874040C0070F9
:1043500076CF8D8D8D89C87870000020E0F0000048
:104360000000000000000000FFFF08040404FCF847
:10437000000000101F1F100000101F1F1000000081
:10438000000000606000000000000000040404FC65
:10439000FC000000000000001010101F1F10101083
:1043A000000000000000000000606000000000004D
:1043B0000000040404FCFC0000000000C0C0808079
:1043C000C07F3F0000000020E0F00000000000007F
:1043D00000000000FFFF80C0F41C04040000001077
:1043E0001F1F1100031F1C1010000000202020E0E0
:1043F000F000000000000000000000FFFF000000CF
:10440000000000001010101F1F101010000000000E
:104410000000000000000000000004FCFC0804FC98
:10442000FC0804FCFC00101F1F10001F1F10001FC1
:104430001F10000000000000000000000000000449
:10444000FCFC08080404FCF8000000101F1F10000A
:1044500000101F1F100000000000000000000000FE
:10446000000000E0F0180C04040C18F0E000000359
:104470000F0C101010100C0F0300000000000000C3
:104480000000000000000004FCFC080404040CF818
:10449000F0000080FFFF889010101C0F0300000048
:1044A0000000000000000000000000E0F81C040410
:1044B0000408F8FC000000030F1810109088FFFF9C
:1044C0008000000000000000000000000000040464
:1044D00004FCFC100804040C0C001010101F1F102A
:1044E00010100000000000000000000000000000AC
:1044F000000000003078CCC48484840C1C000000D0
:104500001E1810101011190F06000000000000C046
:1045100000000000000000040404FFFF0404040085
:104520000000000000000F1F1010100C0000000021
:10453000000000000000000000000004FCFE00007D
:104540000004FCFE000000000F1F181010081F0FD1
:10455000080000000000000000000000000000044F
:104560000C3CFCC40000C43C0C0400000000010F23
:104570001E0E01000000000000000000000000000E
:104580000000043CFCC400E47CFC84807C0400004B
:10459000071F070000071F070000000000000000C1
:1045A0000000000000000004041C7CE4C0341C0473
:1045B00004000010101C1601131F1C18100000002E
:1045C0000000000000000000000000040C3CFCC4DF
:1045D00000C43C0404000000C080C1370E0100008C
:1045E00000000000000000000000000000000000CB
:1045F0001C0404C4F47C1C0400000000101C1F17E1
:10460000111010180E0000000000000000F80C044B
:10461000000000000000001028EF00000000000073
:1046200000000000003F60400000000000000000AB
:10463000FF0000000000000000000000FF0000007C
:104640000000000000000000FF000000000000006B
:10465000040CF80000000000000000000000EF283B
:10466000100000000000000040603F00000000005B
:104670000000001806020204081020203008000084
:10468000000000000000000000000000000000002A
:10469000000000000000000000000000000000001A
:1046A000000000000000000000000000000000000A
:1046B00000000000000000000000000000000000FA
:1046C000808080000000000000000000000000006A
:1046D00000000000000000000000000000000000DA
:1046E00000000000000000000000000000000000CA
:1046F00000000000000000000000000000000000BA
:1047000000000000000000000000000000000000A9
:104710000000000000000000000000000000000099
:104720000000000000000000000000000000000089
:104730000000000000000000000000000000000079
:10474000FFFFFF000000000000000000000000006C
:1047500000000000000000003FFFFFF80000000024
:104760000000000000000000000000000000000049
:104770000000000000000000000000000000000039
:104780000000000000000000000000000000000029
:104790000000000000000000000000000000000019
:1047A0000000000000000000000000000000000009
:1047B00000000000007CFCFCFCC0000000000000C9
:1047C000FFFFFF0000000000000080E0F0F0F0F0CC
:1047D000E0E0E0E0E0E0E0E0FFFFFFE7E0E0E0E075
:1047E000E0E0E0E0E08000000000000000000000E9
:1047F00000000000000000000000000000000000B9
:1048000000000000000000000000000000000000A8
:104810000000000000000000000000000000000098
:104820000000000000000000000000000000000088
:10483000000000000000F9FFFF3F0000000000E062
:10484000FFFFFF00000000000000FFFFFFFF03006C
:104850000000000000E0E0FFFFFF03000000000098
:104860000000C3FFFFFF0000000000000000000088
:104870000000000000000000000000000000000038
:104880000000000000000000000000000000000028
:104890000000000000000000000000000000000018
:1048A0000000000000000000000000000000000008
:1048B00000000000000000000000C0F0F0F8FE7FE3
:1048C0003F0F00000000000000001F1F1F1F00001E
:1048D00000000000F8FFFFFF3F01000000000000A3
:1048E0001E1F1F0F07010000000000000000000055
:1048F00000000000000000000000000000000000B8
:1049000000000000000000000000000000000000A7
:104910000000000000000000000000000000000097
:104920000000000000000000000000000000000087
:104930000000000000E0F0F8FC7F3F1F1F070100AF
:104940000000000000000000000000000000000067
:10495000000000FFFFFFFF07000000000000000054
:104960000000000000000000000000000000000047
:104970000000000000000000000000000000000037
:104980000000000000000000000000000000000027
:104990000000000000000000000000000000000017
:1049A0000000000000000000000000000000000007
:1049B00000001E1F1F1F0F07000000000000000066
:1049C00000000000000000000000000000000000E7
:1049D0000000000F0F0F0F0000000000000000009B
:1049E00000000000000000000000000000000000C7
:1049F00000000000000000000000000000000000B7
:104A000000000000000000000000000000000000A6
:104A10000000000000000000000000000000000096
:104A20000000000000000000000000000000000086
:104A30000000000000000000000000000000000076
:104A40000000000000000000000000000000000066
:104A50000000000000000000000000000000000056
:104A60000000000000000000000000000000000046
:104A70000000000000000000000000000000000036
:104A80000000000000000000000000000000000026
:104A900000000000000002030405060708090A0BD5
:104AA0000C0D0E0F10100102020304050607080981
:104AB0000A0B0C0D0E0F101001020000DC4A00085A
:104AC0000000002018000000241D0008F44A00081F
:104AD00018000020E0040000341D00080024F40049
:104AE00000000000000000001000000001000000B5
:044AF00000000000C2
:04000005080000E906
:00000001FF
