:020000040800F2
:10000000F804002001010008DD120008D5120008E4
:10001000D912000899010008B91500080000000075
:100020000000000000000000000000008D13000828
:100030009D01000800000000DF1200088F13000877
:100040001B0100081B0100081B0100081B01000820
:100050001B0100081B0100081B0100081B01000810
:100060001B0100081B0100081B0100081B01000800
:100070001B0100081B0100081B0100081B010008F0
:100080001B0100081B0100081B0100080000000004
:100090000000000000000000000000001B0100083C
:1000A0000000000000000000000000000000000050
:1000B0001B0100081B0100081B0100081B010008B0
:1000C0001B0100081B0100081B0100081B010008A0
:1000D0001B010008291500081B0100081B0100086E
:1000E0001B01000809130008DFF810D000F042F8E7
:1000F000004800479D1A0008AFF30080F804002074
:100100000648804706480047FEE7FEE7FEE7FEE7B1
:10011000FEE7FEE7FEE7FEE7FEE7FEE797130008CF
:10012000E9000008D2B201E000F8012B491EFBD221
:1001300070470022F6E710B513460A4604461946F2
:10014000FFF7F0FF204610BD30B50B4601460020FA
:100150002022012409E021FA02F59D4205D303FA89
:1001600002F5491B04FA02F52844151EA2F101020A
:10017000F1DC30BD064C074D06E0E06840F00103BD
:1001800094E8070098471034AC42F6D3FFF7B0FF6D
:10019000AC1E0008CC1E000800BFFEE77047000040
:1001A0002DE9F8470346002294466EE14FF001081E
:1001B00008FA02F4D1F8008008EA0400A0427DD1D8
:1001C000DFF8DCA2D1F80480A8EB0A09D0453AD0C8
:1001D00014DCB8F1030F50D009DCB8F1000F31D0B6
:1001E000B8F1010F1CD0B8F1020F49D120E0B8F1ED
:1001F000110F18D0B8F1120F42D11EE0B9F5881FC7
:1002000025D006DCB9F5803F20D0B9F5801F37D165
:100210001AE0B9F5001F18D0B9F5041F30D117E066
:10022000D1F80CC02DE0D1F80C8008F1040C28E0C6
:10023000D1F80C8008F1080C23E0D1F80C8008F10B
:100240000C0C1EE000BF00BF00BF00BF00BF00BF1E
:10025000D1F80880B8F1000F02D14FF0040C0BE088
:10026000D1F80880B8F1010F03D14FF0080C1C61E0
:1002700002E04FF0080C5C6103E04FF0000C00E07E
:1002800000BF00BFFF2801D8984601E003F1040831
:100290004646FF2802D84FEA820803E0A2F1080888
:1002A0004FEA88084746D6F800804FF00F0909FA50
:1002B00007F928EA09080CFA07F900E088E048EA9B
:1002C0000908C6F80080D1F8048008F08058B8F119
:1002D000805F7DD100BFDFF8CC81D8F8188048F06E
:1002E0000108DFF8C091C9F81880C846D8F818800E
:1002F00008F00108CDF8008000BF00BF4FEAB93810
:100300004FEA920958F829504FEA82784FEA187953
:100310004FF00F0808FA09F825EA0805DFF8888188
:10032000434502D14FF0000816E0DFF880814345D5
:1003300002D14FF001080FE0DFF87481434502D18C
:100340004FF0020808E0DFF86C81434502D14FF01E
:10035000030801E04FF004084FEA82794FEA197967
:1003600008FA09F848EA0505DFF84C814FEA9209D6
:1003700048F82950D1F8048008F48018B8F5801F97
:100380000AD1DFF83881D8F8008048EA0008DFF8A1
:100390002C91C9F8008009E0DFF82081D8F80080AE
:1003A00028EA0008DFF81491C9F80080D1F8048029
:1003B00008F40018B8F5001F10D1DFF8008108F12B
:1003C0000408D8F8008048EA0008DFF8F09000E060
:1003D0005AE009F10409C9F800800DE0DFF8DC807B
:1003E00008F10408D8F8008028EA0008DFF8CC906B
:1003F00009F10409C9F80080D1F8048008F4003834
:10040000B8F5003F0ED1DFF8B480A8F10408D8F8A1
:10041000008048EA0008DFF8A490A9F10409C9F8AF
:1004200000800DE0DFF89480A8F10408D8F800807F
:1004300028EA0008DFF88490A9F10409C9F80080CF
:10044000D1F8048008F48038B8F5803F0ED1DFF889
:100450006C80A8F10808D8F8008048EA0008DFF8A6
:100460005C90A9F10809C9F800800DE0DFF84C8024
:10047000A8F10808D8F8008028EA0008DFF83C90C6
:10048000A9F10809C9F80080521CD1F8008028FAA7
:1004900002F8B8F1000F7FF489AEBDE8F8870000DC
:1004A000000011100010024000080140000C014043
:1004B0000010014000140140080001400804014000
:1004C0000AB1016101E00B04036170470148006853
:1004D00070470000080000200348006803490978BD
:1004E00008440149086070470800002010000020FF
:1004F00010B50848006840F0100006490860032065
:1005000000F080F80F2000F007F800F02BF8002032
:1005100010BD00000020024070B504460E4800786F
:100520004FF47A71B1FBF0F00C490968B1FBF0F5BA
:10053000284600F0C7FD08B1012070BD102C07D27D
:1005400000222146501E00F01EF80548046001E01C
:100550000120F2E70020F0E710000020000000205A
:100560000C000020704701460846002809DB00F017
:100570001F0301229A4043099B0003F1E023C3F8C3
:10058000002100BF70472DE9F05F80460D461646FA
:10059000002701F023F8074639462A46334601F082
:1005A0000700C0F1070ABAF1040F02D94FF0040A9C
:1005B00001E0C0F1070AD14600F1040ABAF1070FC1
:1005C00002D24FF0000A01E0A0F1030AD4464FF036
:1005D000010A0AFA09FAAAF1010A0AEA020A0AFA5F
:1005E0000CFA4FF0010B0BFA0CFBABF1010B0BEA11
:1005F000030B4AEA0B042146404600F0F7FFBDE832
:10060000F09F000000BF00F00702064B19684FF68C
:10061000FF031940044B0B4343EA0221014B1960CD
:1006200000BF70470CED00E00000FA050120014911
:100630000862704700000E422DE9F04706464FF071
:100640000008002500270024A146012E31D0022EEB
:1006500056D0102E5FD132484468006800F0807098
:1006600008B33048C4F38341475C04F4803078B168
:100670002B484068C0F340402B4911F8008004F437
:10068000803040B12948B0FBF8F000FB07F502E0EC
:10069000274807FB00F52248406800F48000B0F5C9
:1006A000800F01D1A94603E068000321B0FBF1F9F6
:1006B00032E01B48046A04F44070B0F5807F05D135
:1006C00004F0020010B14FF4004918E004F4407047
:1006D000B0F5007F07D11248406A00F0020010B167
:1006E00049F640490BE004F44070B0F5407F06D174
:1006F0000B48006800F4003008B14FF224490BE0C9
:1007000000F08CF906494968C1F38131491C490060
:10071000B0FBF1F900E000BF00BF4846BDE8F0873C
:10072000001002409A1E0008AA1E000800127A005B
:1007300000093D00F8B5044600260025207800F0A9
:10074000010000286BD000274348C06900F08050AA
:1007500070B900BF4048C06940F080503E49C86150
:100760000846C06900F08050009000BF00BF01271C
:100770003A48006800F48070B0B93848006840F426
:10078000807036490860FFF7A1FE064606E0FFF7D5
:100790009DFE801B642801D90320F8BD2F48006806
:1007A00000F480700028F2D02B48006A00F44075F5
:1007B0002DB3A08800F44070A84220D02648006ADB
:1007C00020F4407501202649086000200860224876
:1007D000056205F0010090B1FFF778FE064608E0DB
:1007E000FFF774FE801B41F28831884201D9032053
:1007F000D3E71948006A00F002000028F0D016483C
:10080000006A20F440706168084313490862012FB0
:1008100004D10846C06920F08050C86100BF20782C
:1008200000F00200022807D10B48406820F4404045
:10083000A168084308494860207800F0100010289B
:1008400007D10548406820F48000E1680843024968
:1008500048600020A1E70000001002400070004046
:100860004004424270B504460D460CB9012070BDEB
:100870005A48006800F00700A8420ED257480068A6
:1008800020F007002843554908600846006800F03A
:100890000700A84201D00120E9E7207800F002001B
:1008A00002281DD1207800F00400042805D14C480E
:1008B000406840F4E0604A494860207800F0080051
:1008C000082805D14648406840F4605044494860D3
:1008D0004348406820F0F000A16808434049486060
:1008E000207800F0010078B36068012806D13C4808
:1008F000006800F4003090B90120B8E76068022871
:1009000006D13748006800F0007040B90120AEE71A
:100910003348006800F0020008B90120A7E730481A
:10092000406820F00300616808432D494860FFF7E4
:10093000CDFD064609E0FFF7C9FD801B41F2883175
:10094000884202D9032092E707E02548406800F07A
:100950000C006168B0EB810FEDD12048006800F019
:100960000700A8420ED91D48006820F00700284360
:100970001A4908600846006800F00700A84201D044
:10098000012074E7207800F00400042807D11448FF
:10099000406820F4E060E16808431149486020782D
:1009A00000F00800082808D10D48406820F4605085
:1009B000216940EAC1000A49486000F03FF808494F
:1009C0004968C1F30311074A515CC84006490860F1
:1009D00006480068FFF7A0FD002048E7002002401D
:1009E00000100240701E0008000000200C000020D3
:1009F00001480068704700000000002000B5FFF7C4
:100A0000F7FF04494968C1F30221034A515CC84019
:100A100000BD000000100240801E000800B5FFF776
:100A2000E7FF04494968C1F3C221034A515CC84049
:100A300000BD000000100240801E000870B50021BB
:100A40000022002400230020134D696801F00C05EA
:100A5000F5B1042D02D0082D19D101E00F4819E09D
:100A60000F4DC1F38346AB5D01F4803555B10A4D9E
:100A70006D68C5F340450B4E725D084D5D43B5FB97
:100A8000F2F402E0084D03FB05F4204602E000BF4B
:100A9000024800BF00BF70BD0010024000127A0083
:100AA000881E0008981E000800093D00F8B504469D
:100AB0000CB90120F8BD207800F00100002878D0A2
:100AC000F848406800F00C0004280CD0F548406855
:100AD00000F00C00082811D1F248406800F4803082
:100AE000B0F5803F0AD1EF48006800F400300028DC
:100AF0005FD0606800285CD10120DBE700BF606840
:100B0000B0F5803F06D1E748006840F48030E54901
:100B1000086028E0606858B9E248006820F4803036
:100B2000E04908600846006820F4802008601AE068
:100B30006068B0F5A02F0BD1DA48006840F480203F
:100B4000D84908600846006840F4803008600AE030
:100B5000D448006820F48030D24908600846006814
:100B600020F48020086000BF606888B1FFF7AEFC09
:100B7000054606E0FFF7AAFC401B642801D90320C4
:100B800098E7C848006800F400300028F2D010E070
:100B9000FFF79CFC054606E0FFF798FC401B642825
:100BA00001D9032086E7BF48006800F40030002820
:100BB000F2D1207800F00200022857D1B9484068ED
:100BC00000F00C0050B1B748406800F00C00082855
:100BD00018D1B448406800F4803098B9B148006832
:100BE00000F0020020B12069012801D0012061E756
:100BF000AC48006820F0F800616940EAC100A949EA
:100C0000086033E02069E8B10120A7490860FFF7D8
:100C10005DFC054606E0FFF759FC401B022801D9A0
:100C2000032047E79F48006800F002000028F2D048
:100C30009C48006820F0F800616940EAC1009949C9
:100C4000086013E0002098490860FFF73FFC054664
:100C500006E0FFF73BFC401B022801D9032029E7EF
:100C60009048006800F002000028F2D1207800F0DF
:100C7000080008282DD1A069B8B101208B4908606F
:100C8000FFF724FC054606E0FFF720FC401B022886
:100C900001D903200EE78348406A00F002000028D3
:100CA000F2D0012000F01CFB13E000207F49086017
:100CB000FFF70CFC054606E0FFF708FC401B022886
:100CC00001D90320F6E67748406A00F002000028C8
:100CD000F2D1207800F00400042873D10027714875
:100CE000C06900F0805070B900BF6E48C06940F024
:100CF00080506C49C8610846C06900F0805000907F
:100D000000BF00BF01276A48006800F48070B0B9D6
:100D10006748006840F4807065490860FFF7D6FBBB
:100D2000054606E0FFF7D2FB401B642801D90320EB
:100D3000C0E65F48006800F480700028F2D000BF71
:100D4000E068012806D15748006A40F00100554983
:100D5000086227E0E06858B95248006A20F00100B4
:100D6000504908620846006A20F00400086219E051
:100D7000E06805280BD14B48006A40F0040049495F
:100D800008620846006A40F0010008620AE045482F
:100D9000006A20F00100434908620846006A20F01A
:100DA0000400086200BFE068A0B1FFF78FFB0546B2
:100DB00009E0FFF78BFB401B41F28831884202D9E2
:100DC000032077E622E03748006A00F0020000289E
:100DD000EFD012E0FFF77AFB054608E0FFF776FB5D
:100DE000401B41F28831884201D9032062E62D4838
:100DF000006A00F002000028F0D1012F05D1294837
:100E0000C06920F080502749C86100BFE069C8B3BD
:100E10002448406800F00C00082860D0E0690228EF
:100E200048D1002020490866FFF750FB054606E040
:100E3000FFF74CFB401B022801D903203AE6194872
:100E4000006800F000700028F2D1206AB0F5803F01
:100E500007D11448406820F40030A16808431149C4
:100E60004860D4E9080108430E49496821F4741127
:100E700008430C49486001200B490866FFF726FB30
:100E8000054607E03DE0FFF721FB401B022801D9A2
:100E900003200FE60348006800F000700028F2D03D
:100EA0002FE0000000100240000042428004424255
:100EB00000700040002014490866FFF707FB054654
:100EC00006E0FFF703FB401B022801D90320F1E5F0
:100ED0000E48006800F000700028F2D111E0E069CF
:100EE000012800D1E6E50948466806F48031206A09
:100EF000814204D106F47011606A814201D0012060
:100F0000D8E50020D6E50000000042420010024073
:100F100010B5044601A000F051FB10BD72696E6768
:100F20002072696E672072696E672E2E2E0D0A0080
:100F300010B5044620680068C0F3400068B120681E
:100F40004068C0F3400040B12046FFF7E1FF206851
:100F5000406820F00200216848604FF400300249E8
:100F600008600120607410BD1404014070B504468F
:100F700000250CB9012070BD607C20B900202074D0
:100F8000204600F053F802206074204600F07AF802
:100F900018B1042060740120EDE7204600F0BCF990
:100FA00018B1042060740120E5E72068406820F053
:100FB000070021684860A06828B11B48006820F03D
:100FC0000100194908601848001F006820F460708B
:100FD000A16808431449091F08606068401C08B1F3
:100FE000656809E00120FFF727FB05461DB90420CD
:100FF00060740120BFE76D1EC5F30340216888605F
:10100000A8B22168C860204600F0A3F918B10420F6
:1010100060740120AFE70021E17301216173A173C6
:10102000012060740020A6E7306C004010B58EB03F
:101030000446012012490860282104A8FFF779F826
:101040000020009001900290039004200490012061
:10105000079000200B9004A8FFF728FD01200090C6
:10106000000201906846FFF765FB02221146292025
:10107000FFF789FA2920FFF776FA0EB010BD0000BD
:101080003C04424270B5044600250CB9012070BDF5
:101090002068406820F0080021684860FFF716FAD1
:1010A000054607E0FFF712FA401BB0F57A7F01D939
:1010B0000320ECE72068406800F008000028F1D029
:1010C0000020E4E770B504462546681EB0F1807F35
:1010D00001D301200FE0681E4FF0E02148610F218D
:1010E0004FF0FF3000F082FA00204FF0E0218861DD
:1010F00007200861002070BD10B504460CB901201E
:1011000010BDA06900B100E000BF94F8410028B90B
:10111000002084F84000204600F02AF8242084F8BB
:1011200041002068C06820F400502168C860204653
:1011300000F032F92068006920F4904021680861CD
:101140002068406920F02A00216848612068C06852
:1011500040F400502168C86000206064202084F8BA
:10116000410084F842000020606300BFC8E700002F
:1011700010B586B0044625492068884243D100BF97
:101180002348806940F0040021498861084680694D
:1011900000F00400019000BF00BF00BF0846806956
:1011A00040F4804088610846806900F480400190E6
:1011B00000BF00BF48150290022003900120049058
:1011C0000320059002A91348FEF7EAFF4FF4806060
:1011D00002900020039002A90E48FEF7E1FF2520AF
:1011E000FFF7C1F9032211462520FFF7CCF920684B
:1011F000C06840F020002168C8602068C06840F0E6
:1012000010002168C86006B010BD00000038014021
:1012100000100240000801402DE9F84F04460E4638
:10122000174699464FF0000A94F8420020284FD103
:1012300006B117B90120BDE8F88F002060642220B4
:1012400084F8420000202063FFF740F98246A7851A
:10125000E785A068B0F5805F04D1206910B900254A
:10126000B04602E035464FF0000829E05346002220
:1012700020212046CDF8009000F00CF908B10320A1
:10128000D9E745B920684068C0F30800A8F8000015
:1012900008F1020811E0A068B0F5805F03D0A068F3
:1012A00028B9206918B920684068287004E02068CF
:1012B000406800F07F0028706D1CE08D401EE085C6
:1012C000E08D0028D2D1202084F842000020B2E72F
:1012D0000220B0E700BFFEE700BFFEE7704770479F
:1012E00008B508490968C9084FF47A72B1FBF2F1F0
:1012F0004143009100BF00BF00994A1E009200299F
:10130000F9D108BD0000002010B50248FFF710FE1B
:1013100010BD00001800002070B504460025FFF73E
:10132000D5F8054607E0FFF7D1F8401BB0F57A7F06
:1013300001D9032070BD2068406800F0200000281B
:10134000F1D02068406840F010002168486000201B
:10135000F0E770B5044600252068406820F01000D2
:1013600021684860FFF7B2F8054607E0FFF7AEF8DE
:10137000401BB0F57A7F01D9032070BD206840681A
:1013800000F020000028F1D00020F6E7704710B5EB
:10139000FFF7A2F810BD704770B5044621680969CF
:1013A00021F44051E2681143226811612269A16869
:1013B0001143626941EA02052168C96841F20C6281
:1013C000914329432268D1602168496921F4407121
:1013D000A2691143226851612D4A2168914202D1CC
:1013E000FFF71CFB01E0FFF709FB00EBC00101EB7D
:1013F000001162689200B1FBF2F100EBC00202EB57
:10140000001263689B00B2FBF3F26423B2FBF3F2B9
:1014100002EBC20303EB0212A1EB8201322202EBC8
:1014200001116422B1FBF2F101F0F00100EBC00206
:1014300002EB001263689B00B2FBF3F26423B2FB81
:10144000F3F201EB021200EBC00101EB0011636843
:101450009B00B1FBF3F100EBC00303EB00136668E4
:10146000B600B3FBF6F36426B3FBF6F303EBC30657
:1014700006EB0313A1EB8301322303EB0111642379
:10148000B1FBF3F101F00F0111442268916070BDCE
:10149000003801402DE9F04104460D4617469846B4
:1014A000069E34E0701C88B32EB1FFF70FF8A0EB56
:1014B0000800B0422BD900BF00BF21680C3151E8B1
:1014C000001F21F4D07021680C3141E80002002A8D
:1014D000F3D100BF00BF00BF2168143151E8001FE5
:1014E00021F001002168143141E80002002AF3D103
:1014F00000BF202084F8410084F8420000BF002093
:1015000084F8400000BF0320BDE8F081FFE72068B9
:1015100000682840A84201D1012000E00020B84224
:10152000C0D00020F0E700001CB5002001901C484E
:1015300000680068C0F34010B8B11A4800888028DD
:1015400002D30020174908804FF47A73012201A9C1
:101550001348FFF761FE9DF80410124802880088C6
:10156000401C104B1880104881540D4800680068DA
:10157000C0F3001090B10C490CA000F01FF800F06F
:1015800069FC00BF002000900548006800680090DA
:10159000034800684068009000BF00BF1CBD000009
:1015A0002C00002004000020740000207265637687
:1015B0003A2025730D0A000000BFFEE70FB4054B6B
:1015C00010B503A9044A029800F034F810BC5DF885
:1015D00014FB00003D1A00081400002002480068B7
:1015E000C0F30220704700000CED00E010B50028A9
:1015F00004DB0A07130E054A135406E00A07140E0B
:10160000034A00F00F031B1FD45410BD00E400E098
:1016100018ED00E002E008C8121F08C1002AFAD144
:1016200070477047002001E001C1121F002AFBD162
:10163000704700002DE9FF4F8BB088460546002615
:1016400006E025280BD0DDE90D1290476D1C761CB5
:1016500028780028F5D10FB03046BDE8F08F00247F
:10166000A146A2460122AE4900E0044315F8013F1D
:10167000203B02FA03F00842F7D128782A2810D03C
:101680006FF02F022878A0F13001092915D809EB55
:10169000890102EB410144F0020400EB01096D1CD9
:1016A000F0E758F8041B5FEA010903D544F400543D
:1016B000C9F1000944F002046D1C28782E2817D1C6
:1016C00015F8010F44F004042A280ED06FF02F0201
:1016D0002878A0F1300109290AD80AEB8A0102EB27
:1016E000410100EB010A6D1CF2E758F804AB6D1CD8
:1016F00028786C280FD006DC4C2817D068280DD02D
:101700006A2814D104E0742810D07A280FD10DE093
:1017100044F400140AE044F4801401E044F440145A
:101720006978814202D104F580146D1C6D1C287803
:10173000692865D006DC00288DD0632827D064286E
:1017400006D15DE06E2808D073282AD0752877D09E
:10175000DDE90D129047761CE0E0C4F30250022848
:1017600009D003280DD0D8F8001004280DD00E6041
:1017700008F10408D2E0D8F80010F217C1E90062BD
:10178000F6E7D8F800100E80F2E70E70F0E718F8D0
:10179000041B8DF8001000208DF80100EB4601209D
:1017A00003E058F804BB4FF0FF3061074FF000072B
:1017B00001D40AE07F1C57450DDA8742FADB1BF89B
:1017C00007100029F6D106E07F1C8742FCDB1BF8DE
:1017D00007100029F8D1DDE90D23A9EB07008146A8
:1017E000214600F0B1F83044C61904E0DDE90D12DD
:1017F0001BF8010B90477F1EF8D22146484688E02F
:1018000058F8040BC4F302514FF00A0B032900D11E
:1018100000B2042900D140B2002802DA40422D2152
:1018200002E0210505D52B218DF82410012104E0CB
:1018300006E0E10710D02021F6E708AF089113E099
:1018400058F8040BC4F302514FF00A0B032900D1DE
:1018500080B2042900D1C0B20021EEE75946FEF75C
:1018600073FC303107F8011D0028F7D1ADEB0700FC
:1018700000F1200B600702D524F4803401E04FF022
:10188000010ADA4502DDAAEB0B0000E000208246E7
:1018900000EB0B0108980144A9EB01000A90E0035A
:1018A00006D4DDE90D2321460A9800F04DF80644E0
:1018B0004FF0000908E009A911F80900DDE90D124F
:1018C000904709F10109761C08998945F3DBE0038B
:1018D0000CD5DDE90D2321460A9800F035F80644C1
:1018E00004E0DDE90D1230209047761CBAF10001CA
:1018F000AAF1010AF5DC05E0DDE90D1217F8010B8C
:101900009047761CBBF10001ABF1010BF4DC0A98A7
:101910002146DDE90D2300F005F806446D1C97E62D
:10192000092801002DE9F041044600251E4617460E
:10193000880404D405E039462020B0476D1C641E9D
:10194000F9D52846BDE8F0812DE9F041044600258F
:101950001E469046C80301D5302700E020278804A2
:1019600004D505E041463846B0476D1C641EF9D5E4
:101970002846BDE8F081000000B585B000BF0E48E4
:10198000806940F010000C4988610846806900F0C9
:101990001000009000BF00BF4FF4005001900120E4
:1019A000029003900320049001A90448FEF7F8FB7D
:1019B00000F006F805B000BD001002400010014024
:1019C00010B5012251030248FEF77AFD10BD000058
:1019D0000010014010B5044603E04FF47A7000F0A7
:1019E00005F8201EA4F10104F7D110BD014601EB5A
:1019F000C102D2004FF0E0235A6100229A611A46D8
:101A0000126942F004021A611A46126942F0010298
:101A10001A6100BF4FF0E022106900F001021AB114
:101A200000F48032002AF5D04FF0E022126922F053
:101A300001024FF0E0231A617047000000BF054A21
:101A4000126802F04002002AF9D0C2B2014B1B1DFD
:101A50001A6070470038014000B585B000BF0D48DE
:101A6000806940F004000B4988610846806900F0F5
:101A70000400009000BF00BF0320019000200290EE
:101A8000012003900320049001A90348FEF788FB7E
:101A900005B000BD0010024000080140FEF728FD1F
:101AA0004FF4E01000F08CF94FF4E13000F0BCF995
:101AB000FFF762FFFFF7D0FF00F0C4F800F050F925
:101AC00002A0FFF77BFD00BFFEE7000068656C6CBD
:101AD0006F20776F726C64210D0A000070B50646A6
:101AE00000240EE02146002000F0FBF8002504E071
:101AF000304600F01EF9681CC5B2802DF8DB601C72
:101B0000C4B2082CEEDB70BD00B585B000BF17482D
:101B1000806940F00800154988610846806900F036
:101B20000800009000BF00BF00BF0846806940F079
:101B3000080088610846806900F00800009000BF36
:101B400000BF8815019001200290039003200490AB
:101B500001A90748FEF724FB4FF40070019001A98A
:101B60000348FEF71DFB05B000BD00000010024059
:101B7000000C014010B5012211020548FEF7A0FC3F
:101B800000224FF480710248FEF79AFC10BD00005D
:101B9000000C014010B5012211020A48FEF790FC2A
:101BA000012251020748FEF78BFC00224FF400711E
:101BB0000448FEF785FC00224FF480710148FEF7CF
:101BC0007FFC10BD000C014010B501221102074836
:101BD000FEF776FC00224FF400710448FEF770FC1B
:101BE000012251020148FEF76BFC10BD000C0140C0
:101BF00070B50446254600261EE005F080008028CA
:101C000005D1012281000E48FEF75AFC05E00022B2
:101C10004FF400710A48FEF753FC6806050E0122D6
:101C200011020748FEF74CFC00224FF48071044873
:101C3000FEF746FC701CC6B2082EDEDB70BD00004D
:101C4000000C014010B5FFF75FFF6420FFF7C2FEF4
:101C5000AE2000F058F8D52000F055F8802000F0B4
:101C600052F8A82000F04FF83F2000F04CF8D320A5
:101C700000F049F8002000F046F8402000F043F85A
:101C8000A12000F040F8C82000F03DF8DA2000F074
:101C90003AF8122000F037F8812000F034F8CF2015
:101CA00000F031F8D92000F02EF8F12000F02BF8E8
:101CB000DB2000F028F8302000F025F8A42000F008
:101CC00022F8A62000F01FF88D2000F01CF8142048
:101CD00000F019F8AF2000F016F80020FFF7FEFE24
:101CE00010BD70B504460D4605F1B001C8B200F054
:101CF0000AF804F00F0000F006F8102141EA141071
:101D000000F001F870BD10B50446FFF743FF7820DE
:101D1000FFF76EFFFFF72EFF0020FFF769FFFFF7C9
:101D200029FF2046FFF764FFFFF724FFFFF74CFF72
:101D300010BD10B50446FFF72DFF7820FFF758FFC0
:101D4000FFF718FF4020FFF753FFFFF713FF204670
:101D5000FFF74EFFFFF70EFFFFF736FF10BD000045
:101D600008B500BF1348C06940F080501149C861F0
:101D70000846C06900F08050009000BF00BF00BF5F
:101D80000846C06940F00060C8610846C06900F0BC
:101D90000060009000BF00BFFEF748FC06480749FE
:101DA000086047F6FF704860002104488160FFF733
:101DB000DDF808BD00100240002800401800002097
:101DC00030B58FB005460124282105A8FEF7B1F9EA
:101DD00014216846FEF7ADF9012005900004069035
:101DE0000020079002200C90C1030D910E9505A8CC
:101DF000FEF75CFE04460CB100BFFEE70F2000902A
:101E000002200190002002904FF480600390002097
:101E1000049002216846FEF725FD04460CB100BF80
:101E2000FEE70FB030BD000010B504460748084972
:101E300008600846446000218160C16001618161E1
:101E40000C214161FFF758F910BD00000038014036
:101E50002C00002010B580210348FEF76AF900200D
:101E60000249088010BD000074000020040000201A
:101E7000000000000000000001020304060708093A
:101E8000000000000102030402030405060708091C
:101E90000A0B0C0D0E0F10100102020304050607B9
:101EA00008090A0B0C0D0E0F10100102CC1E0008C1
:101EB000000000201800000014160008E41E0008AE
:101EC00018000020E0040000241600080024F4009C
:101ED00000000000000000001000000001000000F1
:041EE00000000000FE
:04000005080000E906
:00000001FF
