:020000040800F2
:100000000805002001010008F50D0008ED0D0008AD
:10001000F10D000899010008550F000800000000CC
:10002000000000000000000000000000210E000899
:100030009D01000800000000F70D0008230E0008D5
:100040001B0100081B0100081B0100081B01000820
:100050001B0100081B0100081B0100081B01000810
:100060001B0100081B0100089F0100081B0100087C
:100070001B0100081B0100081B0100081B010008F0
:100080001B0100081B0100081B0100080000000004
:100090000000000000000000000000001B0100083C
:1000A0000000000000000000000000000000000050
:1000B0001B0100081B0100081B0100081B010008B0
:1000C0001B0100081B0100081B0100081B010008A0
:1000D0001B010008C50E00081B0100081B010008D9
:1000E0001B0100081B010008DFF810D000F042F8E7
:1000F0000048004795170008AFF30080080500206E
:100100000648804706480047FEE7FEE7FEE7FEE7B1
:10011000FEE7FEE7FEE7FEE7FEE7FEE72F0E00083C
:10012000E9000008D2B201E000F8012B491EFBD221
:1001300070470022F6E710B513460A4604461946F2
:10014000FFF7F0FF204610BD30B50B4601460020FA
:100150002022012409E021FA02F59D4205D303FA89
:1001600002F5491B04FA02F52844151EA2F101020A
:10017000F1DC30BD064C074D06E0E06840F00103BD
:1001800094E8070098471034AC42F6D3FFF7B0FF6D
:10019000C0190008E019000800BFFEE7704710B55D
:1001A000102000F015F810BD10B50446142001F021
:1001B00001F9102C07D11021034800F0A7F910B95C
:1001C00001200249087010BD000C014017000020FA
:1001D00010B5044604480068204020B1024804607D
:1001E0002046FFF7E1FF10BD140401402DE9F84758
:1001F0000346002294466EE14FF0010808FA02F42B
:10020000D1F8008008EA0400A0427DD1DFF8DCA22A
:10021000D1F80480A8EB0A09D0453AD014DCB8F133
:10022000030F50D009DCB8F1000F31D0B8F1010F45
:100230001CD0B8F1020F49D120E0B8F1110F18D04D
:10024000B8F1120F42D11EE0B9F5881F25D006DCA7
:10025000B9F5803F20D0B9F5801F37D11AE0B9F544
:10026000001F18D0B9F5041F30D117E0D1F80CC029
:100270002DE0D1F80C8008F1040C28E0D1F80C80B6
:1002800008F1080C23E0D1F80C8008F10C0C1EE0FA
:1002900000BF00BF00BF00BF00BF00BFD1F8088093
:1002A000B8F1000F02D14FF0040C0BE0D1F8088038
:1002B000B8F1010F03D14FF0080C1C6102E04FF0C0
:1002C000080C5C6103E04FF0000C00E000BF00BFD1
:1002D000FF2801D8984601E003F104084646FF28AC
:1002E00002D84FEA820803E0A2F108084FEA880822
:1002F0004746D6F800804FF00F0909FA07F928EAB7
:1003000009080CFA07F900E088E048EA0908C6F88D
:100310000080D1F8048008F08058B8F1805F7DD16A
:1003200000BFDFF8CC81D8F8188048F00108DFF86A
:10033000C091C9F81880C846D8F8188008F001089C
:10034000CDF8008000BF00BF4FEAB9384FEA9209EC
:1003500058F829504FEA82784FEA18794FF00F0881
:1003600008FA09F825EA0805DFF88881434502D133
:100370004FF0000816E0DFF88081434502D14FF0CE
:1003800001080FE0DFF87481434502D14FF0020805
:1003900008E0DFF86C81434502D14FF0030801E02B
:1003A0004FF004084FEA82794FEA197908FA09F800
:1003B00048EA0505DFF84C814FEA920948F82950D0
:1003C000D1F8048008F48018B8F5801F0AD1DFF84E
:1003D0003881D8F8008048EA0008DFF82C91C9F885
:1003E000008009E0DFF82081D8F8008028EA0008C2
:1003F000DFF81491C9F80080D1F8048008F40018DF
:10040000B8F5001F10D1DFF8008108F10408D8F812
:10041000008048EA0008DFF8F09000E05AE009F1B7
:100420000409C9F800800DE0DFF8DC8008F1040859
:10043000D8F8008028EA0008DFF8CC9009F1040918
:10044000C9F80080D1F8048008F40038B8F5003FFE
:100450000ED1DFF8B480A8F10408D8F8008048EA8B
:100460000008DFF8A490A9F10409C9F800800DE0A4
:10047000DFF89480A8F10408D8F8008028EA000882
:10048000DFF88490A9F10409C9F80080D1F804804C
:1004900008F48038B8F5803F0ED1DFF86C80A8F101
:1004A0000808D8F8008048EA0008DFF85C90A9F155
:1004B0000809C9F800800DE0DFF84C80A8F10808B1
:1004C000D8F8008028EA0008DFF83C90A9F1080974
:1004D000C9F80080521CD1F8008028FA02F8B8F15F
:1004E000000F7FF489AEBDE8F8870000000011100E
:1004F0000010024000080140000C014000100140C3
:1005000000140140080001400804014002469368BD
:100510000B400BB1012000E00020704710B5C2680D
:1005200021EA020302EA010443EA0443036110BD25
:100530000AB1016101E00B040361704701480068E2
:10054000704700001C000020034800680349097838
:1005500008440149086070471C0000202400002066
:1005600010B50848006840F01000064908600320F4
:1005700000F080F80F2000F007F800F02BF80020C2
:1005800010BD00000020024070B504460E480078FF
:100590004FF47A71B1FBF0F00C490968B1FBF0F54A
:1005A000284600F0ABFB08B1012070BD102C07D22B
:1005B00000222146501E00F01EF80548046001E0AC
:1005C0000120F2E70020F0E72400002000000020D6
:1005D00020000020704701460846002809DB00F093
:1005E0001F0301229A4043099B0003F1E023C3F853
:1005F000002100BF70472DE9F05F80460D4616468A
:10060000002700F0CDFC074639462A46334601F064
:100610000700C0F1070ABAF1040F02D94FF0040A2B
:1006200001E0C0F1070AD14600F1040ABAF1070F50
:1006300002D24FF0000A01E0A0F1030AD4464FF0C5
:10064000010A0AFA09FAAAF1010A0AEA020A0AFAEE
:100650000CFA4FF0010B0BFA0CFBABF1010B0BEAA0
:10066000030B4AEA0B042146404600F0A1FCBDE81A
:10067000F09F000000BF00F00702064B19684FF61C
:10068000FF031940044B0B4343EA0221014B19605D
:1006900000BF70470CED00E00000FA0570B504469D
:1006A0000D460CB9012070BD5A48006800F00700E3
:1006B000A8420ED25748006820F007002843554949
:1006C00008600846006800F00700A84201D0012039
:1006D000E9E7207800F0020002281DD1207800F020
:1006E0000400042805D14C48406840F4E0604A49C1
:1006F0004860207800F00800082805D14648406886
:1007000040F46050444948604348406820F0F0009D
:10071000A168084340494860207800F0010078B3A0
:100720006068012806D13C48006800F4003090B9A8
:100730000120B8E76068022806D13748006800F059
:10074000007040B90120AEE73348006800F00200B5
:1007500008B90120A7E73048406820F0030061682D
:1007600008432D494860FFF7E9FE064609E0FFF718
:10077000E5FE801B41F28831884202D9032092E7CE
:1007800007E02548406800F00C006168B0EB810F7D
:10079000EDD12048006800F00700A8420ED91D489E
:1007A000006820F0070028431A49086008460068DE
:1007B00000F00700A84201D0012074E7207800F083
:1007C0000400042807D11448406820F4E060E16880
:1007D000084311494860207800F00800082808D133
:1007E0000D48406820F46050216940EAC1000A4980
:1007F000486000F019F808494968C1F30311074A35
:10080000515CC8400649086006480068FFF7BCFE16
:10081000002048E700200240001002409419000820
:10082000000000202000002070B5002100220024DC
:1008300000230020134D696801F00C05F5B1042D6B
:1008400002D0082D19D101E00F4819E00F4DC1F376
:100850008346AB5D01F4803555B10A4D6D68C5F333
:1008600040450B4E725D084D5D43B5FBF2F402E06E
:10087000084D03FB05F4204602E000BF024800BF1C
:1008800000BF70BD0010024000127A00AC190008D1
:10089000BC19000800093D00F8B504460CB9012058
:1008A000F8BD207800F00100002878D0F8484068B2
:1008B00000F00C0004280CD0F548406800F00C0053
:1008C000082811D1F248406800F48030B0F5803F2C
:1008D0000AD1EF48006800F4003000285FD060685B
:1008E00000285CD10120DBE700BF6068B0F5803FE5
:1008F00006D1E748006840F48030E549086028E008
:10090000606858B9E248006820F48030E049086027
:100910000846006820F4802008601AE06068B0F59E
:10092000A02F0BD1DA48006840F48020D849086035
:100930000846006840F4803008600AE0D448006847
:1009400020F48030D24908600846006820F48020F6
:10095000086000BF606888B1FFF7F0FD054606E05B
:10096000FFF7ECFD401B642801D9032098E7C84835
:10097000006800F400300028F2D010E0FFF7DEFD40
:10098000054606E0FFF7DAFD401B642801D9032085
:1009900086E7BF48006800F400300028F2D12078D4
:1009A00000F00200022857D1B948406800F00C005E
:1009B00050B1B748406800F00C00082818D1B4487E
:1009C000406800F4803098B9B148006800F0020037
:1009D00020B12069012801D0012061E7AC480068FE
:1009E00020F0F800616940EAC100A949086033E0DD
:1009F0002069E8B10120A7490860FFF79FFD05467F
:100A000006E0FFF79BFD401B022801D9032047E7C2
:100A10009F48006800F002000028F2D09C4800685F
:100A200020F0F800616940EAC1009949086013E0CC
:100A3000002098490860FFF781FD054606E0FFF7B2
:100A40007DFD401B022801D9032029E7904800685A
:100A500000F002000028F2D1207800F008000828F9
:100A60002DD1A069B8B101208B490860FFF766FD60
:100A7000054606E0FFF762FD401B022801D903206E
:100A80000EE78348406A00F002000028F2D00120FF
:100A900000F0B2F913E000207F490860FFF74EFD37
:100AA000054606E0FFF74AFD401B022801D9032056
:100AB000F6E67748406A00F002000028F2D120787C
:100AC00000F00400042873D100277148C06900F0C9
:100AD000805070B900BF6E48C06940F080506C49CA
:100AE000C8610846C06900F08050009000BF00BF98
:100AF00001276A48006800F48070B0B96748006850
:100B000040F4807065490860FFF718FD054606E06F
:100B1000FFF714FD401B642801D90320C0E65F489D
:100B2000006800F480700028F2D000BFE06801285F
:100B300006D15748006A40F001005549086227E095
:100B4000E06858B95248006A20F001005049086234
:100B50000846006A20F00400086219E0E0680528F1
:100B60000BD14B48006A40F004004949086208462E
:100B7000006A40F0010008620AE04548006A20F07F
:100B80000100434908620846006A20F00400086238
:100B900000BFE068A0B1FFF7D1FC054609E0FFF710
:100BA000CDFC401B41F28831884202D9032077E610
:100BB00022E03748006A00F002000028EFD012E07F
:100BC000FFF7BCFC054608E0FFF7B8FC401B41F20C
:100BD0008831884201D9032062E62D48006A00F07E
:100BE00002000028F0D1012F05D12948C06920F06A
:100BF00080502749C86100BFE069C8B324484068F5
:100C000000F00C00082860D0E069022848D10020DC
:100C100020490866FFF792FC054606E0FFF78EFCC8
:100C2000401B022801D903203AE61948006800F069
:100C300000700028F2D1206AB0F5803F07D1144837
:100C4000406820F40030A168084311494860D4E9A5
:100C5000080108430E49496821F4741108430C49FE
:100C6000486001200B490866FFF768FC054607E06D
:100C70003DE0FFF763FC401B022801D903200FE68B
:100C80000348006800F000700028F2D02FE0000058
:100C900000100240000042428004424200700040C6
:100CA000002014490866FFF749FC054606E0FFF7F7
:100CB00045FC401B022801D90320F1E50E480068DD
:100CC00000F000700028F2D111E0E069012800D1A5
:100CD000E6E50948466806F48031206A814204D17D
:100CE00006F47011606A814201D00120D8E500202D
:100CF000D6E50000000042420010024070B50446F4
:100D00002546681EB0F1807F01D301200FE0681EE8
:100D10004FF0E02148610F214FF0FF3000F048F91B
:100D200000204FF0E021886107200861002070BD9D
:100D30002DE9F84F04460E46174699464FF0000A33
:100D400094F8420020284FD106B117B90120BDE820
:100D5000F88F00206064222084F842000020206385
:100D6000FFF7ECFB8246A785E785A068B0F5805FBA
:100D700004D1206910B90025B04602E035464FF095
:100D8000000829E05346002220212046CDF800909B
:100D900000F04EF808B10320D9E745B92068406853
:100DA000C0F30800A8F8000008F1020811E0A068EC
:100DB000B0F5805F03D0A06828B9206918B9206811
:100DC0004068287004E02068406800F07F002870C8
:100DD0006D1CE08D401EE085E08D0028D2D12020E2
:100DE00084F842000020B2E70220B0E700BFFEE72F
:100DF00000BFFEE77047704708B508490968C90891
:100E00004FF47A72B1FBF2F14143009100BF00BF91
:100E100000994A1E00920029F9D108BD0000002067
:100E2000704710B5FFF790FB00F048FD10BD70470C
:100E30002DE9F04104460D4617469846069E34E0DB
:100E4000701C88B32EB1FFF779FBA0EB0800B0420D
:100E50002BD900BF00BF21680C3151E8001F21F4DD
:100E6000D07021680C3141E80002002AF3D100BFA4
:100E700000BF00BF2168143151E8001F21F00100BC
:100E80002168143141E80002002AF3D100BF20207C
:100E900084F8410084F8420000BF002084F840003C
:100EA00000BF0320BDE8F081FFE72068006828400C
:100EB000A84201D1012000E00020B842C0D00020AB
:100EC000F0E700001CB5002001901C480068006895
:100ED000C0F34010B8B11A480088802802D300201F
:100EE000174908804FF47A73012201A91348FFF7CC
:100EF0001FFF9DF80410124802880088401C104B08
:100F00001880104881540D4800680068C0F3001034
:100F100090B10C490CA000F01FF800F02DFD00BFAF
:100F200000200090054800680068009003480068B1
:100F30004068009000BF00BF1CBD00003C000020C6
:100F40001800002084000020726563763A20257323
:100F50000D0A000000BFFEE70FB4054B10B503A952
:100F6000044A029800F048F810BC5DF814FB000039
:100F700065140008280000200FB4084B10B504A920
:100F800002AA039800F038F8044602A9002000F0F5
:100F9000D4F9204610BC5DF814FB00003B13000898
:100FA00002480068C0F30220704700000CED00E02A
:100FB00010B5002804DB0A07130E054A135406E097
:100FC0000A07140E034A00F00F031B1FD45410BD70
:100FD00000E400E018ED00E002E008C8121F08C1BC
:100FE000002AFAD170477047002001E001C1121FAA
:100FF000002AFBD1704700002DE9FF4F8BB08846D7
:101000000546002606E025280BD0DDE90D129047A5
:101010006D1C761C28780028F5D10FB03046BDE84D
:10102000F08F0024A146A2460122AE4900E004430D
:1010300015F8013F203B02FA03F00842F7D1287867
:101040002A2810D06FF02F022878A0F1300109294A
:1010500015D809EB890102EB410144F0020400EBD1
:1010600001096D1CF0E758F8041B5FEA010903D57C
:1010700044F40054C9F1000944F002046D1C2878BE
:101080002E2817D115F8010F44F004042A280ED099
:101090006FF02F022878A0F1300109290AD80AEB55
:1010A0008A0102EB410100EB010A6D1CF2E758F8DE
:1010B00004AB6D1C28786C280FD006DC4C2817D0A8
:1010C00068280DD06A2814D104E0742810D07A283A
:1010D0000FD10DE044F400140AE044F4801401E060
:1010E00044F440146978814202D104F580146D1CE7
:1010F0006D1C2878692865D006DC00288DD063280F
:1011000027D0642806D15DE06E2808D073282AD045
:10111000752877D0DDE90D129047761CE0E0C4F326
:101120000250022809D003280DD0D8F80010042856
:101130000DD00E6008F10408D2E0D8F80010F217C4
:10114000C1E90062F6E7D8F800100E80F2E70E70F1
:10115000F0E718F8041B8DF8001000208DF801004E
:10116000EB46012003E058F804BB4FF0FF30610765
:101170004FF0000701D40AE07F1C57450DDA874283
:10118000FADB1BF807100029F6D106E07F1C874226
:10119000FCDB1BF807100029F8D1DDE90D23A9EBD2
:1011A00007008146214600F0B1F83044C61904E03A
:1011B000DDE90D121BF8010B90477F1EF8D2214686
:1011C000484688E058F8040BC4F302514FF00A0B6C
:1011D000032900D100B2042900D140B2002802DA6C
:1011E00040422D2102E0210505D52B218DF8241048
:1011F000012104E006E0E10710D02021F6E708AF66
:10120000089113E058F8040BC4F302514FF00A0B95
:10121000032900D180B2042900D1C0B20021EEE739
:101220005946FEF791FF303107F8011D0028F7D12C
:10123000ADEB070000F1200B600702D524F48034E9
:1012400001E04FF0010ADA4502DDAAEB0B0000E0F5
:101250000020824600EB0B0108980144A9EB010035
:101260000A90E00306D4DDE90D2321460A9800F038
:101270004DF806444FF0000908E009A911F80900EB
:10128000DDE90D12904709F10109761C089989459D
:10129000F3DBE0030CD5DDE90D2321460A9800F0CD
:1012A00035F8064404E0DDE90D1230209047761C45
:1012B000BAF10001AAF1010AF5DC05E0DDE90D1241
:1012C00017F8010B9047761CBBF10001ABF1010B45
:1012D000F4DC0A982146DDE90D2300F005F8064408
:1012E0006D1C97E6092801002DE9F0410446002510
:1012F0001E461746880404D405E039462020B0472E
:101300006D1C641EF9D52846BDE8F0812DE9F04139
:10131000044600251E469046C80301D5302700E04C
:101320002027880404D505E041463846B0476D1CA7
:10133000641EF9D52846BDE8F0810A68531C0B608D
:101340001070704700B585B000BF0E48806940F04E
:1013500008000C4988610846806900F00800009088
:1013600000BF00BF202001900120029003900320C5
:10137000049001A90448FEF739FF00F007F805B012
:1013800000BD000000100240000C014010B5012219
:1013900020210248FFF7CCF810BD0000000C0140EE
:1013A00010B5002220210248FFF7C2F810BD00004E
:1013B000000C014010B5044603E04FF47A7000F0D1
:1013C00005F8201EA4F10104F7D110BD70B5034645
:1013D00000224FF0E026756903EBC306F4004FF0DE
:1013E000E026B16910E04FF0E026B06988420BD0EA
:1013F000884202D20E1A324402E0461AAE1B324430
:101400000146A24200D300E0EDE700BF70BD00003E
:1014100000B585B000BF1048806940F008000E4953
:1014200088610846806900F00800009000BF00BF96
:1014300010200190094802900120039001A908485A
:10144000FEF7D4FE002202210A20FFF7D4F80A207A
:10145000FFF7C1F805B000BD0010024000002110E8
:10146000000C014000BF054A126802F04002002A49
:10147000F9D0C2B2014B1B1D1A6070470038014001
:1014800000B585B000BF0E48806940F008000C49E7
:1014900088610846806900F00800009000BF00BF26
:1014A000402001900120029003900320049001A9A4
:1014B0000448FEF79BFE00F007F805B000BD0000F1
:1014C00000100240000C014010B5012240210248EA
:1014D000FFF72EF810BD0000000C014010B50022EF
:1014E00040210248FFF724F810BD0000000C014025
:1014F000024908780021014A117070471700002046
:1015000000B585B00020019002900390049000BFC8
:101510001A48806940F004001849886108468069CB
:1015200000F00400009000BF00BF00BF08468069C3
:1015300040F0080088610846806900F008000090CB
:1015400000BF00BFFF200190012002900020039007
:101550000220049001A90A48FEF748FE40F2064026
:10156000019001200290002003900220049001A924
:101570000448FEF73BFE05B000BD0000001002402D
:1015800000080140000C014010B5FFF7B9FF00F062
:1015900028F810BD70B506460D461446012E02D03F
:1015A000022E1CD10DE005F18001C8B200F034F824
:1015B00003E0207800F05AF8641C20780028F8D165
:1015C0000DE005F1C001C8B200F026F803E0207874
:1015D00000F04CF8641C20780028F8D100BF00BF50
:1015E00070BD10B50F20FFF7E5FE382000F014F8AD
:1015F0000520FFF7DFFE382000F00EF8082000F08D
:101600000BF8012000F008F8062000F005F80C2087
:1016100000F002F810BD000010B5044600220221BF
:101620001048FEF785FF002204210E48FEF780FFD8
:1016300000224FF480610B48FEF77AFF0A480460ED
:101640000520FFF7B7FE012291020648FEF770FF62
:101650000520FFF7AFFE00224FF480610148FEF73E
:1016600067FF10BD000C01400C08014010B5044696
:10167000012202211048FEF75BFF002204210E48E0
:10168000FEF756FF00224FF480610B48FEF750FF33
:101690000A4804600520FFF78DFE012291020648EA
:1016A000FEF746FF0520FFF785FE00224FF480611C
:1016B0000148FEF73DFF10BD000C01400C08014041
:1016C00010B5012211020248FEF732FF10BD0000E2
:1016D000000C014010B50548007800B910BD00208D
:1016E0000249087000F004F800BFF7E7140000207A
:1016F00010B54FF480710248FEF710FF10BD0000D6
:10170000000C014010B5012251020248FEF710FF03
:1017100010BD0000000C014010B50548007800B96C
:1017200010BD00200249087000F004F800BFF7E780
:101730001500002010B54FF400710248FEF7EEFED0
:1017400010BD0000000C014000B585B000BF0F487F
:10175000806940F008000D4988610846806900F002
:101760000800009000BF00BF4FF4407001900120BE
:10177000029003900320049001A90548FEF736FD6E
:10178000FFF79EFFFFF7BEFF05B000BD001002404F
:10179000000C0140FEF7E4FE4FF4E01000F05AF8B0
:1017A000FFF7D2FFFFF76CFEFFF7CCFDFFF730FE2F
:1017B000FFF7EAFE06A201210846FFF7EBFE05E06F
:1017C000FFF788FFFFF7A8FF00F006F8F8E7000032
:1017D000504153532E2E2E0010B5FFF789FE0128DD
:1017E00012D11148007878B910480068401C0F49A0
:1017F000086008460EA102681148FFF7BDFB104AB9
:1018000001210846FFF7C6FE0848006805280AD3EC
:1018100000200649086001200349087009A201213F
:101820000846FFF7B7FE10BD16000020100000208C
:10183000504153532E2E2E253032642F3035000068
:101840002C000020574149542E2E2E30302F303599
:101850000000000030B58FB005460124282105A8FE
:10186000FEF767FC14216846FEF763FC0120059033
:10187000000406900020079002200C90C1030D91F7
:101880000E9505A8FFF708F804460CB100BFFEE767
:101890000F20009002200190002002904FF4806001
:1018A00003900020049002216846FEF7F7FE0446EC
:1018B0000CB100BFFEE70FB030BD000010B52648E8
:1018C0000078B8B925480068B0F57A7F05D223487A
:1018D0000068401C2149086005E00120204908708B
:1018E00000201E490860FFF70DFFFFF74FFDFFF7CF
:1018F000EBFD2FE01848007801282BD1194800682B
:10190000C82805D217480068401C1649086005E041
:10191000012015490870002012490860FFF7D0FE29
:10192000FFF73EFDFFF7DAFD1048006840F6B831DA
:10193000884205D20D480068401C0C49086009E047
:1019400000200A4908600449087009A201210846DC
:10195000FFF720FE10BD000016000020040000204C
:101960001400002008000020150000200C000020BA
:10197000504153532E2E2E0010B580210348FEF700
:10198000D8FB00200249088010BD00008400002020
:101990001800002000000000000000000102030405
:1019A0000607080900000000010203040203040501
:1019B000060708090A0B0C0D0E0F1010010200009B
:1019C000E0190008000000202C000000D80F0008DB
:1019D0000C1A00082C000020DC040000E80F0008AE
:1019E0000024F400000000000000000000000000DF
:1019F00000000000000000000000000000000000E7
:0C1A0000100000000100000000000000C9
:04000005080000E906
:00000001FF
