:020000040800F2
:100000004005002001010008D1130008C9130008B1
:10001000CD1300080F02000831170008000000008F
:1000200000000000000000000000000005150008AE
:100030001302000800000000D31300080715000891
:100040001B0100081B0100081B0100081B01000820
:100050001B0100081B0100081B0100081B01000810
:100060001B0100081B0100081B0100081B01000800
:100070001B0100081B0100081B0100081B010008F0
:100080001B0100081B0100081B0100080000000004
:100090000000000000000000000000001B0100083C
:1000A0000000000000000000000000000000000050
:1000B0001B0100081B0100081B0100081B010008B0
:1000C0001B0100081B0100081B0100081B010008A0
:1000D0001B010008A11600081B0100081B010008F5
:1000E0001B0100081B010008DFF810D000F05EF8CB
:1000F00000480047FD1A0008AFF3008040050020CB
:100100000648804706480047FEE7FEE7FEE7FEE7B1
:10011000FEE7FEE7FEE7FEE7FEE7FEE70F15000855
:10012000E9000008D2B201E000F8012B491EFBD221
:1001300070470022F6E710B513460A4604461946F2
:10014000FFF7F0FF204610BD2DE9F05F05460020C7
:1001500092469B4688460646814640241BE0284638
:1001600041464746224600F042F853465A46C01AD6
:10017000914110D311461846224600F029F82D1A55
:1001800067EB01084F4622460120002100F020F8CD
:1001900017EB00094E41201EA4F10104DFDC4846A4
:1001A00031462A464346BDE8F09F0000064C074D05
:1001B00006E0E06840F0010394E807009847103437
:1001C000AC42F6D3FFF794FF941D0008B41D00085D
:1001D000202A04DB203A00FA02F100207047914007
:1001E000C2F1200320FA03F3194390407047202AFC
:1001F00004DB203A21FA02F00021704721FA02F3D1
:10020000D040C2F12002914008431946704700BF18
:10021000FEE770472DE9F8470346002294466EE159
:100220004FF0010808FA02F4D1F8008008EA04004F
:10023000A0427DD1DFF8DCA2D1F80480A8EB0A0946
:10024000D0453AD014DCB8F1030F50D009DCB8F136
:10025000000F31D0B8F1010F1CD0B8F1020F49D115
:1002600020E0B8F1110F18D0B8F1120F42D11EE002
:10027000B9F5881F25D006DCB9F5803F20D0B9F547
:10028000801F37D11AE0B9F5001F18D0B9F5041F47
:1002900030D117E0D1F80CC02DE0D1F80C8008F176
:1002A000040C28E0D1F80C8008F1080C23E0D1F808
:1002B0000C8008F10C0C1EE000BF00BF00BF00BFA7
:1002C00000BF00BFD1F80880B8F1000F02D14FF095
:1002D000040C0BE0D1F80880B8F1010F03D14FF006
:1002E000080C1C6102E04FF0080C5C6103E04FF069
:1002F000000C00E000BF00BFFF2801D8984601E0D5
:1003000003F104084646FF2802D84FEA820803E0BA
:10031000A2F108084FEA88084746D6F800804FF057
:100320000F0909FA07F928EA09080CFA07F900E0A9
:1003300088E048EA0908C6F80080D1F8048008F08F
:100340008058B8F1805F7DD100BFDFF8CC81D8F84C
:10035000188048F00108DFF8C091C9F81880C84635
:10036000D8F8188008F00108CDF8008000BF00BF61
:100370004FEAB9384FEA920958F829504FEA827883
:100380004FEA18794FF00F0808FA09F825EA08052E
:10039000DFF88881434502D14FF0000816E0DFF80E
:1003A0008081434502D14FF001080FE0DFF87481EE
:1003B000434502D14FF0020808E0DFF86C81434565
:1003C00002D14FF0030801E04FF004084FEA8279B0
:1003D0004FEA197908FA09F848EA0505DFF84C816F
:1003E0004FEA920948F82950D1F8048008F480189F
:1003F000B8F5801F0AD1DFF83881D8F8008048EAC4
:100400000008DFF82C91C9F8008009E0DFF82081AE
:10041000D8F8008028EA0008DFF81491C9F80080B5
:10042000D1F8048008F40018B8F5001F10D1DFF8E7
:10043000008108F10408D8F8008048EA0008DFF8D5
:10044000F09000E05AE009F10409C9F800800DE0DD
:10045000DFF8DC8008F10408D8F8008028EA0008FA
:10046000DFF8CC9009F10409C9F80080D1F80480C4
:1004700008F40038B8F5003F0ED1DFF8B480A8F1D9
:100480000408D8F8008048EA0008DFF8A490A9F131
:100490000409C9F800800DE0DFF89480A8F1040891
:1004A000D8F8008028EA0008DFF88490A9F1040950
:1004B000C9F80080D1F8048008F48038B8F5803F8E
:1004C0000ED1DFF86C80A8F10808D8F8008048EA5F
:1004D0000008DFF85C90A9F10809C9F800800DE078
:1004E000DFF84C80A8F10808D8F8008028EA000856
:1004F000DFF83C90A9F10809C9F80080521CD1F836
:10050000008028FA02F8B8F1000F7FF489AEBDE848
:10051000F8870000000011100010024000080140A0
:10052000000C01400010014000140140080001408F
:10053000080401400AB1016101E00B040361704746
:100540000148006870470000100000200348006860
:1005500003490978084401490860704710000020E9
:100560001800002010B50848006840F01000064947
:100570000860032000F080F80F2000F007F800F07A
:100580002BF8002010BD00000020024070B504468A
:100590000E4800784FF47A71B1FBF0F00C4909680D
:1005A000B1FBF0F5284600F008FE08B1012070BD4F
:1005B000102C07D200222146501E00F01EF80548DC
:1005C000046001E00120F2E70020F0E718000020BD
:1005D000080000201400002070470146084600284B
:1005E00009DB00F01F0301229A4043099B0003F13D
:1005F000E023C3F8002100BF70472DE9F05F80467B
:100600000D461646002701F0A5F8074639462A464A
:10061000334601F00700C0F1070ABAF1040F02D90E
:100620004FF0040A01E0C0F1070AD14600F1040AC4
:10063000BAF1070F02D24FF0000A01E0A0F1030A5D
:10064000D4464FF0010A0AFA09FAAAF1010A0AEAA5
:10065000020A0AFA0CFA4FF0010B0BFA0CFBABF191
:10066000010B0BEA030B4AEA0B042146404601F05A
:1006700079F8BDE8F09F000000BF00F00702064BCC
:1006800019684FF6FF031940044B0B4343EA02215C
:10069000014B196000BF70470CED00E00000FA0547
:1006A00070B504460D460CB9012070BD5A4800686B
:1006B00000F00700A8420ED25748006820F007005B
:1006C0002843554908600846006800F00700A84222
:1006D00001D00120E9E7207800F0020002281DD1B6
:1006E000207800F00400042805D14C48406840F40C
:1006F000E0604A494860207800F00800082805D1E9
:100700004648406840F46050444948604348406867
:1007100020F0F000A168084340494860207800F0CC
:10072000010078B36068012806D13C48006800F4F5
:10073000003090B90120B8E76068022806D1374838
:10074000006800F0007040B90120AEE7334800684F
:1007500000F0020008B90120A7E73048406820F007
:100760000300616808432D494860FFF7E9FE06462B
:1007700009E0FFF7E5FE801B41F28831884202D98B
:10078000032092E707E02548406800F00C0061680C
:10079000B0EB810FEDD12048006800F00700A842BF
:1007A0000ED91D48006820F0070028431A49086048
:1007B0000846006800F00700A84201D0012074E755
:1007C000207800F00400042807D11448406820F481
:1007D000E060E168084311494860207800F00800B3
:1007E000082808D10D48406820F46050216940EA8B
:1007F000C1000A49486000F03FF808494968C1F360
:100800000311074A515CC840064908600648006861
:10081000FFF7BCFE002048E7002002400010024025
:10082000681D00080800002014000020014800682E
:10083000704700000800002000B5FFF7F7FF0449EB
:100840004968C1F30221034A515CC84000BD000061
:1008500000100240781D000800B5FFF7E7FF0449CB
:100860004968C1F3C221034A515CC84000BD000081
:1008700000100240781D000870B5002100220024FD
:1008800000230020134D696801F00C05F5B1042D1B
:1008900002D0082D19D101E00F4819E00F4DC1F326
:1008A0008346AB5D01F4803555B10A4D6D68C5F3E3
:1008B00040450B4E725D084D5D43B5FBF2F402E01E
:1008C000084D03FB05F4204602E000BF024800BFCC
:1008D00000BF70BD0010024000127A00801D0008A9
:1008E000901D000800093D00F8B504460CB9012030
:1008F000F8BD207800F00100002878D0F848406862
:1009000000F00C0004280CD0F548406800F00C0002
:10091000082811D1F248406800F48030B0F5803FDB
:100920000AD1EF48006800F4003000285FD060680A
:1009300000285CD10120DBE700BF6068B0F5803F94
:1009400006D1E748006840F48030E549086028E0B7
:10095000606858B9E248006820F48030E0490860D7
:100960000846006820F4802008601AE06068B0F54E
:10097000A02F0BD1DA48006840F48020D8490860E5
:100980000846006840F4803008600AE0D4480068F7
:1009900020F48030D24908600846006820F48020A6
:1009A000086000BF606888B1FFF7CAFD054606E031
:1009B000FFF7C6FD401B642801D9032098E7C8480B
:1009C000006800F400300028F2D010E0FFF7B8FD16
:1009D000054606E0FFF7B4FD401B642801D903205B
:1009E00086E7BF48006800F400300028F2D1207884
:1009F00000F00200022857D1B948406800F00C000E
:100A000050B1B748406800F00C00082818D1B4482D
:100A1000406800F4803098B9B148006800F00200E6
:100A200020B12069012801D0012061E7AC480068AD
:100A300020F0F800616940EAC100A949086033E08C
:100A40002069E8B10120A7490860FFF779FD054654
:100A500006E0FFF775FD401B022801D9032047E798
:100A60009F48006800F002000028F2D09C4800680F
:100A700020F0F800616940EAC1009949086013E07C
:100A8000002098490860FFF75BFD054606E0FFF788
:100A900057FD401B022801D9032029E79048006830
:100AA00000F002000028F2D1207800F008000828A9
:100AB0002DD1A069B8B101208B490860FFF740FD36
:100AC000054606E0FFF73CFD401B022801D9032044
:100AD0000EE78348406A00F002000028F2D00120AF
:100AE00000F078FC13E000207F490860FFF728FD44
:100AF000054606E0FFF724FD401B022801D903202C
:100B0000F6E67748406A00F002000028F2D120782B
:100B100000F00400042873D100277148C06900F078
:100B2000805070B900BF6E48C06940F080506C4979
:100B3000C8610846C06900F08050009000BF00BF47
:100B400001276A48006800F48070B0B967480068FF
:100B500040F4807065490860FFF7F2FC054606E046
:100B6000FFF7EEFC401B642801D90320C0E65F4874
:100B7000006800F480700028F2D000BFE06801280F
:100B800006D15748006A40F001005549086227E045
:100B9000E06858B95248006A20F0010050490862E4
:100BA0000846006A20F00400086219E0E0680528A1
:100BB0000BD14B48006A40F00400494908620846DE
:100BC000006A40F0010008620AE04548006A20F02F
:100BD0000100434908620846006A20F004000862E8
:100BE00000BFE068A0B1FFF7ABFC054609E0FFF7E6
:100BF000A7FC401B41F28831884202D9032077E6E6
:100C000022E03748006A00F002000028EFD012E02E
:100C1000FFF796FC054608E0FFF792FC401B41F207
:100C20008831884201D9032062E62D48006A00F02D
:100C300002000028F0D1012F05D12948C06920F019
:100C400080502749C86100BFE069C8B324484068A4
:100C500000F00C00082860D0E069022848D100208C
:100C600020490866FFF76CFC054606E0FFF768FCC4
:100C7000401B022801D903203AE61948006800F019
:100C800000700028F2D1206AB0F5803F07D11448E7
:100C9000406820F40030A168084311494860D4E955
:100CA000080108430E49496821F4741108430C49AE
:100CB000486001200B490866FFF742FC054607E043
:100CC0003DE0FFF73DFC401B022801D903200FE661
:100CD0000348006800F000700028F2D02FE0000008
:100CE0000010024000004242800442420070004076
:100CF000002014490866FFF723FC054606E0FFF7CD
:100D00001FFC401B022801D90320F1E50E480068B2
:100D100000F000700028F2D111E0E069012800D154
:100D2000E6E50948466806F48031206A814204D12C
:100D300006F47011606A814201D00120D8E50020DC
:100D4000D6E50000000042420010024010B5044603
:100D50000CB9012010BD606A38B96068B0F5827FB7
:100D600000D105E00021E16102E000212161616123
:100D7000A06AB0F5005F00D100BF94F8510028B917
:100D8000002084F85000204600F04AF8022084F841
:100D900051002068006820F0400021680860A088A9
:100DA00000F48270218901F404410843A18901F40F
:100DB00000610843217C01F002010843217D01F01C
:100DC00001010843218B01F400710843217F01F0E8
:100DD000380108432021095D01F080010843218D7D
:100DE00001F400510843216808600421A06901EA68
:100DF000104021684860A06AB0F5005F03D1A08D63
:100E000080B2216808612068C06920F40060216810
:100E1000C86100206065012084F85100002099E736
:100E200010B586B004461E492068884236D100BFFE
:100E30001C48806940F004001A49886108468069AE
:100E400000F00400019000BF00BF00BF08468069A9
:100E500040F4805088610846806900F48050019019
:100E600000BF00BF102002900120039004900320D7
:100E7000059002A90C48FFF7CDF9A02002900220AE
:100E8000039002A90848FFF7C5F94020029000200E
:100E9000039002A90448FFF7BDF900BF06B010BDDA
:100EA0000030014000100240000801402DE9F04FE1
:100EB00085B00446884691461D460E9E002003904C
:100EC000012002900020019000BF94F850000128FA
:100ED00003D1022005B0BDE8F08F012084F8500056
:100EE00000BFFFF72DFB074694F851B060680490EF
:100EF000AA46BBF1010F0BD00498B0F5827F04D154
:100F0000A06810B9BBF1040F02D0022001904DE19E
:100F1000B8F1000F03D0B9F1000F00D015B90120CE
:100F2000019043E194F85100042802D0052084F890
:100F3000510000206065C4F83890E587A587C4F8A3
:100F40003080E586A58620646064A06AB0F5005F05
:100F50000DD100BF2068006820F4005021680860AF
:100F60002068006840F400502168086000BF2068D5
:100F7000006800F04000402805D02068006840F07C
:100F8000400021680860E068B0F5006F59D16068E2
:100F900010B1BAF1010F09D1206B00882168C86037
:100FA000206B801C2063E08E401EE08642E02068BB
:100FB000806800F0020002281CD1E08ED0B10298B7
:100FC000012817D1206B00882168C860206B801C25
:100FD0002063E08E401EE08600200290E08E48B93B
:100FE000A06AB0F5005F05D12068006840F4805029
:100FF000216808602068806800F0010068B1E08F17
:1010000058B12068C068A16B0880A06B801CA063E9
:10101000E08F401EE08701200290FFF791FAC01B8D
:10102000B04207D3701C28B103200190012084F83E
:101030005100BBE0E08E0028B9D1E08F0028B6D186
:1010400059E0606810B1BAF1010F09D1206B007846
:1010500021680873206B401C2063E08E401EE086F0
:1010600043E02068806800F0020002281CD1E08E76
:10107000D0B10298012817D1206B0078216808733D
:10108000206B401C2063E08E401EE0860020029012
:10109000E08E48B9A06AB0F5005F05D1206800680D
:1010A00040F48050216808602068806800F00100EA
:1010B00068B1E08F58B12068C068A16B0870A06B60
:1010C000401CA063E08F401EE08701200290FFF7E4
:1010D00037FAC01BB04201D3701C00B92EB90320EF
:1010E0000190012084F8510060E0E08E0028B8D122
:1010F000E08F0028B5D1A06AB0F5005F12D1334669
:10110000012211462046009700F090F930B1606D41
:1011100040F0020060650320019047E02068C0684D
:10112000039000BF20688068C0F30010E8B120463B
:1011300000F078F9012814D1606D40F0020060657C
:1011400000BF2068006820F4005021680860206813
:10115000006840F400502168086000BF0120019041
:1011600003E04FF6EF70216888603A46314620462A
:1011700000F044F920B1012001902020606515E0C5
:10118000A06850B900BF002000902068C06800909F
:1011900020688068009000BF00BF606D10B1012022
:1011A000019002E0012084F8510000BF00BF002040
:1011B00084F8500000BF01988CE670B504462546BF
:1011C000681EB0F1807F01D301200FE0681E4FF050
:1011D000E02148610F214FF0FF3000F0C3FA0020FA
:1011E0004FF0E021886107200861002070BD10B534
:1011F00004460CB9012010BDA06900B100E000BF99
:1012000094F8410028B9002084F84000204600F0FE
:1012100029F8242084F841002068C06820F4005098
:101220002168C860204600F073F92068006920F446
:101230009040216808612068406920F02A002168F8
:1012400048612068C06840F400502168C8600020F0
:101250006064202084F8410084F84200002060632C
:1012600000BFC8E710B586B004462549206888420B
:1012700043D100BF2348806940F0040021498861C0
:101280000846806900F00400019000BF00BF00BF65
:101290000846806940F4804088610846806900F40F
:1012A0008040019000BF00BF4815029002200390CB
:1012B000012004900320059002A91348FEF7AAFF1D
:1012C0004FF4806002900020039002A90E48FEF7C0
:1012D000A1FF2520FFF781F9032211462520FFF702
:1012E0008CF92068C06840F020002168C860206840
:1012F000C06840F010002168C86006B010BD000052
:101300000038014000100240000801402DE9F84F6C
:1013100004460E46174699464FF0000A94F84200DC
:1013200020284FD106B117B90120BDE8F88F002061
:101330006064222084F8420000202063FFF700F957
:101340008246A785E785A068B0F5805F04D1206953
:1013500010B90025B04602E035464FF0000829E0FC
:101360005346002220212046CDF8009000F04EF98F
:1013700008B10320D9E745B920684068C0F30800E8
:10138000A8F8000008F1020811E0A068B0F5805F3D
:1013900003D0A06828B9206918B92068406828706F
:1013A00004E02068406800F07F0028706D1CE08D2C
:1013B000401EE085E08D0028D2D1202084F8420034
:1013C0000020B2E70220B0E700BFFEE700BFFEE763
:1013D0007047704708B508490968C9084FF47A7220
:1013E000B1FBF2F14143009100BF00BF00994A1EDA
:1013F00000920029F9D108BD08000020F8B5044684
:101400000D4616462B46002280212046009600F00D
:101410000DF828B1606D40F0200060650320F8BD34
:101420000020FCE701460120704700002DE9F84F3D
:1014300004460D4690461E46DDF82890FFF780F8DA
:10144000A0EB0900371AFFF77BF882462C480068AA
:10145000C0F3CB307843009045E0701C002842D0A8
:10146000FFF76EF8A0EB0A00B84200D2A7BB2068D5
:10147000406820F0E000216848606068B0F5827F35
:101480000DD1A068B0F5004F03D0A068B0F5806F13
:1014900005D12068006820F0400021680860A06A3B
:1014A000B0F5005F0DD100BF2068006820F4005047
:1014B000216808602068006840F4005021680860D6
:1014C00000BF012084F8510000BF002084F85000C4
:1014D00000BF0320BDE8F88FFFE7009800B90027A0
:1014E0000098401E0090206880682840A84201D1E2
:1014F000012000E000204045AFD10020EAE70000D5
:1015000008000020704710B5FFF720F810BD7047A5
:1015100070B504462168096921F44051E26811431D
:10152000226811612269A1681143626941EA0205DA
:101530002168C96841F20C62914329432268D16055
:101540002168496921F44071A269114322685161FF
:101550002D4A2168914202D1FFF77EF901E0FFF7A1
:101560006BF900EBC00101EB001162689200B1FB66
:10157000F2F100EBC00202EB001263689B00B2FBC9
:10158000F3F26423B2FBF3F202EBC20303EB0212A9
:10159000A1EB8201322202EB01116422B1FBF2F1D4
:1015A00001F0F00100EBC00202EB001263689B0047
:1015B000B2FBF3F26423B2FBF3F201EB021200EB95
:1015C000C00101EB001163689B00B1FBF3F100EB7C
:1015D000C00303EB00136668B600B3FBF6F36426A2
:1015E000B3FBF6F303EBC30606EB0313A1EB830196
:1015F000322303EB01116423B1FBF3F101F00F017E
:1016000011442268916070BD003801402DE9F0411D
:1016100004460D4617469846069E34E0701C88B373
:101620002EB1FEF78DFFA0EB0800B0422BD900BF12
:1016300000BF21680C3151E8001F21F4D0702168EF
:101640000C3141E80002002AF3D100BF00BF00BF07
:101650002168143151E8001F21F001002168143184
:1016600041E80002002AF3D100BF202084F84100A5
:1016700084F8420000BF002084F8400000BF03202F
:10168000BDE8F081FFE7206800682840A84201D14A
:10169000012000E00020B842C0D00020F0E70000A8
:1016A0001CB5002001901C4800680068C0F3401081
:1016B000B8B11A480088802802D300201749088052
:1016C0004FF47A73012201A91348FFF71FFE9DF81A
:1016D0000410124802880088401C104B18801048E3
:1016E00081540D4800680068C0F3001090B10C49A7
:1016F0000CA000F01FF800F095FA00BF0020009049
:101700000548006800680090034800684068009041
:1017100000BF00BF1CBD0000780000200C000020AE
:10172000C0000020726563763A2025730D0A000020
:1017300000BFFEE70FB4054B10B503A9044A029899
:1017400000F034F810BC5DF814FB00006D1A0008BE
:101750001C00002002480068C0F30220704700000F
:101760000CED00E010B5002804DB0A07130E054A53
:10177000135406E00A07140E034A00F00F031B1F60
:10178000D45410BD00E400E018ED00E002E008C809
:10179000121F08C1002AFAD170477047002001E0EB
:1017A00001C1121F002AFBD1704700002DE9FF4F35
:1017B0008DB09B460F460446002606E025280BD038
:1017C0005A460F999047641C761C20780028F5D162
:1017D00011B03046BDE8F08F0025A8460122984997
:1017E00000E0054314F8013F203B02FA03F00842F1
:1017F000F7D120782E2817D114F8010F45F00405F1
:101800002A280ED06FF02F022078A0F1300109298C
:101810000AD808EB880102EB410100EB0108641CC7
:10182000F2E757F8048B641C20786C280DD004DC98
:101830004C2812D06A2811D104E074280DD07A28DF
:101840000CD10AE045F4001507E0617845F48015F5
:10185000814202D1641C05F58015641C207869283A
:1018600044D008DC0028B3D0582867D063280FD0B4
:10187000642808D13AE0702865D0732812D0752802
:101880005AD078285AD05A460F999047761CD5E0FE
:1018900017F8040B8DF8000000208DF80100E946D0
:1018A000012003E057F8049B4FF0FF3069074FF029
:1018B000000501D40AE06D1C45450DDA8542FADBCE
:1018C00019F805100029F6D106E06D1C8542FCDBF5
:1018D00019F805100029F8D12E4404E019F8010B7D
:1018E0005A460F9990476D1EF8D2A7E00A200021B2
:1018F000CDE90801C5F3025002280CD001CFC11771
:10190000021E71F100020CDA0023D0EB030063EB3E
:1019100001012D2208E0FF1D27F00707F7E802016B
:10192000EEE72A0504D52B228DF8282001223CE081
:10193000EA073AD02022F7E70A2000E01020002131
:10194000CDE9080107E01020002145F00405CDE9AC
:1019500008014FF00808C5F30250022810D001CF4B
:1019600000214FF0000A2A0720D52278702A0DD0D6
:10197000DDE908C38CF0100C5CEA030C0CD015E018
:10198000FF1D27F00707F7E80201EAE740228DF87C
:1019900028204FF0010A0CE050EA010306D0302362
:1019A0008DF828308DF82920022292462278582A74
:1019B00004D024A20DF120090B9209E026A2F9E738
:1019C000DDE90823FEF7C0FB0B9B9B5C09F8013D9A
:1019D00050EA0102F4D1ADEB09002030089068070D
:1019E00001D44FF001080899884503DD0898A8EB59
:1019F000000000E000208046002506E00AA85A46C4
:101A0000405D0F9990476D1C761C5545F6DB04E050
:101A100030205A460F999047761CB8F10001A8F182
:101A20000108F5DC05E019F8010B5A460F999047BB
:101A3000761C0899481E08900029F4DC641CC4E652
:101A40000928010030313233343536373839616294
:101A50006364656600000000303132333435363758
:101A600038394142434445460000000000BF054A62
:101A7000126802F04002002AF9D0C2B2014B1B1DCD
:101A80001A6070470038014010B501221102024867
:101A9000FEF750FD10BD0000000C014010B5012202
:101AA00051020248FEF746FD10BD0000000C014047
:101AB00000B585B000BF0F48806940F008000D49AF
:101AC00088610846806900F00800009000BF00BFF0
:101AD0004FF4407001900120029003900320049085
:101AE00001A90548FEF796FBFFF7CEFFFFF7D6FFEB
:101AF00005B000BD00100240000C014008B5FEF723
:101B000031FD4FF4E01000F043F8FFF7D1FF4FF440
:101B1000E13000F071F800F093F80DA0FFF70AFE35
:101B200000F0BAF8044621460DA0FFF703FE042298
:101B30000F49002000F088F80D48C07800900C484C
:101B40008378427801780BA0FFF7F4FD00BFFEE731
:101B500068656C6C6F20776F726C64210D0A0000F1
:101B60006465766963655F69643A2025580D0A00EB
:101B7000040000206461746120726561643A20256C
:101B8000582C2025582C2025582C2025580D0A008B
:101B900030B58FB005460124282105A8FEF7C9FA03
:101BA00014216846FEF7C5FA01200590000406904E
:101BB0000020079002200C90C1030D910E9505A8FE
:101BC000FEF792FE04460CB100BFFEE70F20009026
:101BD00002200190002002904FF4806003900020CA
:101BE000049002216846FEF75BFD04460CB100BF7D
:101BF000FEE70FB030BD000010B5044607480849A5
:101C000008600846446000218160C1600161816113
:101C10000C214161FFF7EBFA10BD000000380140D4
:101C20007800002010B580210348FEF782FA0020DA
:101C30000249088010BD0000C00000200C000020F8
:101C400010B500F05FF810BD2DE9F04107460D46D4
:101C50001646002400BF002210210E48FEF76AFC41
:101C600000BF032000F06EF8384600F03DF800BFDA
:101C700004E0FF2000F066F82855641CB442F8D355
:101C800000BF012210210348FEF754FC00BFBDE84D
:101C9000F08100000008014010B5002400BF0022C0
:101CA00010211048FEF746FC00BF902000F04AF8D3
:101CB000002000F047F8002000F044F8002000F079
:101CC00041F8FF2000F03EF80402FF2000F03AF84F
:101CD000044300BF012210210248FEF72BFC00BF85
:101CE000204610BD0008014010B50446C4F307406B
:101CF00000F028F8C4F3072000F024F8E0B200F068
:101D000021F810BD10B50D480D4908604FF48270E0
:101D1000486000210A488160C160016141614FF45F
:101D2000007181613821C1610021016241628162DB
:101D30000721C162FFF70AF810BD00000030014022
:101D40002000002001B582B0002001904FF47A708D
:101D5000012301AA02A900900248FFF7A7F89DF805
:101D600004000EBD20000020000000000000000064
:101D70000102030406070809000000000102030431
:101D800002030405060708090A0B0C0D0E0F1010BC
:101D900001020000B41D0008000000202000000027
:101DA0008C170008D41D000820000020200500002A
:101DB0009C170008AABBCCDD000000000024F40042
:101DC0000000000000000000100000000100000002
:041DD000000000000F
:04000005080000E906
:00000001FF
