:020000040800F2
:10000000F0050020010100084B1500084315000809
:1000100047150008B9060008F517000800000000A1
:10002000000000000000000000000000791500083A
:10003000BD060008000000004D1500087B150008F3
:100040001B0100081B0100081B0100081B01000820
:100050001B0100081B0100081B0100081B01000810
:100060001B0100081B0100081B0100081B01000800
:100070001B0100081B0100081B0100081B010008F0
:100080001B0100081B0100081B0100080000000004
:100090000000000000000000000000001B0100083C
:1000A0000000000000000000000000000000000050
:1000B0001B0100081B0100081B0100081B010008B0
:1000C0001B0100081B0100081B0100081B010008A0
:1000D0001B01000815170008A51700081B010008E0
:1000E0001B0100081B010008DFF810D000F044FAE3
:1000F0000048004749270008AFF30080F0050020C2
:100100000648804706480047FEE7FEE7FEE7FEE7B1
:10011000FEE7FEE7FEE7FEE7FEE7FEE783150008E1
:10012000E9000008D2B201E000F8012B491EFBD221
:1001300070470022F6E710B513460A4604461946F2
:10014000FFF7F0FF204610BD30B505462A460B46A6
:1001500012F8010B13F8014B08B1A042F8D01CB102
:10016000002802D06D1CF1E7284630BD421C10F873
:10017000011B0029FBD1801A704730B50B460146A0
:1001800000202022012409E021FA02F59D4205D336
:1001900003FA02F5491B04FA02F52844151EA2F1E0
:1001A0000102F1DC30BD2DE9F05F054600209246EA
:1001B0009B4688460646814640241BE02846414629
:1001C0004746224600F0F9F953465A46C01A914173
:1001D00010D311461846224600F0E0F92D1A67EBBD
:1001E00001084F4622460120002100F0D7F917EB05
:1001F00000094E41201EA4F10104DFDC48463146CF
:100200002A464346BDE8F09F2DE9FE4F804681EA2D
:100210000300C00F0C46009021F0004123F0004580
:10022000B8EB0200A94105D24046214690461C4643
:100230000B46024623F00040104347D0270DC7F37A
:100240000A00C3F30A510290401A019040286BDA69
:10025000C3F3130040F4801B0098924620B10023A2
:10026000D2EB030A63EB0B0B01985946C0F1400235
:10027000504600F093F906460D4650465946019AFD
:1002800000F0ABF910EB08006141002487EA11523D
:1002900084EAE7731A4340D0009A62B3019A012AB4
:1002A0004FEA075215DC001B61EB02014FF00042E0
:1002B00002EA0752CDE90042001C41F580113246A6
:1002C0002B4600F0ABF903B0BDE8F08F4046214665
:1002D000F9E7001B61EB0201001C41F580130018D7
:1002E0005B412018A2F5001747EB030140EAD570E7
:1002F000B6196D4111E06D084FEA360645EAC07542
:100300004FEA0752001B61EB0201001C41F580110E
:1003100049084FEA30000019514132462B4603B0DC
:10032000BDE8F04F00F06BB90098012240000023B7
:10033000D0EB020263EBE073009821464FEAE074D1
:10034000B8EB000061EB0401E9E783F000435BE7F1
:1003500081F0004158E72DE9FE4F81EA030404F0E3
:10036000004421F0004100944FF0000B23F00043C3
:1003700050EA01045ED052EA03045BD0C3F30A548E
:10038000C1F30A552C44A4F2F3340194A0FB0254A7
:10039000C1F3130141F48011C3F3130343F4801339
:1003A00001FB024400FB034E840A970A44EA81548D
:1003B00047EA8357A4FB076802958D0A05FB07856A
:1003C0004FEA932C04FB0C542705029D4FEA065874
:1003D00047EA1637B5EB08056EEB070C870E920E51
:1003E00047EA811742EA8312A7FB0201B6EB0B0131
:1003F00064EB00042B0D43EA0C335E1844EB1C50F5
:10040000DA465146E7FB0201C5F313044FEA0B330A
:1004100043EA14534FEA0432019C43EA0603A4F171
:100420000C040294009CCDE900B400F0F7F803B08E
:10043000BDE8F08F00200146F9E72DE9F04D81EA93
:10044000030404F0004B21F0004514464FF0000A6D
:1004500023F0004150EA050220D054EA01021DD0E9
:10046000C5F30A570246C5F31303C1F31300C1F3E2
:100470000A5640F4801543F48013A7EB0608101BBE
:10048000D64608F2FD3873EB050002D308F10108E7
:1004900001E092185B41B8F1000F03DA0020014639
:1004A000BDE8F08D00204FF48011064684460EE032
:1004B000171B73EB050705D3121B63EB05030643FC
:1004C0004CEA010C49084FEA300092185B4150EAAF
:1004D0000107EDD152EA030012D082EA040083EA58
:1004E0000501084305D0101BAB4106D201220023B1
:1004F00006E000224FF0004302E06FF001025310CB
:100500001AEB06004CEB085110EB0A0041EB0B0113
:10051000BDE8F04D00F073B8C1F30A52C1F3130106
:1005200040F2FF3341F480119A4202DA0020014682
:10053000704740F233439A42A2F2334202DC524205
:1005400000F03BB800F02AB830B5041E71F1000489
:1005500004DB4FF00044404264EB0101141E73F1D0
:10056000000405DB1C464FF00043524263EB0403DA
:10057000994208BF904230BD064C074D06E0E06846
:1005800040F0010394E8070098471034AC42F6D3DA
:10059000FFF7AEFD6C2800088C280008202A04DB39
:1005A000203A00FA02F1002070479140C2F1200386
:1005B00020FA03F3194390407047202A04DB203AC5
:1005C00021FA02F00021704721FA02F3D040C2F173
:1005D00020029140084319467047202A06DBCB17BA
:1005E000203A41FA02F043EAE07306E041FA02F3EE
:1005F000D040C2F12002914008431946704710B51F
:10060000141E73F1000408DA401C41F10001921835
:100610005B411A4301D120F0010010BD2DE9F04DDE
:1006200092469B4611B1B1FA81F202E0B0FA80F233
:1006300020329046FFF7B2FF04460F4640EA0A0018
:1006400041EA0B0153465A46084313D0114653EA78
:10065000010019D0C8F140025046FFF7AEFF054631
:100660000E46504659464246FFF798FF084305D0CC
:10067000012004E020463946BDE8F08D0020054306
:1006800046EAE0762C4337430A986305E40AA0EB78
:1006900008000022FD0A44EA47540A3002D500202F
:1006A0000146E9E7010510196941DDE9084500192E
:1006B0006941BDE8F04DA2E700BFFEE770470000CA
:1006C0002DE9F8470346002294466EE14FF00108F9
:1006D00008FA02F4D1F8008008EA0400A0427DD1B3
:1006E000DFF8DCA2D1F80480A8EB0A09D0453AD0A3
:1006F00014DCB8F1030F50D009DCB8F1000F31D091
:10070000B8F1010F1CD0B8F1020F49D120E0B8F1C7
:10071000110F18D0B8F1120F42D11EE0B9F5881FA1
:1007200025D006DCB9F5803F20D0B9F5801F37D140
:100730001AE0B9F5001F18D0B9F5041F30D117E041
:10074000D1F80CC02DE0D1F80C8008F1040C28E0A1
:10075000D1F80C8008F1080C23E0D1F80C8008F1E6
:100760000C0C1EE000BF00BF00BF00BF00BF00BFF9
:10077000D1F80880B8F1000F02D14FF0040C0BE063
:10078000D1F80880B8F1010F03D14FF0080C1C61BB
:1007900002E04FF0080C5C6103E04FF0000C00E059
:1007A00000BF00BFFF2801D8984601E003F104080C
:1007B0004646FF2802D84FEA820803E0A2F1080863
:1007C0004FEA88084746D6F800804FF00F0909FA2B
:1007D00007F928EA09080CFA07F900E088E048EA76
:1007E0000908C6F80080D1F8048008F08058B8F1F4
:1007F000805F7DD100BFDFF8CC81D8F8188048F049
:100800000108DFF8C091C9F81880C846D8F81880E8
:1008100008F00108CDF8008000BF00BF4FEAB938EA
:100820004FEA920958F829504FEA82784FEA18792E
:100830004FF00F0808FA09F825EA0805DFF8888163
:10084000434502D14FF0000816E0DFF880814345B0
:1008500002D14FF001080FE0DFF87481434502D167
:100860004FF0020808E0DFF86C81434502D14FF0F9
:10087000030801E04FF004084FEA82794FEA197942
:1008800008FA09F848EA0505DFF84C814FEA9209B1
:1008900048F82950D1F8048008F48018B8F5801F72
:1008A0000AD1DFF83881D8F8008048EA0008DFF87C
:1008B0002C91C9F8008009E0DFF82081D8F8008089
:1008C00028EA0008DFF81491C9F80080D1F8048004
:1008D00008F40018B8F5001F10D1DFF8008108F106
:1008E0000408D8F8008048EA0008DFF8F09000E03B
:1008F0005AE009F10409C9F800800DE0DFF8DC8056
:1009000008F10408D8F8008028EA0008DFF8CC9045
:1009100009F10409C9F80080D1F8048008F400380E
:10092000B8F5003F0ED1DFF8B480A8F10408D8F87C
:10093000008048EA0008DFF8A490A9F10409C9F88A
:1009400000800DE0DFF89480A8F10408D8F800805A
:1009500028EA0008DFF88490A9F10409C9F80080AA
:10096000D1F8048008F48038B8F5803F0ED1DFF864
:100970006C80A8F10808D8F8008048EA0008DFF881
:100980005C90A9F10809C9F800800DE0DFF84C80FF
:10099000A8F10808D8F8008028EA0008DFF83C90A1
:1009A000A9F10809C9F80080521CD1F8008028FA82
:1009B00002F8B8F1000F7FF489AEBDE8F8870000B7
:1009C000000011100010024000080140000C01401E
:1009D00000100140001401400800014008040140DB
:1009E0000AB1016101E00B0403617047014800682E
:1009F000704700000C000020034800680349097894
:100A000008440149086070470C00002014000020D1
:100A100010B50848006840F010000649086003203F
:100A200000F080F80F2000F007F800F02BF800200D
:100A300010BD00000020024070B504460E4800784A
:100A40004FF47A71B1FBF0F00C490968B1FBF0F595
:100A5000284600F0D1FB08B1012070BD102C07D250
:100A600000222146501E00F01EF80548046001E0F7
:100A70000120F2E70020F0E7140000200000002031
:100A800010000020704701460846002809DB00F0EE
:100A90001F0301229A4043099B0003F1E023C3F89E
:100AA000002100BF70472DE9F05F80460D461646D5
:100AB000002700F0D7FE074639462A46334601F0A4
:100AC0000700C0F1070ABAF1040F02D94FF0040A77
:100AD00001E0C0F1070AD14600F1040ABAF1070F9C
:100AE00002D24FF0000A01E0A0F1030AD4464FF011
:100AF000010A0AFA09FAAAF1010A0AEA020A0AFA3A
:100B00000CFA4FF0010B0BFA0CFBABF1010B0BEAEB
:100B1000030B4AEA0B042146404600F0ABFEBDE859
:100B2000F09F000000BF00F00702064B19684FF667
:100B3000FF031940044B0B4343EA0221014B1960A8
:100B400000BF70470CED00E00000FA0570B50446E8
:100B50000D460CB9012070BD5A48006800F007002E
:100B6000A8420ED25748006820F007002843554994
:100B700008600846006800F00700A84201D0012084
:100B8000E9E7207800F0020002281DD1207800F06B
:100B90000400042805D14C48406840F4E0604A490C
:100BA0004860207800F00800082805D146484068D1
:100BB00040F46050444948604348406820F0F000E9
:100BC000A168084340494860207800F0010078B3EC
:100BD0006068012806D13C48006800F4003090B9F4
:100BE0000120B8E76068022806D13748006800F0A5
:100BF000007040B90120AEE73348006800F0020001
:100C000008B90120A7E73048406820F00300616878
:100C100008432D494860FFF7E9FE064609E0FFF763
:100C2000E5FE801B41F28831884202D9032092E719
:100C300007E02548406800F00C006168B0EB810FC8
:100C4000EDD12048006800F00700A8420ED91D48E9
:100C5000006820F0070028431A4908600846006829
:100C600000F00700A84201D0012074E7207800F0CE
:100C70000400042807D11448406820F4E060E168CB
:100C8000084311494860207800F00800082808D17E
:100C90000D48406820F46050216940EAC1000A49CB
:100CA000486000F03FF808494968C1F30311074A5A
:100CB000515CC8400649086006480068FFF7BCFE62
:100CC000002048E7002002400010024040280008B1
:100CD000000000201000002001480068704700005C
:100CE0000000002000B5FFF7F7FF04494968C1F391
:100CF0000221034A515CC84000BD000000100240C0
:100D00005028000800B5FFF7E7FF04494968C1F320
:100D1000C221034A515CC84000BD000000100240DF
:100D20005028000870B50021002200240023002074
:100D3000134D696801F00C05F5B1042D02D0082DA2
:100D400019D101E00F4819E00F4DC1F38346AB5DA7
:100D500001F4803555B10A4D6D68C5F340450B4E21
:100D6000725D084D5D43B5FBF2F402E0084D03FBF4
:100D700005F4204602E000BF024800BF00BF70BD7E
:100D80000010024000127A00582800086828000865
:100D900000093D00F8B504460CB90120F8BD2078E3
:100DA00000F00100002878D0F848406800F00C00FE
:100DB00004280CD0F548406800F00C00082811D138
:100DC000F248406800F48030B0F5803F0AD1EF4827
:100DD000006800F4003000285FD0606800285CD113
:100DE0000120DBE700BF6068B0F5803F06D1E7482F
:100DF000006840F48030E549086028E0606858B930
:100E0000E248006820F48030E04908600846006845
:100E100020F4802008601AE06068B0F5A02F0BD1A4
:100E2000DA48006840F48020D84908600846006825
:100E300040F4803008600AE0D448006820F4803034
:100E4000D24908600846006820F48020086000BF8E
:100E5000606888B1FFF7CAFD054606E0FFF7C6FDEA
:100E6000401B642801D9032098E7C848006800F4B3
:100E700000300028F2D010E0FFF7B8FD054606E08C
:100E8000FFF7B4FD401B642801D9032086E7BF4863
:100E9000006800F400300028F2D1207800F0020051
:100EA000022857D1B948406800F00C0050B1B7484B
:100EB000406800F00C00082818D1B448406800F4DD
:100EC000803098B9B148006800F0020020B1206974
:100ED000012801D0012061E7AC48006820F0F8004B
:100EE000616940EAC100A949086033E02069E8B1BE
:100EF0000120A7490860FFF779FD054606E0FFF7E6
:100F000075FD401B022801D9032047E79F48006870
:100F100000F002000028F2D09C48006820F0F800A1
:100F2000616940EAC1009949086013E000209849CE
:100F30000860FFF75BFD054606E0FFF757FD401B25
:100F4000022801D9032029E79048006800F0020038
:100F50000028F2D1207800F0080008282DD1A069DF
:100F6000B8B101208B490860FFF740FD054606E057
:100F7000FFF73CFD401B022801D903200EE7834800
:100F8000406A00F002000028F2D0012000F0E0FAF0
:100F900013E000207F490860FFF728FD054606E0C2
:100FA000FFF724FD401B022801D90320F6E677480D
:100FB000406A00F002000028F2D1207800F004001E
:100FC000042873D100277148C06900F0805070B9BF
:100FD00000BF6E48C06940F080506C49C861084647
:100FE000C06900F08050009000BF00BF01276A4830
:100FF000006800F48070B0B96748006840F4807001
:1010000065490860FFF7F2FC054606E0FFF7EEFCD5
:10101000401B642801D90320C0E65F48006800F443
:1010200080700028F2D000BFE068012806D1574840
:10103000006A40F001005549086227E0E06858B9AD
:101040005248006A20F00100504908620846006AD0
:1010500020F00400086219E0E06805280BD14B4835
:10106000006A40F00400494908620846006A40F0FE
:10107000010008620AE04548006A20F00100434987
:1010800008620846006A20F00400086200BFE068B9
:10109000A0B1FFF7ABFC054609E0FFF7A7FC401B3A
:1010A00041F28831884202D9032077E622E03748AE
:1010B000006A00F002000028EFD012E0FFF796FC73
:1010C000054608E0FFF792FC401B41F28831884258
:1010D00001D9032062E62D48006A00F002000028D2
:1010E000F0D1012F05D12948C06920F0805027494F
:1010F000C86100BFE069C8B32448406800F00C0034
:10110000082860D0E069022848D1002020490866FC
:10111000FFF76CFC054606E0FFF768FC401B022861
:1011200001D903203AE61948006800F00070002851
:10113000F2D1206AB0F5803F07D11448406820F40E
:101140000030A168084311494860D4E90801084308
:101150000E49496821F4741108430C494860012084
:101160000B490866FFF742FC054607E03DE0FFF744
:101170003DFC401B022801D903200FE6034800680C
:1011800000F000700028F2D02FE0000000100240B4
:101190000000424280044242007000400020144996
:1011A0000866FFF723FC054606E0FFF71FFC401B1F
:1011B000022801D90320F1E50E48006800F0007014
:1011C0000028F2D111E0E069012800D1E6E50948E4
:1011D000466806F48031206A814204D106F4701119
:1011E000606A814201D00120D8E50020D6E50000E8
:1011F000000042420010024070B504462546681EB9
:10120000B0F1807F01D301200FE0681E4FF0E02194
:1012100048610F214FF0FF3000F02CFB00204FF011
:10122000E021886107200861002070BD10B50446E8
:101230000CB9012010BDA06900B100E000BF94F816
:10124000410028B9002084F84000204600F02AF828
:10125000242084F841002068C06820F400502168F0
:10126000C860204600F08EF92068006920F49040A4
:10127000216808612068406920F02A0021684861DF
:101280002068C06840F400502168C8600020606495
:10129000202084F8410084F842000020606300BFF1
:1012A000C8E7000010B586B0044646492068884269
:1012B00044D100BF4448806940F00400424988613D
:1012C0000846806900F00400019000BF00BF00BF25
:1012D0000846806940F4804088610846806900F4CF
:1012E0008040019000BF00BF48150290022003908B
:1012F000012004900320059002A93448FFF7E0F98B
:101300004FF4806002900020039002A92F48FFF75D
:10131000D7F92520FFF7B7FB032211462520FFF759
:10132000C2FB2068C06840F020002168C8602068C7
:10133000C06840F010002168C86040E0244920687F
:1013400088423CD100BF2048806940F004001E491B
:1013500088610846806900F00400019000BF00BF6A
:1013600000BF0846C06940F40030C8610846C06943
:1013700000F40030019000BF00BF04200290022062
:101380000390012004900320059002A90F48FFF765
:1013900097F9082002900020039002A90B48FFF75C
:1013A0008FF92620FFF76FFB032211462620FFF757
:1013B0007AFB2068C06840F020002168C86006B051
:1013C00010BD00000038014000100240000801403C
:1013D000004400402DE9F84F04460E461746994652
:1013E0004FF0000A94F8420020284FD106B117B9F7
:1013F0000120BDE8F88F00206064222084F84200BC
:1014000000202063FFF7F2FA8246A785E785A068EF
:10141000B0F5805F04D1206910B90025B04602E024
:1014200035464FF0000829E053460022202120468F
:10143000CDF8009000F024F908B10320D9E745B9B0
:1014400020684068C0F30800A8F8000008F102080E
:1014500011E0A068B0F5805F03D0A06828B92069CA
:1014600018B920684068287004E02068406800F0DF
:101470007F0028706D1CE08D401EE085E08D002807
:10148000D2D1202084F842000020B2E70220B0E749
:101490002DE9F84F04460E46174699464FF0000ACC
:1014A00094F8410020284AD106B117B90120BDE8BF
:1014B000F88F00206064212084F84100FFF796FA3D
:1014C0008246A784E784A068B0F5805F04D12069D4
:1014D00010B90025B04602E035464FF000081BE089
:1014E0005346002280212046CDF8009000F0C8F835
:1014F00008B10320DBE745B9B8F80000C0F30800E5
:101500002168486008F1020803E0287821684860F3
:101510006D1CE08C401EE084E08C0028E0D1534636
:10152000002240212046CDF8009000F0A9F808B133
:101530000320BCE7202084F841000020B7E7022008
:10154000B5E700BFFEE700BFFEE770477047000049
:1015500008B508490968C9084FF47A72B1FBF2F17D
:101560004143009100BF00BF00994A1E009200292C
:10157000F9D108BD00000020704710B5FFF73CFA14
:1015800010BD704770B504462168096921F44051C7
:10159000E2681143226811612269A16811436269FE
:1015A00041EA02052168C96841F20C62914329436E
:1015B0002268D1602168496921F44071A269114310
:1015C000226851612D4A2168914202D1FFF79AFBAE
:1015D00001E0FFF787FB00EBC00101EB001162683F
:1015E0009200B1FBF2F100EBC00202EB0012636863
:1015F0009B00B2FBF3F26423B2FBF3F202EBC203F3
:1016000003EB0212A1EB8201322202EB01116422F0
:10161000B1FBF2F101F0F00100EBC00202EB0012AD
:1016200063689B00B2FBF3F26423B2FBF3F201EBBD
:10163000021200EBC00101EB001163689B00B1FBDB
:10164000F3F100EBC00303EB00136668B600B3FBD5
:10165000F6F36426B3FBF6F303EBC30606EB0313C2
:10166000A1EB8301322303EB01116423B1FBF3F1FE
:1016700001F00F0111442268916070BD00380140F3
:101680002DE9F04104460D4617469846069E34E083
:10169000701C88B32EB1FFF7A9F9A0EB0800B04287
:1016A0002BD900BF00BF21680C3151E8001F21F485
:1016B000D07021680C3141E80002002AF3D100BF4C
:1016C00000BF00BF2168143151E8001F21F0010064
:1016D0002168143141E80002002AF3D100BF202024
:1016E00084F8410084F8420000BF002084F84000E4
:1016F00000BF0320BDE8F081FFE7206800682840B4
:10170000A84201D1012000E00020B842C0D0002052
:10171000F0E700001CB5002001901C48006800683C
:10172000C0F34010B8B11A480088802802D30020C6
:10173000174908804FF47A73012201A91348FFF773
:1017400049FE9DF80410124802880088401C104B86
:101750001880104881540D4800680068C0F30010DC
:1017600090B10C490CA000F047F801F05BF800BF05
:101770000020009005480068006800900348006859
:101780004068009000BF00BF1CBD00002401002085
:10179000080000206C010020726563763A202573F2
:1017A0000D0A000008B5002000900F48006800688E
:1017B000C0F34010B8B10D480088802802D3002043
:1017C0000A4908804FF47A73012269460648FFF7F8
:1017D00001FE9DF80010054802880088401C034B5C
:1017E00018800348815408BDDC000020040000205C
:1017F0001C00002000BFFEE70FB4054B10B503A985
:10180000044A029800F01CF910BC5DF814FB0000BB
:10181000B9260008180000200FB4084B10B504A921
:1018200002AA039800F00CF9044602A9002000F077
:101830008AFC204610BC5DF814FB0000472100081C
:1018400037B514460846064B6A46214600F0F8F8BC
:1018500004466946002000F076FC20463EBD0000AC
:101860004721000802480068C0F3022070470000CA
:101870000CED00E010B5002804DB0A07130E054A42
:10188000135406E00A07140E034A00F00F031B1F4F
:10189000D45410BD00E400E018ED00E002E008C8F8
:1018A000121F08C1002AFAD170477047002001E0DA
:1018B00001C1121F002AFBD1704700002DE9FF5F14
:1018C00082B00021DDE90430020DDDF840B00343B1
:1018D00018D044F61050A2F2FF324243151411986A
:1018E00001281FD0A5EB0B00401C5FEA000A4FF057
:1018F00000064E4FDFF83891B046504615D5CAF174
:10190000000413E0119801244AA3012801D16FEAD1
:101910000B010298119AC0E90031C0E9024206B0F9
:10192000BDE8F09FCBF10000DFE704460021404A0C
:10193000491842EB0450CDE9001012E0E00707D04F
:1019400032463B4640464946FEF705FD80468946FD
:1019500032463B4610461946FEF7FDFC06460F464A
:101960006410002CEAD1DDE90401DDE90023BAF1BD
:10197000000F06DAFEF7EFFC42464B46FEF7EBFCA3
:1019800005E0FEF75AFD42464B46FEF756FD04467B
:101990000E460022284BFEF7D7FD03D84FF0FF304C
:1019A000014607E00022254B20463146FEF72CFC7D
:1019B000FEF7B2FD102409E0002C0ADB0A22002306
:1019C000FEF7F1FB039B30321A55641E50EA010208
:1019D000F2D1641C039AC4F111031444119A012A30
:1019E00003D0012208430DD10AE0084304D00020AF
:1019F0004FF0110B119072E7A3EB0B056D1E0DE07C
:101A00005B4504DD4FF0000205F1010504E003DA57
:101A10004FF00002A5F10105002AECD002981199BF
:101A2000C0E90231C0E9004579E700000000144038
:101A30000000F03F300000000000F0430000E03FF5
:101A40002DE9FF4F95B09A46884606460025EEE1FF
:101A5000252877D100242746F94A0121039400E084
:101A6000044316F8013F203B01FA03F01042F7D17E
:101A700030782A2811D06FF02F033078A0F130028F
:101A8000092A16D8039A44F0020402EB820203EBFF
:101A900042021044761C0390EFE758F8042B03929F
:101AA000002A03DA504244F40054039044F0020444
:101AB000761C30782E2816D116F8010F44F0040455
:101AC0002A280DD06FF02F023078A0F13003092BB7
:101AD00009D807EB870302EB4303C718761CF3E72B
:101AE00058F8047B761C30786C280FD006DC4C2824
:101AF00017D068280DD06A2814D104E0742810D0BB
:101B00007A280FD10DE044F400140AE044F4801464
:101B100001E044F440147278824202D104F580144A
:101B2000761C761C307866280BD013DC582877D0CA
:101B300009DC002875D04528F6D04628F4D047287F
:101B40001AD193E118E0632835D0642879D065284C
:101B500012D18BE1702873D008DC6728F1D0692896
:101B60006FD06E280DD06F2806D1ACE073282CD032
:101B7000752874D0782853D05246179990476D1C19
:101B800054E1C4F30250022809D003280DD0D8F83C
:101B9000001004280DD00D6008F1040846E1D8F8C3
:101BA0000010EA17C1E90052F6E7D8F800100D80DE
:101BB000F2E70D70F0E718F8041B8DF80010002014
:101BC0008DF80100EB46012003E058F804BB4FF00C
:101BD000FF3061074FF0000102D40DE009F101016F
:101BE0008946B9420FDA8145F8DB1BF80910002954
:101BF000F4D108E009F1010189468142FADB1BF8C2
:101C000009100029F6D103985346A0EB0907214695
:101C10003846179A00F080FA284400EB090507E0DF
:101C200044E008E10DE01BF8010B5246179990477C
:101C3000B9F10109F7D2534621463846179AF2E026
:101C400039E00A21C4F302524FF0000B0091022A3E
:101C500006D058F8040BC117032A09D00AE023E084
:101C600008F1070020F00702F2E80201904605E0C3
:101C700000B2C117042A01D140B2C117002906DA07
:101C80000A460021404261EB02012D2202E02205BA
:101C900004D52B228DF80420012203E0E20701D0B5
:101CA0002022F7E7914657E00A2100E010214FF08B
:101CB000000B00910BE010214FF0000B44F00404E6
:101CC0000827009103E008204FF0000B0090C4F3B8
:101CD0000252022A05D058F8040B0021032A08D02A
:101CE00008E008F1070020F00702F2E80201904640
:101CF00003E080B2042A00D1C0B24FF000092207ED
:101D00002AD53278702A07D0DDF800C08CF0100C8C
:101D10005CEA0B0C05D00EE040228DF80420012275
:101D200008E050EA010306D030238DF804308DF826
:101D3000052002229146009B83F0080353EA0B031F
:101D40000AD150EA010201D1620705D530228DF88F
:101D500004204FF001097F1E3278582A04D039A29E
:101D60000C920CAA02920BE03BA2F9E75B46009AA8
:101D7000FEF719FA0C9B9B5C029A521E029213709A
:101D800050EA0102F2D1029804A9081A00F1200BCE
:101D9000600702D524F4803400E001275F4502DDAE
:101DA000A7EB0B0000E0002000EB0B010090039874
:101DB0004944401A0390E00306D453462146179A3B
:101DC000039800F0A9F90544002706E001A852464F
:101DD000C05D179990476D1C7F1C4F45F6DBE003F3
:101DE0000CD553462146179A039800F095F90544FF
:101DF00004E030205246179990476D1C0099481E08
:101E000000900029F5DC08E002980299524600781B
:101E1000491C0291179990476D1CBBF10001ABF171
:101E2000010BF1DC5BE100F065F90544761C3078CC
:101E300000287FF40DAE19B02846BDE8F08F0000F1
:101E40000928010030313233343536373839616290
:101E50006364656600000000303132333435363754
:101E6000383941424344454600000000600700D431
:101E7000062708F1070020F00700F0E8022380465B
:101E800003F0004C5FEA0C0001D097A009E02005A8
:101E900001D596A005E0E00701D095A001E0AFF2E2
:101EA0004C001390307823F0004365280CD006DCFA
:101EB000452809D046281DD047287FD13BE0662819
:101EC00018D067287AD136E00021112F01DB1120CC
:101ED00000E0781CCDE9000104A90CA8FFF7EEFC96
:101EE000DDE90D010C9A4FF0000B07F1010910928A
:101EF00000914EE04FF000400097CDE9011004A999
:101F00000CA8FFF7DBFCDDE90D020C9B0F994FF0ED
:101F1000000B91461093009211B9791C00EB010956
:101F2000B7EB090003D4C0F1FF3B07F10109A9EBAE
:101F30000700019042E0012F00DA01270021112F54
:101F400001DD112000E03846CDE9000104A90CA80C
:101F5000FFF7B4FCDDE90D010C9A00914FF0000B86
:101F6000B946109221070FD4009A4A4503DA9146E8
:101F700001E0A9F10109B9F1010F05DD109AA9F1FC
:101F80000101515C3029F4D0B84202DA10F1040F9B
:101F900003DA0121CDE9011010E0002803DC8344BD
:101FA000A9EB000102E0411C494500DD8946A0EB98
:101FB0000B00401C01904FF000400290200705D418
:101FC0000198484502DB4FF0FF30019000208DF86A
:101FD0004B0002980DF14B07B0F1004F25D00220C5
:101FE0000C902B200D90029800280CDA40420290B1
:101FF0002D200D9007E00A210298FEF7BEF830313F
:10200000029007F8011D0C99481E0C900029F2DC83
:1020100002980028EFD1791E0D980870307800F0F2
:10202000200040F0450007F8020D11A8C01BC01D9C
:1020300002901398007800B1012000EB090101988B
:1020400001EBE071029801440398401A401E03908E
:10205000E00306D453462146179A039800F05CF833
:1020600005441398007818B15246179990476D1C93
:10207000E00323D553462146179A039800F04CF805
:1020800005441BE0BBF1000F07DB0098584504DD59
:102090001098179910F80B0001E01799302052465C
:1020A000904701980BF1010B401E05F101050190CD
:1020B00004D12E205246179990476D1CB9F10001AA
:1020C000A9F10109DEDC05E017F8010B524617996A
:1020D00090476D1C0299481E02900029F4DC53467B
:1020E0002146179A03989EE62D0000002B00000061
:1020F000200000002DE9F041044600251E46174649
:10210000880404D405E039462020B0476D1C641EC5
:10211000F9D52846BDE8F0812DE9F04104460025B7
:102120001E469046C80301D5302700E020278804CA
:1021300004D505E041463846B0476D1C641EF9D50C
:102140002846BDE8F0810A68531C0B601070704788
:1021500010B5044603E04FF47A7000F005F8201E35
:10216000A4F10104F7D110BD014601EBC102D20078
:102170004FF0E0235A6100229A611A46126942F038
:1021800004021A611A46126942F001021A6100BF84
:102190004FF0E022106900F001021AB100F4803221
:1021A000002AF5D04FF0E022126922F001024FF030
:1021B000E0231A617047000010B502A102A000F0F0
:1021C000BBF910BD4F4B000041540D0A0000000048
:1021D00030B591B004460D462B46224604A101A815
:1021E000FFF71AFB09A101A800F0A6F911B030BD54
:1021F00041542B43495053544152543D225443506F
:10220000222C222573222C25730D0A00434F4E4E9B
:102210004543540010B590B00446224604A16846D8
:10222000FFF7FAFA06A1684600F086F910B010BD73
:1022300041542B4349504D55583D25640D0A00002B
:102240004F4B000010B508A108A000F075F9044636
:102250000AA10BA000F070F92044C4B20CB9002010
:1022600010BD0120FCE700004F4B000041542B4300
:1022700049504D4F44453D310D0A00003E000000DD
:1022800041542B43495053454E440D0A0000000071
:1022900010B504462FA0FFF7AFFA204600F0DCF996
:1022A00032A0FFF7A9FA03E04FF4FA70FFF750FFEE
:1022B000FFF782FF0028F7D133A0FFF79DFA03E074
:1022C0004FF4FA70FFF744FF012000F07DF9002879
:1022D000F6D134A0FFF790FA03E04FF4FA70FFF75D
:1022E00037FF0020FFF796FF0028F6D134A237A170
:1022F0003AA0FFF781FA03E040F2DC50FFF728FF35
:102300002FA132A000F0D0F80028F5D13CA23EA1C8
:1023100041A0FFF771FA03E04FF4FA70FFF718FFDE
:1023200037A139A0FFF754FF0028F5D147A0FFF7E8
:1023300063FA03E04FF4FA70FFF70AFFFFF782FF3A
:102340000028F7D147A0FFF757FA51A0FFF754FA3A
:1023500010BD000065737038323636B3F5CABCBBA9
:10236000AFBFAACABC2E2E2E0D0A0000312E20B2FD
:10237000E2CAD465737038323636CAC7B7F1B4E6EC
:10238000D4DA0D0A00000000322E20C9E8D6C3B905
:10239000A4D7F7C4A3CABDCEAA5354412E2E2E0DE6
:1023A0000A000000332E20C9E8D6C3B5A5C2B7C1C4
:1023B000B4BDD3C4A3CABD2E2E2E0D0A000000004A
:1023C00072727A3230313930393233004368696E93
:1023D000614E65742D4C43524B345600342E20C14F
:1023E000ACBDD3574946492E2E2E20535349443A6B
:1023F0002025732C205057443A2025730D0A0000E5
:1024000038303830000000003139322E3136382E65
:102410003130312E33360000352E20C1ACBDD354BF
:102420004350B7FECEF1C6F7A3AC73657276657202
:102430005F69703A2025732C207365727665725F30
:10244000706F72743A2025730D0A0000362E20BD7D
:10245000F8C8EBB5BDCDB8B4ABC4A3CABD2E2E2E03
:102460000D0A000045535038323636D2D1C1ACBDCA
:10247000D3C9CF544350B7FECEF1C6F7B2A2BDF8D0
:10248000C8EBCDB8B4ABC4A3CABDA3A10D0A00006C
:1024900045535038323636B3F5CABCBBAFCDEAB37C
:1024A000C9A3A10D0A00000030B591B004460D4645
:1024B0002B46224604A101A8FFF7AEF908A101A806
:1024C00000F03AF811B030BD41542B43574A415007
:1024D0003D222573222C222573220D0A00000000C4
:1024E0005749464920474F542049500010B500F045
:1024F000C9F828B9034904A0FFF77EF900F00EF8E7
:1025000010BD00001C000020657370383236362084
:10251000726563763A2025730D0A000010B580219C
:102520000348FDF706FE00200249088010BD0000A8
:102530001C000020040000202DE9F04104460D4657
:10254000FA26FFF7EBFF2046FDF710FE87B2642363
:102550003A4621460C48FEF79BFF0DE000F092F84A
:1025600038B929460948FDF7EFFD10B10020BDE854
:10257000F0810A20FFF7ECFD301EA6F10101CEB27A
:10258000ECD10120F3E70000DC0000201C0000205B
:102590000FB438B505A800900948009A0499FFF7D0
:1025A0004FF9002000900648FDF7E0FD84B2642357
:1025B000224603490348FEF76BFF38BC5DF814FB65
:1025C0009C000020DC00002010B50446012C04D043
:1025D000022C07D0032C0FD109E008A108A0FFF7B7
:1025E000ABFF10BD05A10AA0FFF7A6FFF9E703A105
:1025F0000BA0FFF7A1FFF4E70320F2E74F4B000029
:1026000041542B43574D4F44453D310D0A000000C6
:1026100041542B43574D4F44453D320D0A000000B5
:1026200041542B43574D4F44453D330D0A000000A4
:1026300010B503A0FFF7ACFFFFF758FF10BD000077
:10264000746869732069732066726F6D206573709A
:10265000383236360D0A000010B5044607480849DE
:1026600008600846446000218160C16001618161A9
:102670000C214161FEF7DAFD10BD0000004400406E
:10268000DC0000200A48008808B90120704708488B
:10269000008808490988884203D10020044908803D
:1026A000F4E703480088034908800120EEE70000B2
:1026B000040000200600002000BF054A126802F056
:1026C0004002002AF9D0C2B2014B1B1D1A607047AC
:1026D0000038014010B5012211020248FEF780F9CE
:1026E00010BD0000000C014010B50122510202484B
:1026F000FEF776F910BD0000000C014000B585B072
:1027000000BF0F48806940F008000D498861084605
:10271000806900F00800009000BF00BF4FF44070D7
:1027200001900120029003900320049001A9054824
:10273000FDF7C6FFFFF7CEFFFFF7D6FF05B000BDE0
:1027400000100240000C0140FEF762F94FF4E01067
:1027500000F01EF8FFF7D2FF4FF4E13000F04CF824
:102760004FF4E130FFF794FD05A0FFF745F805E0D1
:10277000FFF75EFF4FF4FA70FFF7EAFCF8E700009E
:1027800068656C6C6F20776F726C64210D0A0000B5
:1027900030B58FB005460124282105A8FDF7C9FCF6
:1027A00014216846FDF7C5FC012005900004069041
:1027B0000020079002200C90C1030D910E9505A8F2
:1027C000FEF7E8FA04460CB100BFFEE70F200090C8
:1027D00002200190002002904FF4806003900020BE
:1027E000049002216846FEF7B1F904460CB100BF1F
:1027F000FEE70FB030BD000010B504460748084999
:1028000008600846446000218160C1600161816107
:102810000C214161FEF70AFD10BD000000380140A7
:102820002401002010B580210348FDF782FC002020
:102830000249088010BD00006C0100200800002043
:102840000000000000000000010203040607080960
:102850000000000001020304020304050607080942
:102860000A0B0C0D0E0F1010010200008C2800083E
:10287000000000201C0000009C180008A828000888
:102880001C000020D4050000AC1800080024F4004F
:102890000000000000000000000000001000000028
:0828A00001000000000000002F
:04000005080000E906
:00000001FF
