:020000040800F2
:10000000F004002001010008310F0008290F00084A
:100010002D0F00086D010008891100080000000084
:100020000000000000000000000000005D0F00085C
:100030007101000800000000330F00085F0F000886
:100040001B0100081B0100081B0100081B01000820
:100050001B0100081B0100081B0100081B01000810
:100060001B0100081B0100081B0100081B01000800
:100070001B0100081B0100081B0100081B010008F0
:100080001B0100081B0100081B0100080000000004
:100090000000000000000000000000001B0100083C
:1000A0000000000000000000000000000000000050
:1000B0001B0100081B0100081B0100081B010008B0
:1000C0001B0100081B0100081B0100081B010008A0
:1000D0001B010008F91000081B0100081B010008A3
:1000E0001B0100081B010008DFF810D000F02CF8FD
:1000F0000048004701140008AFF30080F00400201E
:100100000648804706480047FEE7FEE7FEE7FEE7B1
:10011000FEE7FEE7FEE7FEE7FEE7FEE7670F000803
:10012000E9000008D2B201E000F8012B491EFBD221
:1001300070470022F6E710B513460A4604461946F2
:10014000FFF7F0FF204610BD064C074D06E0E068C3
:1001500040F0010394E8070098471034AC42F6D30E
:10016000FFF7C6FFC4150008E415000800BFFEE74E
:10017000704700002DE9F8470346002294466EE1DF
:100180004FF0010808FA02F4D1F8008008EA0400F0
:10019000A0427DD1DFF8DCA2D1F80480A8EB0A09E7
:1001A000D0453AD014DCB8F1030F50D009DCB8F1D7
:1001B000000F31D0B8F1010F1CD0B8F1020F49D1B6
:1001C00020E0B8F1110F18D0B8F1120F42D11EE0A3
:1001D000B9F5881F25D006DCB9F5803F20D0B9F5E8
:1001E000801F37D11AE0B9F5001F18D0B9F5041FE8
:1001F00030D117E0D1F80CC02DE0D1F80C8008F117
:10020000040C28E0D1F80C8008F1080C23E0D1F8A8
:100210000C8008F10C0C1EE000BF00BF00BF00BF47
:1002200000BF00BFD1F80880B8F1000F02D14FF035
:10023000040C0BE0D1F80880B8F1010F03D14FF0A6
:10024000080C1C6102E04FF0080C5C6103E04FF009
:10025000000C00E000BF00BFFF2801D8984601E075
:1002600003F104084646FF2802D84FEA820803E05B
:10027000A2F108084FEA88084746D6F800804FF0F8
:100280000F0909FA07F928EA09080CFA07F900E04A
:1002900088E048EA0908C6F80080D1F8048008F030
:1002A0008058B8F1805F7DD100BFDFF8CC81D8F8ED
:1002B000188048F00108DFF8C091C9F81880C846D6
:1002C000D8F8188008F00108CDF8008000BF00BF02
:1002D0004FEAB9384FEA920958F829504FEA827824
:1002E0004FEA18794FF00F0808FA09F825EA0805CF
:1002F000DFF88881434502D14FF0000816E0DFF8AF
:100300008081434502D14FF001080FE0DFF874818E
:10031000434502D14FF0020808E0DFF86C81434505
:1003200002D14FF0030801E04FF004084FEA827950
:100330004FEA197908FA09F848EA0505DFF84C810F
:100340004FEA920948F82950D1F8048008F480183F
:10035000B8F5801F0AD1DFF83881D8F8008048EA64
:100360000008DFF82C91C9F8008009E0DFF820814F
:10037000D8F8008028EA0008DFF81491C9F8008056
:10038000D1F8048008F40018B8F5001F10D1DFF888
:10039000008108F10408D8F8008048EA0008DFF876
:1003A000F09000E05AE009F10409C9F800800DE07E
:1003B000DFF8DC8008F10408D8F8008028EA00089B
:1003C000DFF8CC9009F10409C9F80080D1F8048065
:1003D00008F40038B8F5003F0ED1DFF8B480A8F17A
:1003E0000408D8F8008048EA0008DFF8A490A9F1D2
:1003F0000409C9F800800DE0DFF89480A8F1040832
:10040000D8F8008028EA0008DFF88490A9F10409F0
:10041000C9F80080D1F8048008F48038B8F5803F2E
:100420000ED1DFF86C80A8F10808D8F8008048EAFF
:100430000008DFF85C90A9F10809C9F800800DE018
:10044000DFF84C80A8F10808D8F8008028EA0008F6
:10045000DFF83C90A9F10809C9F80080521CD1F8D6
:10046000008028FA02F8B8F1000F7FF489AEBDE8E9
:10047000F887000000001110001002400008014041
:10048000000C014000100140001401400800014030
:10049000080401400AB1016101E00B0403617047E7
:1004A00001480068704700000800002070B504464D
:1004B0000CB9012070BD4CF6CC402168086045F2B3
:1004C000555021680860D4E9001048602168A06890
:1004D0008860FFF7E5FF05460BE0FFF7E1FF401BF3
:1004E000272806D92068C06800F0030008B103205F
:1004F000E0E72068C06800F003000028EDD14AF66C
:10050000AA20216808600020D4E701464AF6AA2004
:100510000A681060002070470348006803490978A2
:1005200008440149086070470800002010000020BE
:1005300010B50848006840F0100006490860032024
:1005400000F080F80F2000F007F800F02BF80020F2
:1005500010BD00000020024070B504460E4800782F
:100560004FF47A71B1FBF0F00C490968B1FBF0F57A
:10057000284600F0D1FB08B1012070BD102C07D235
:1005800000222146501E00F01EF80548046001E0DC
:100590000120F2E70020F0E710000020000000201A
:1005A0000C000020704701460846002809DB00F0D7
:1005B0001F0301229A4043099B0003F1E023C3F883
:1005C000002100BF70472DE9F05F80460D461646BA
:1005D000002700F0EBFD074639462A46334601F076
:1005E0000700C0F1070ABAF1040F02D94FF0040A5C
:1005F00001E0C0F1070AD14600F1040ABAF1070F81
:1006000002D24FF0000A01E0A0F1030AD4464FF0F5
:10061000010A0AFA09FAAAF1010A0AEA020A0AFA1E
:100620000CFA4FF0010B0BFA0CFBABF1010B0BEAD0
:10063000030B4AEA0B042146404600F0BFFDBDE82B
:10064000F09F000000BF00F00702064B19684FF64C
:10065000FF031940044B0B4343EA0221014B19608D
:1006600000BF70470CED00E00000FA0570B50446CD
:100670000D460CB9012070BD5A48006800F0070013
:10068000A8420ED25748006820F007002843554979
:1006900008600846006800F00700A84201D0012069
:1006A000E9E7207800F0020002281DD1207800F050
:1006B0000400042805D14C48406840F4E0604A49F1
:1006C0004860207800F00800082805D146484068B6
:1006D00040F46050444948604348406820F0F000CE
:1006E000A168084340494860207800F0010078B3D1
:1006F0006068012806D13C48006800F4003090B9D9
:100700000120B8E76068022806D13748006800F089
:10071000007040B90120AEE73348006800F00200E5
:1007200008B90120A7E73048406820F0030061685D
:1007300008432D494860FFF7B3FE064609E0FFF77E
:10074000AFFE801B41F28831884202D9032092E734
:1007500007E02548406800F00C006168B0EB810FAD
:10076000EDD12048006800F00700A8420ED91D48CE
:10077000006820F0070028431A490860084600680E
:1007800000F00700A84201D0012074E7207800F0B3
:100790000400042807D11448406820F4E060E168B0
:1007A000084311494860207800F00800082808D163
:1007B0000D48406820F46050216940EAC1000A49B0
:1007C000486000F03FF808494968C1F30311074A3F
:1007D000515CC8400649086006480068FFF7BCFE47
:1007E000002048E700200240001002409815000851
:1007F000000000200C000020014800687047000045
:100800000000002000B5FFF7F7FF04494968C1F375
:100810000221034A515CC84000BD000000100240A4
:10082000A815000800B5FFF7E7FF04494968C1F3C0
:10083000C221034A515CC84000BD000000100240C4
:10084000A815000870B50021002200240023002014
:10085000134D696801F00C05F5B1042D02D0082D87
:1008600019D101E00F4819E00F4DC1F38346AB5D8C
:1008700001F4803555B10A4D6D68C5F340450B4E06
:10088000725D084D5D43B5FBF2F402E0084D03FBD9
:1008900005F4204602E000BF024800BF00BF70BD63
:1008A0000010024000127A00B0150008C0150008C0
:1008B00000093D00F8B504460CB90120F8BD2078C8
:1008C00000F00100002878D0F848406800F00C00E3
:1008D00004280CD0F548406800F00C00082811D11D
:1008E000F248406800F48030B0F5803F0AD1EF480C
:1008F000006800F4003000285FD0606800285CD1F8
:100900000120DBE700BF6068B0F5803F06D1E74813
:10091000006840F48030E549086028E0606858B914
:10092000E248006820F48030E0490860084600682A
:1009300020F4802008601AE06068B0F5A02F0BD189
:10094000DA48006840F48020D8490860084600680A
:1009500040F4803008600AE0D448006820F4803019
:10096000D24908600846006820F48020086000BF73
:10097000606888B1FFF794FD054606E0FFF790FD3B
:10098000401B642801D9032098E7C848006800F498
:1009900000300028F2D010E0FFF782FD054606E0A7
:1009A000FFF77EFD401B642801D9032086E7BF487E
:1009B000006800F400300028F2D1207800F0020036
:1009C000022857D1B948406800F00C0050B1B74830
:1009D000406800F00C00082818D1B448406800F4C2
:1009E000803098B9B148006800F0020020B1206959
:1009F000012801D0012061E7AC48006820F0F80030
:100A0000616940EAC100A949086033E02069E8B1A2
:100A10000120A7490860FFF743FD054606E0FFF700
:100A20003FFD401B022801D9032047E79F4800688B
:100A300000F002000028F2D09C48006820F0F80086
:100A4000616940EAC1009949086013E000209849B3
:100A50000860FFF725FD054606E0FFF721FD401B76
:100A6000022801D9032029E79048006800F002001D
:100A70000028F2D1207800F0080008282DD1A069C4
:100A8000B8B101208B490860FFF70AFD054606E072
:100A9000FFF706FD401B022801D903200EE783481B
:100AA000406A00F002000028F2D0012000F042FA73
:100AB00013E000207F490860FFF7F2FC054606E0DE
:100AC000FFF7EEFC401B022801D90320F6E6774829
:100AD000406A00F002000028F2D1207800F0040003
:100AE000042873D100277148C06900F0805070B9A4
:100AF00000BF6E48C06940F080506C49C86108462C
:100B0000C06900F08050009000BF00BF01276A4814
:100B1000006800F48070B0B96748006840F48070E5
:100B200065490860FFF7BCFC054606E0FFF7B8FC26
:100B3000401B642801D90320C0E65F48006800F428
:100B400080700028F2D000BFE068012806D1574825
:100B5000006A40F001005549086227E0E06858B992
:100B60005248006A20F00100504908620846006AB5
:100B700020F00400086219E0E06805280BD14B481A
:100B8000006A40F00400494908620846006A40F0E3
:100B9000010008620AE04548006A20F0010043496C
:100BA00008620846006A20F00400086200BFE0689E
:100BB000A0B1FFF775FC054609E0FFF771FC401B8B
:100BC00041F28831884202D9032077E622E0374893
:100BD000006A00F002000028EFD012E0FFF760FC8E
:100BE000054608E0FFF75CFC401B41F28831884273
:100BF00001D9032062E62D48006A00F002000028B7
:100C0000F0D1012F05D12948C06920F08050274933
:100C1000C86100BFE069C8B32448406800F00C0018
:100C2000082860D0E069022848D1002020490866E1
:100C3000FFF736FC054606E0FFF732FC401B0228B2
:100C400001D903203AE61948006800F00070002836
:100C5000F2D1206AB0F5803F07D11448406820F4F3
:100C60000030A168084311494860D4E908010843ED
:100C70000E49496821F4741108430C494860012069
:100C80000B490866FFF70CFC054607E03DE0FFF75F
:100C900007FC401B022801D903200FE60348006827
:100CA00000F000700028F2D02FE000000010024099
:100CB000000042428004424200700040002014497B
:100CC0000866FFF7EDFB054606E0FFF7E9FB401B72
:100CD000022801D90320F1E50E48006800F00070F9
:100CE0000028F2D111E0E069012800D1E6E50948C9
:100CF000466806F48031206A814204D106F47011FE
:100D0000606A814201D00120D8E50020D6E50000CC
:100D1000000042420010024070B504462546681E9D
:100D2000B0F1807F01D301200FE0681E4FF0E02179
:100D300048610F214FF0FF3000F040FA00204FF0E3
:100D4000E021886107200861002070BD10B50446CD
:100D50000CB9012010BDA06900B100E000BF94F8FB
:100D6000410028B9002084F84000204600F02AF80D
:100D7000242084F841002068C06820F400502168D5
:100D8000C860204600F0F0F82068006920F4904028
:100D9000216808612068406920F02A0021684861C4
:100DA0002068C06840F400502168C860002060647A
:100DB000202084F8410084F842000020606300BFD6
:100DC000C8E7000010B586B004462549206888426F
:100DD00043D100BF2348806940F004002149886165
:100DE0000846806900F00400019000BF00BF00BF0A
:100DF0000846806940F4804088610846806900F4B4
:100E00008040019000BF00BF48150290022003906F
:100E1000012004900320059002A91348FFF7AAF9C6
:100E20004FF4806002900020039002A90E48FFF763
:100E3000A1F92520FFF7B7FB032211462520FFF774
:100E4000C2FB2068C06840F020002168C8602068AC
:100E5000C06840F010002168C86006B010BD0000F6
:100E60000038014000100240000801402DE9F84F11
:100E700004460E46174699464FF0000A94F8420081
:100E800020284FD106B117B90120BDE8F88F002006
:100E90006064222084F8420000202063FFF700FBFA
:100EA0008246A785E785A068B0F5805F04D12069F8
:100EB00010B90025B04602E035464FF0000829E0A1
:100EC0005346002220212046CDF8009000F0CAF8B9
:100ED00008B10320D9E745B920684068C0F308008D
:100EE000A8F8000008F1020811E0A068B0F5805FE2
:100EF00003D0A06828B9206918B920684068287014
:100F000004E02068406800F07F0028706D1CE08DD0
:100F1000401EE085E08D0028D2D1202084F84200D8
:100F20000020B2E70220B0E700BFFEE700BFFEE707
:100F30007047704708B508490968C9084FF47A72C4
:100F4000B1FBF2F14143009100BF00BF00994A1E7E
:100F500000920029F9D108BD00000020704710B5AB
:100F6000FFF7DAFA10BD704770B5044621680969C9
:100F700021F44051E2681143226811612269A1689D
:100F80001143626941EA02052168C96841F20C62B5
:100F9000914329432268D1602168496921F4407155
:100FA000A2691143226851612D4A2168914202D100
:100FB000FFF738FC01E0FFF725FC00EBC00101EB77
:100FC000001162689200B1FBF2F100EBC00202EB8B
:100FD000001263689B00B2FBF3F26423B2FBF3F2EE
:100FE00002EBC20303EB0212A1EB8201322202EBFD
:100FF00001116422B1FBF2F101F0F00100EBC0023B
:1010000002EB001263689B00B2FBF3F26423B2FBB5
:10101000F3F201EB021200EBC00101EB0011636877
:101020009B00B1FBF3F100EBC00303EB0013666818
:10103000B600B3FBF6F36426B3FBF6F303EBC3068B
:1010400006EB0313A1EB8301322303EB01116423AD
:10105000B1FBF3F101F00F0111442268916070BD02
:10106000003801402DE9F04104460D4617469846E8
:10107000069E34E0701C88B32EB1FFF711FAA0EB86
:101080000800B0422BD900BF00BF21680C3151E8E5
:10109000001F21F4D07021680C3141E80002002AC1
:1010A000F3D100BF00BF00BF2168143151E8001F19
:1010B00021F001002168143141E80002002AF3D137
:1010C00000BF202084F8410084F8420000BF0020C7
:1010D00084F8400000BF0320BDE8F081FFE72068EE
:1010E00000682840A84201D1012000E00020B84259
:1010F000C0D00020F0E700001CB5002001901C4883
:1011000000680068C0F34010B8B11A480088802811
:1011100002D30020174908804FF47A73012201A9F5
:101120001348FFF7A3FE9DF80410124802880088B8
:10113000401C104B1880104881540D48006800680E
:10114000C0F3001090B10C490CA000F01FF800F0A3
:1011500015FA00BF00200090054800680068009064
:10116000034800684068009000BF00BF1CBD00003D
:1011700024000020040000206C00002072656376CB
:101180003A2025730D0A000000BFFEE70FB4054B9F
:1011900010B503A9044A029800F033F810BC5DF8BA
:1011A00014FB0000411300081400002002480068EE
:1011B000C0F30220704700000CED00E010B50028DD
:1011C00004DB0A07130E054A135406E00A07140E3F
:1011D000034A00F00F031B1FD45410BD00E400E0CD
:1011E00018ED00E002E008C8121F08C1002AFAD179
:1011F00070477047002001E001C1121F002AFBD197
:1012000070472DE9F84F99469246884605460027D3
:1012100006E025280AD051464A4690476D1C7F1C9F
:1012200028780028F5D13846BDE8F88F002315F856
:10123000011F18462E2915D115F8011F04232A294C
:101240000DD06FF02F022978A1F13004092C09D8B4
:1012500000EB800002EB400008446D1CF3E758F8F7
:10126000040B6D1C2A78002ADDD0632A07D0732A6C
:101270000FD0104651464A4690477F1C2AE018F886
:10128000042B8DF8002000218DF801106E460121FD
:1012900003E058F8046B4FF0FF315A074FF0000499
:1012A00001D409E0641C84420BDA8C42FADB325D23
:1012B000002AF7D105E0641C8C42FCDB305D00287D
:1012C000F9D1274404E016F8010B51464A469047ED
:1012D000641EF8D26D1CA3E710B5044603E04FF47A
:1012E0007A7000F005F8201EA4F10104F7D110BDBA
:1012F000014601EBC102D2004FF0E0235A61002207
:101300009A611A46126942F004021A611A46126979
:1013100042F001021A6100BF4FF0E022106900F0B4
:1013200001021AB100F48032002AF5D04FF0E02219
:10133000126922F001024FF0E0231A6170470000A9
:1013400000BF054A126802F04002002AF9D0C2B27A
:10135000014B1B1D1A6070470038014010B5024850
:10136000FFF7D3F810BD00001800002070B5044648
:101370000D46044804490860084644608560FFF74C
:1013800095F870BD003000401800002010B5012213
:1013900011020248FFF77EF810BD0000000C01406A
:1013A00010B5012251020248FFF774F810BD000089
:1013B000000C014000B585B000BF0F48806940F0C7
:1013C00008000D4988610846806900F00800009017
:1013D00000BF00BF4FF440700190012002900390C5
:1013E0000320049001A90548FEF7C4FEFFF7CEFFD5
:1013F000FFF7D6FF05B000BD00100240000C014011
:10140000FFF796F84FF4E01000F06EF8FFF7D2FF08
:101410004FF4E13000F09CF840F2E2410320FFF786
:10142000A5FF10A0FFF7B2FE12A0FFF7AFFE1B480A
:10143000406A00F0005030B119A0FFF7A7FE01206C
:101440001C49086002E01CA0FFF7A0FE08E040F283
:10145000DC50FFF741FFFFF781FF1BA0FFF796FE6F
:10146000F5E7000068656C6C6F20776F726C642123
:101470000D0A0000B9B7B6F9B6C7D7D3B6F6C1CBD7
:10148000A3ACD4D9B2BBCEB9CBFCB5C4BBB0BECD36
:10149000D2A7C8CBC1CBA3A10D0A00000010024007
:1014A000B6C0C1A2BFB4C3C5B9B7B8B4CEBBA3A1BF
:1014B0000D0A0000E0044242CDE2B2BFB8B4CEBB98
:1014C000A3A10D0A00000000B9B7B6F9D2D1BEAD94
:1014D000CEB9B1A5C1CBA3ACB2BBBBE1D2A7C8CB3F
:1014E000C1CBA3A10D0A000030B58FB00546012481
:1014F000282105A8FEF71DFE14216846FEF719FEF7
:1015000001200590000406900020079002200C9016
:10151000C1030D910E9505A8FFF7CCF904460CB157
:1015200000BFFEE70F2000900220019000200290F3
:101530004FF4806003900020049002216846FFF77A
:1015400095F804460CB100BFFEE70FB030BD0000B7
:1015500010B5044607480849086008464460002161
:101560008160C160016181610C214161FFF7EEFB87
:1015700010BD0000003801402400002010B580217B
:101580000348FEF7D6FD00200249088010BD000088
:101590006C0000200400002000000000000000009B
:1015A0000102030406070809000000000102030409
:1015B00002030405060708090A0B0C0D0E0F101094
:1015C00001020000E41500080000002018000000DF
:1015D000E4110008FC15000818000020D8040000E1
:1015E000F41100080024F4000000000000000000D6
:0C15F000100000000100000000000000DE
:04000005080000E906
:00000001FF
