:020000040800F2
:10000000280500200101000805160008FD1500085C
:10001000011600086F070008D11800080000000052
:100020000000000000000000000000003116000881
:1000300073070008000000000716000833160008C8
:100040001B0100081B0100081B0100081B01000820
:100050001B0100081B0100081B0100081B01000810
:100060001B0100081B0100081B0100081B01000800
:100070001B0100081B0100081B0100081B010008F0
:100080001B0100081B0100081B0100080000000004
:100090000000000000000000000000001B0100083C
:1000A0000000000000000000000000000000000050
:1000B0001B0100081B0100081B0100081B010008B0
:1000C0001B0100081B0100081B0100081B010008A0
:1000D0001B010008411800081B0100081B01000853
:1000E0001B0100081B010008DFF810D000F0FCFA2B
:1000F00000480047C5230008AFF300802805002012
:100100000648804706480047FEE7FEE7FEE7FEE7B1
:10011000FEE7FEE7FEE7FEE7FEE7FEE73B16000828
:10012000E9000008D2B201E000F8012B491EFBD221
:1001300070470022F6E710B513460A4604461946F2
:10014000FFF7F0FF204610BD2DE9FE4F81EA0304C2
:1001500004F0004421F0004100944FF0000B23F024
:10016000004350EA01045ED052EA03045BD0C3F3BB
:100170000A54C1F30A552C44A4F2F3340194A0FBB1
:100180000254C1F3130141F48011C3F3130343F488
:10019000801301FB024400FB034E840A970A44EAE1
:1001A000815447EA8357A4FB076802958D0A05FB33
:1001B00007854FEA932C04FB0C542705029D4FEA58
:1001C000065847EA1637B5EB08056EEB070C870EA5
:1001D000920E47EA811742EA8312A7FB0201B6EBAF
:1001E0000B0164EB00042B0D43EA0C335E1844EB67
:1001F0001C50DA465146E7FB0201C5F313044FEAEF
:100200000B3343EA14534FEA0432019C43EA0603DA
:10021000A4F10C040294009CCDE900B400F0CFF8E6
:1002200003B0BDE8F08F00200146F9E70EB540F2BB
:10023000334102910021CDE900110A460B4600F03E
:10024000BEF803B000BD00F0004230F000400AD01C
:10025000C10D01F56071C0F3160042EA0151C208F8
:1002600040071143704700200146704701F00043EA
:1002700030B421F0004150EA010206D00A0DA2F587
:100280006072C1F31301002A02DC30BC0020704709
:10029000440F44EAC104C100E01830BC00EBC25076
:1002A00000F047B830B50B4601460020202201245B
:1002B00009E021FA02F59D4205D303FA02F5491B34
:1002C00004FA02F52844151EA2F10102F1DC30BD4A
:1002D0002DE9F05F0546002092469B46884606467B
:1002E000814640241BE0284641464746224600F00E
:1002F0001CFA53465A46C01A914110D3114618466B
:10030000224600F003FA2D1A67EB01084F462246F9
:100310000120002100F0FAF917EB00094E41201EE0
:10032000A4F10104DFDC484631462A464346BDE8D5
:10033000F09F0029A8BF7047401C490008BF20F06B
:100340000100704710B4B0FA80FC00FA0CF050EADB
:10035000010404BF10BC704749B1CCF1200421FA5C
:1003600004F411FA0CF118BF012121430843A3EB57
:100370000C01CB1D4FEA00614FEA102042BF002064
:1003800010BC704700EBC35010440029A4BF10BC40
:100390007047401C490008BF20F0010010BC7047A6
:1003A00010B5141E73F1000408DA401C41F100017D
:1003B00092185B411A4301D120F0010010BD2DE9D4
:1003C000F04D92469B4611B1B1FA81F202E0B0FACB
:1003D00080F22032904600F099F904460F4640EA38
:1003E0000A0041EA0B0153465A46084313D011460E
:1003F00053EA010019D0C8F14002504600F095F9C7
:1004000005460E4650465946424600F07FF90843DD
:1004100005D0012004E020463946BDE8F08D0020DB
:10042000054346EAE0762C4337430A986305E40A1D
:10043000A0EB08000022FD0A44EA47540A3002D526
:1004400000200146E9E7010510196941DDE9084589
:1004500000196941BDE8F04DA2E72DE9FE4F804645
:1004600081EA0300C00F0C46009021F0004123F008
:100470000045B8EB0200A94105D24046214690460E
:100480001C460B46024623F00040104347D0270D80
:10049000C7F30A00C3F30A510290401A01904028A2
:1004A0006BDAC3F3130040F4801B0098924620B12E
:1004B0000023D2EB030A63EB0B0B01985946C0F102
:1004C0004002504600F022F906460D465046594675
:1004D000019A00F03AF910EB08006141002487EA24
:1004E000115284EAE7731A4340D0009A62B3019A2A
:1004F000012A4FEA075215DC001B61EB02014FF0A5
:10050000004202EA0752CDE90042001C41F5801189
:1005100032462B46FFF753FF03B0BDE8F08F40464D
:100520002146F9E7001B61EB0201001C41F5801335
:1005300000185B412018A2F5001747EB030140EAC1
:10054000D570B6196D4111E06D084FEA360645EADF
:10055000C0754FEA0752001B61EB0201001C41F518
:10056000801149084FEA30000019514132462B46AC
:1005700003B0BDE8F04FFFF713BF00980122400021
:100580000023D0EB020263EBE073009821464FEAB0
:10059000E074B8EB000061EB0401E9E783F000438D
:1005A0005BE781F0004158E72DE9F04D81EA030453
:1005B00004F0004B21F0004514464FF0000A23F0F0
:1005C000004150EA050220D054EA01021DD0C5F3D3
:1005D0000A570246C5F31303C1F31300C1F30A56C9
:1005E00040F4801543F48013A7EB0608101BD64691
:1005F00008F2FD3873EB050002D308F1010801E0B1
:1006000092185B41B8F1000F03DA00200146BDE803
:10061000F08D00204FF48011064684460EE0171B33
:1006200073EB050705D3121B63EB050306434CEA86
:10063000010C49084FEA300092185B4150EA01076B
:10064000EDD152EA030012D082EA040083EA0501E8
:10065000084305D0101BAB4106D20122002306E05F
:1006600000224FF0004302E06FF0010253101AEB3A
:1006700006004CEB085110EB0A0041EB0B01BDE802
:10068000F04DFFF78DBEC1F30A52C1F3130140F2E2
:10069000FF3341F480119A4202DA0020014670478C
:1006A00040F233439A42A2F2334202DC524200F05B
:1006B0003CB800F02BB8000030B5041E71F1000406
:1006C00004DB4FF00044404264EB0101141E73F15F
:1006D000000405DB1C464FF00043524263EB040369
:1006E000994208BF904230BD064C074D06E0E068D5
:1006F00040F0010394E8070098471034AC42F6D369
:10070000FFF7F6FC6425000884250008202A04DB96
:10071000203A00FA02F1002070479140C2F1200314
:1007200020FA03F3194390407047202A04DB203A53
:1007300021FA02F00021704721FA02F3D040C2F101
:1007400020029140084319467047202A06DBCB1748
:10075000203A41FA02F043EAE07306E041FA02F37C
:10076000D040C2F12002914008431946704700BFB3
:10077000FEE770472DE9F8470346002294466EE1F4
:100780004FF0010808FA02F4D1F8008008EA0400EA
:10079000A0427DD1DFF8DCA2D1F80480A8EB0A09E1
:1007A000D0453AD014DCB8F1030F50D009DCB8F1D1
:1007B000000F31D0B8F1010F1CD0B8F1020F49D1B0
:1007C00020E0B8F1110F18D0B8F1120F42D11EE09D
:1007D000B9F5881F25D006DCB9F5803F20D0B9F5E2
:1007E000801F37D11AE0B9F5001F18D0B9F5041FE2
:1007F00030D117E0D1F80CC02DE0D1F80C8008F111
:10080000040C28E0D1F80C8008F1080C23E0D1F8A2
:100810000C8008F10C0C1EE000BF00BF00BF00BF41
:1008200000BF00BFD1F80880B8F1000F02D14FF02F
:10083000040C0BE0D1F80880B8F1010F03D14FF0A0
:10084000080C1C6102E04FF0080C5C6103E04FF003
:10085000000C00E000BF00BFFF2801D8984601E06F
:1008600003F104084646FF2802D84FEA820803E055
:10087000A2F108084FEA88084746D6F800804FF0F2
:100880000F0909FA07F928EA09080CFA07F900E044
:1008900088E048EA0908C6F80080D1F8048008F02A
:1008A0008058B8F1805F7DD100BFDFF8CC81D8F8E7
:1008B000188048F00108DFF8C091C9F81880C846D0
:1008C000D8F8188008F00108CDF8008000BF00BFFC
:1008D0004FEAB9384FEA920958F829504FEA82781E
:1008E0004FEA18794FF00F0808FA09F825EA0805C9
:1008F000DFF88881434502D14FF0000816E0DFF8A9
:100900008081434502D14FF001080FE0DFF8748188
:10091000434502D14FF0020808E0DFF86C814345FF
:1009200002D14FF0030801E04FF004084FEA82794A
:100930004FEA197908FA09F848EA0505DFF84C8109
:100940004FEA920948F82950D1F8048008F4801839
:10095000B8F5801F0AD1DFF83881D8F8008048EA5E
:100960000008DFF82C91C9F8008009E0DFF8208149
:10097000D8F8008028EA0008DFF81491C9F8008050
:10098000D1F8048008F40018B8F5001F10D1DFF882
:10099000008108F10408D8F8008048EA0008DFF870
:1009A000F09000E05AE009F10409C9F800800DE078
:1009B000DFF8DC8008F10408D8F8008028EA000895
:1009C000DFF8CC9009F10409C9F80080D1F804805F
:1009D00008F40038B8F5003F0ED1DFF8B480A8F174
:1009E0000408D8F8008048EA0008DFF8A490A9F1CC
:1009F0000409C9F800800DE0DFF89480A8F104082C
:100A0000D8F8008028EA0008DFF88490A9F10409EA
:100A1000C9F80080D1F8048008F48038B8F5803F28
:100A20000ED1DFF86C80A8F10808D8F8008048EAF9
:100A30000008DFF85C90A9F10809C9F800800DE012
:100A4000DFF84C80A8F10808D8F8008028EA0008F0
:100A5000DFF83C90A9F10809C9F80080521CD1F8D0
:100A6000008028FA02F8B8F1000F7FF489AEBDE8E3
:100A7000F88700000000111000100240000801403B
:100A8000000C01400010014000140140080001402A
:100A900008040140024693680B400BB1012000E0BE
:100AA000002070470AB1016101E00B040361704747
:100AB00001480068704700000800002003480068F3
:100AC000034909780844014908607047080000207C
:100AD0001000002010B50848006840F010000649DA
:100AE0000860032000F080F80F2000F007F800F005
:100AF0002BF8002010BD00000020024070B5044615
:100B00000E4800784FF47A71B1FBF0F00C49096897
:100B1000B1FBF0F5284600F0D1FB08B1012070BD13
:100B2000102C07D200222146501E00F01EF8054866
:100B3000046001E00120F2E70020F0E7100000204F
:100B4000000000200C0000207047014608460028E5
:100B500009DB00F01F0301229A4043099B0003F1C7
:100B6000E023C3F8002100BF70472DE9F05F804605
:100B70000D461646002700F0BDFE074639462A46B8
:100B8000334601F00700C0F1070ABAF1040F02D999
:100B90004FF0040A01E0C0F1070AD14600F1040A4F
:100BA000BAF1070F02D24FF0000A01E0A0F1030AE8
:100BB000D4464FF0010A0AFA09FAAAF1010A0AEA30
:100BC000020A0AFA0CFA4FF0010B0BFA0CFBABF11C
:100BD000010B0BEA030B4AEA0B042146404600F0E6
:100BE00091FEBDE8F09F000000BF00F00702064B39
:100BF00019684FF6FF031940044B0B4343EA0221E7
:100C0000014B196000BF70470CED00E00000FA05D1
:100C100070B504460D460CB9012070BD5A480068F5
:100C200000F00700A8420ED25748006820F00700E5
:100C30002843554908600846006800F00700A842AC
:100C400001D00120E9E7207800F0020002281DD140
:100C5000207800F00400042805D14C48406840F496
:100C6000E0604A494860207800F00800082805D173
:100C70004648406840F460504449486043484068F2
:100C800020F0F000A168084340494860207800F057
:100C9000010078B36068012806D13C48006800F480
:100CA000003090B90120B8E76068022806D13748C3
:100CB000006800F0007040B90120AEE733480068DA
:100CC00000F0020008B90120A7E73048406820F092
:100CD0000300616808432D494860FFF7E9FE0646B6
:100CE00009E0FFF7E5FE801B41F28831884202D916
:100CF000032092E707E02548406800F00C00616897
:100D0000B0EB810FEDD12048006800F00700A84249
:100D10000ED91D48006820F0070028431A490860D2
:100D20000846006800F00700A84201D0012074E7DF
:100D3000207800F00400042807D11448406820F40B
:100D4000E060E168084311494860207800F008003D
:100D5000082808D10D48406820F46050216940EA15
:100D6000C1000A49486000F03FF808494968C1F3EA
:100D70000311074A515CC8400649086006480068EC
:100D8000FFF7BCFE002048E70020024000100240B0
:100D900038250008000000200C00002001480068F1
:100DA000704700000000002000B5FFF7F7FF04497E
:100DB0004968C1F30221034A515CC84000BD0000EC
:100DC000001002404825000800B5FFF7E7FF04497E
:100DD0004968C1F3C221034A515CC84000BD00000C
:100DE000001002404825000870B5002100220024B0
:100DF00000230020134D696801F00C05F5B1042DA6
:100E000002D0082D19D101E00F4819E00F4DC1F3B0
:100E10008346AB5D01F4803555B10A4D6D68C5F36D
:100E200040450B4E725D084D5D43B5FBF2F402E0A8
:100E3000084D03FB05F4204602E000BF024800BF56
:100E400000BF70BD0010024000127A00502500085B
:100E50006025000800093D00F8B504460CB90120E2
:100E6000F8BD207800F00100002878D0F8484068EC
:100E700000F00C0004280CD0F548406800F00C008D
:100E8000082811D1F248406800F48030B0F5803F66
:100E90000AD1EF48006800F4003000285FD0606895
:100EA00000285CD10120DBE700BF6068B0F5803F1F
:100EB00006D1E748006840F48030E549086028E042
:100EC000606858B9E248006820F48030E049086062
:100ED0000846006820F4802008601AE06068B0F5D9
:100EE000A02F0BD1DA48006840F48020D849086070
:100EF0000846006840F4803008600AE0D448006882
:100F000020F48030D24908600846006820F4802030
:100F1000086000BF606888B1FFF7CAFD054606E0BB
:100F2000FFF7C6FD401B642801D9032098E7C84895
:100F3000006800F400300028F2D010E0FFF7B8FDA0
:100F4000054606E0FFF7B4FD401B642801D90320E5
:100F500086E7BF48006800F400300028F2D120780E
:100F600000F00200022857D1B948406800F00C0098
:100F700050B1B748406800F00C00082818D1B448B8
:100F8000406800F4803098B9B148006800F0020071
:100F900020B12069012801D0012061E7AC48006838
:100FA00020F0F800616940EAC100A949086033E017
:100FB0002069E8B10120A7490860FFF779FD0546DF
:100FC00006E0FFF775FD401B022801D9032047E723
:100FD0009F48006800F002000028F2D09C4800689A
:100FE00020F0F800616940EAC1009949086013E007
:100FF000002098490860FFF75BFD054606E0FFF713
:1010000057FD401B022801D9032029E790480068BA
:1010100000F002000028F2D1207800F00800082833
:101020002DD1A069B8B101208B490860FFF740FDC0
:10103000054606E0FFF73CFD401B022801D90320CE
:101040000EE78348406A00F002000028F2D0012039
:1010500000F0DAFA13E000207F490860FFF728FD6E
:10106000054606E0FFF724FD401B022801D90320B6
:10107000F6E67748406A00F002000028F2D12078B6
:1010800000F00400042873D100277148C06900F003
:10109000805070B900BF6E48C06940F080506C4904
:1010A000C8610846C06900F08050009000BF00BFD2
:1010B00001276A48006800F48070B0B9674800688A
:1010C00040F4807065490860FFF7F2FC054606E0D1
:1010D000FFF7EEFC401B642801D90320C0E65F48FF
:1010E000006800F480700028F2D000BFE06801289A
:1010F00006D15748006A40F001005549086227E0D0
:10110000E06858B95248006A20F00100504908626E
:101110000846006A20F00400086219E0E06805282B
:101120000BD14B48006A40F0040049490862084668
:10113000006A40F0010008620AE04548006A20F0B9
:101140000100434908620846006A20F00400086272
:1011500000BFE068A0B1FFF7ABFC054609E0FFF770
:10116000A7FC401B41F28831884202D9032077E670
:1011700022E03748006A00F002000028EFD012E0B9
:10118000FFF796FC054608E0FFF792FC401B41F292
:101190008831884201D9032062E62D48006A00F0B8
:1011A00002000028F0D1012F05D12948C06920F0A4
:1011B00080502749C86100BFE069C8B3244840682F
:1011C00000F00C00082860D0E069022848D1002017
:1011D00020490866FFF76CFC054606E0FFF768FC4F
:1011E000401B022801D903203AE61948006800F0A4
:1011F00000700028F2D1206AB0F5803F07D1144872
:10120000406820F40030A168084311494860D4E9DF
:10121000080108430E49496821F4741108430C4938
:10122000486001200B490866FFF742FC054607E0CD
:101230003DE0FFF73DFC401B022801D903200FE6EB
:101240000348006800F000700028F2D02FE0000092
:101250000010024000004242800442420070004000
:10126000002014490866FFF723FC054606E0FFF757
:101270001FFC401B022801D90320F1E50E4800683D
:1012800000F000700028F2D111E0E069012800D1DF
:10129000E6E50948466806F48031206A814204D1B7
:1012A00006F47011606A814201D00120D8E5002067
:1012B000D6E50000000042420010024070B504462E
:1012C0002546681EB0F1807F01D301200FE0681E23
:1012D0004FF0E02148610F214FF0FF3000F012FB8A
:1012E00000204FF0E021886107200861002070BDD8
:1012F00010B504460CB9012010BD94F83D0028B982
:10130000002084F83C00204600F026F8022084F8F3
:101310003D00211D206800F091F9012084F846006D
:1013200000BF84F83E0001213F20015540200155B7
:101330004120015500BF00BF012084F84200432036
:101340000155442001554520015500BF012084F876
:101350003D000020D0E7000008B50168B1F1804FE2
:101360000DD100BF0649C96941F00101044AD161AC
:101370001146C96901F00101009100BF00BF08BD1D
:1013800000100240014691F83D00012801D00120E3
:101390007047022081F83D00124B086898420BD03C
:1013A0000868B0F1804F07D00F4B0868984203D00F
:1013B0000E4B086898420CD10868806800F007025C
:1013C000062A0CD00868006840F001000B6818601D
:1013D00005E00868006840F001000B681860002014
:1013E000D6E70000002C0140000400400008004047
:1013F000014600BF0868006A41F21112104050B95E
:101400000868006A9210104028B90868006820F047
:1014100001000A68106000BF012081F83D00002033
:10142000704710B504460CB9012010BDA06900B189
:1014300000E000BF94F8410028B9002084F8400083
:10144000204600F029F8242084F841002068C06874
:1014500020F400502168C860204600F029F9206877
:10146000006920F49040216808612068406920F0FC
:101470002A00216848612068C06840F40050216853
:10148000C86000206064202084F8410084F8420095
:101490000020606300BFC8E710B586B00446254948
:1014A0002068884243D100BF2348806940F004008F
:1014B000214988610846806900F00400019000BF5E
:1014C00000BF00BF0846806940F48040886108463C
:1014D000806900F48040019000BF00BF4815029071
:1014E00002200390012004900320059002A91348D4
:1014F000FFF740F94FF4806002900020039002A9AA
:101500000E48FFF737F92520FFF71FFB032211468E
:101510002520FFF72AFB2068C06840F020002168E2
:10152000C8602068C06840F010002168C86006B03C
:1015300010BD0000003801400010024000080140CA
:101540002DE9F84F04460E46174699464FF0000A1B
:1015500094F8420020284FD106B117B90120BDE808
:10156000F88F00206064222084F84200002020636D
:10157000FFF79EFA8246A785E785A068B0F5805FF1
:1015800004D1206910B90025B04602E035464FF07D
:10159000000829E05346002220212046CDF8009083
:1015A00000F004F908B10320D9E745B92068406884
:1015B000C0F30800A8F8000008F1020811E0A068D4
:1015C000B0F5805F03D0A06828B9206918B92068F9
:1015D0004068287004E02068406800F07F002870B0
:1015E0006D1CE08D401EE085E08D0028D2D12020CA
:1015F00084F842000020B2E70220B0E700BFFEE717
:1016000000BFFEE77047704708B508490968C90878
:101610004FF47A72B1FBF2F14143009100BF00BF79
:1016200000994A1E00920029F9D108BD000000204F
:10163000704710B5FFF742FA10BD704710B5026849
:10164000184B984208D0B0F1804F05D0164B984205
:1016500002D0164B984203D122F070024B681A4315
:10166000104B984208D0B0F1804F05D00E4B9842F5
:1016700002D00E4B984203D122F44072CB681A4339
:1016800022F080034C6943EA040202608B68C36263
:101690000B688362034B984201D10B6903630123FA
:1016A000436110BD002C01400004004000080040D0
:1016B00070B504462168096921F44051E26811437C
:1016C000226811612269A1681143626941EA020539
:1016D0002168C96841F20C62914329432268D160B4
:1016E0002168496921F44071A2691143226851615E
:1016F0002D4A2168914202D1FFF766FB01E0FFF716
:1017000053FB00EBC00101EB001162689200B1FBDA
:10171000F2F100EBC00202EB001263689B00B2FB27
:10172000F3F26423B2FBF3F202EBC20303EB021207
:10173000A1EB8201322202EB01116422B1FBF2F132
:1017400001F0F00100EBC00202EB001263689B00A5
:10175000B2FBF3F26423B2FBF3F201EB021200EBF3
:10176000C00101EB001163689B00B1FBF3F100EBDA
:10177000C00303EB00136668B600B3FBF6F3642600
:10178000B3FBF6F303EBC30606EB0313A1EB8301F4
:10179000322303EB01116423B1FBF3F101F00F01DC
:1017A00011442268916070BD003801402DE9F0417C
:1017B00004460D4617469846069E34E0701C88B3D2
:1017C0002EB1FFF775F9A0EB0800B0422BD900BF8E
:1017D00000BF21680C3151E8001F21F4D07021684E
:1017E0000C3141E80002002AF3D100BF00BF00BF66
:1017F0002168143151E8001F21F0010021681431E3
:1018000041E80002002AF3D100BF202084F8410003
:1018100084F8420000BF002084F8400000BF03208D
:10182000BDE8F081FFE7206800682840A84201D1A8
:10183000012000E00020B842C0D00020F0E7000006
:101840001CB5002001901C4800680068C0F34010DF
:10185000B8B11A480088802802D3002017490880B0
:101860004FF47A73012201A91348FFF769FE9DF82E
:101870000410124802880088401C104B1880104841
:1018800081540D4800680068C0F3001090B10C4905
:101890000CA000F01FF800F041FE00BF00200090F7
:1018A00005480068006800900348006840680090A0
:1018B00000BF00BF1CBD000060000020040000202D
:1018C000A8000020726563763A2025730D0A000097
:1018D00000BFFEE70FB4054B10B503A9044A0298F8
:1018E00000F0F6F810BC5DF814FB00003D22000883
:1018F0001400002002480068C0F302207047000076
:101900000CED00E010B5002804DB0A07130E054AB1
:10191000135406E00A07140E034A00F00F031B1FBE
:10192000D45410BD00E400E018ED00E002E008C867
:10193000121F08C1002AFAD170477047002001E049
:1019400001C1121F002AFBD1704700002DE9FF5F83
:1019500082B00021DDE90430020DDDF840B0034320
:1019600018D044F61050A2F2FF32424315141198D9
:1019700001281FD0A5EB0B00401C5FEA000A4FF0C6
:1019800000064E4FDFF83891B046504615D5CAF1E3
:10199000000413E0119801244AA3012801D16FEA41
:1019A0000B010298119AC0E90031C0E9024206B069
:1019B000BDE8F09FCBF10000DFE704460021404A7C
:1019C000491842EB0450CDE9001012E0E00707D0BF
:1019D00032463B4640464946FEF7B6FB80468946BE
:1019E00032463B4610461946FEF7AEFB06460F460A
:1019F0006410002CEAD1DDE90401DDE90023BAF12D
:101A0000000F06DAFEF7A0FB42464B46FEF79CFBB2
:101A100005E0FEF7C9FD42464B46FEF7C5FD04460C
:101A20000E460022284BFEF747FE03D84FF0FF304A
:101A3000014607E00022254B20463146FEF70DFD0A
:101A4000FEF721FE102409E0002C0ADB0A22002305
:101A5000FEF73EFC039B30321A55641E50EA010229
:101A6000F2D1641C039AC4F111031444119A012A9F
:101A700003D0012208430DD10AE0084304D000201E
:101A80004FF0110B119072E7A3EB0B056D1E0DE0EB
:101A90005B4504DD4FF0000205F1010504E003DAC7
:101AA0004FF00002A5F10105002AECD0029811992F
:101AB000C0E90231C0E9004579E7000000001440A8
:101AC0000000F03F300000000000F0430000E03F65
:101AD0002DE9FF4F95B09A46884606460025EEE16F
:101AE000252877D100242746F94A0121039400E0F4
:101AF000044316F8013F203B01FA03F01042F7D1EE
:101B000030782A2811D06FF02F033078A0F13002FE
:101B1000092A16D8039A44F0020402EB820203EB6E
:101B200042021044761C0390EFE758F8042B03920E
:101B3000002A03DA504244F40054039044F00204B3
:101B4000761C30782E2816D116F8010F44F00404C4
:101B50002A280DD06FF02F023078A0F13003092B26
:101B600009D807EB870302EB4303C718761CF3E79A
:101B700058F8047B761C30786C280FD006DC4C2893
:101B800017D068280DD06A2814D104E0742810D02A
:101B90007A280FD10DE044F400140AE044F48014D4
:101BA00001E044F440147278824202D104F58014BA
:101BB000761C761C307866280BD013DC582877D03A
:101BC00009DC002875D04528F6D04628F4D04728EF
:101BD0001AD193E118E0632835D0642879D06528BC
:101BE00012D18BE1702873D008DC6728F1D0692806
:101BF0006FD06E280DD06F2806D1ACE073282CD0A2
:101C0000752874D0782853D05246179990476D1C88
:101C100054E1C4F30250022809D003280DD0D8F8AB
:101C2000001004280DD00D6008F1040846E1D8F832
:101C30000010EA17C1E90052F6E7D8F800100D804D
:101C4000F2E70D70F0E718F8041B8DF80010002083
:101C50008DF80100EB46012003E058F804BB4FF07B
:101C6000FF3061074FF0000102D40DE009F10101DE
:101C70008946B9420FDA8145F8DB1BF809100029C3
:101C8000F4D108E009F1010189468142FADB1BF831
:101C900009100029F6D103985346A0EB0907214605
:101CA0003846179A00F080FA284400EB090507E04F
:101CB00044E008E10DE01BF8010B524617999047EC
:101CC000B9F10109F7D2534621463846179AF2E096
:101CD00039E00A21C4F302524FF0000B0091022AAE
:101CE00006D058F8040BC117032A09D00AE023E0F4
:101CF00008F1070020F00702F2E80201904605E033
:101D000000B2C117042A01D140B2C117002906DA76
:101D10000A460021404261EB02012D2202E0220529
:101D200004D52B228DF80420012203E0E20701D024
:101D30002022F7E7914657E00A2100E010214FF0FA
:101D4000000B00910BE010214FF0000B44F0040455
:101D50000827009103E008204FF0000B0090C4F327
:101D60000252022A05D058F8040B0021032A08D099
:101D700008E008F1070020F00702F2E802019046AF
:101D800003E080B2042A00D1C0B24FF0000922075C
:101D90002AD53278702A07D0DDF800C08CF0100CFC
:101DA0005CEA0B0C05D00EE040228DF804200122E5
:101DB00008E050EA010306D030238DF804308DF896
:101DC000052002229146009B83F0080353EA0B038F
:101DD0000AD150EA010201D1620705D530228DF8FF
:101DE00004204FF001097F1E3278582A04D039A20E
:101DF0000C920CAA02920BE03BA2F9E75B46009A18
:101E0000FEF766FA0C9B9B5C029A521E02921370BC
:101E100050EA0102F2D1029804A9081A00F1200B3D
:101E2000600702D524F4803400E001275F4502DD1D
:101E3000A7EB0B0000E0002000EB0B0100900398E3
:101E40004944401A0390E00306D453462146179AAA
:101E5000039800F0A9F90544002706E001A85246BE
:101E6000C05D179990476D1C7F1C4F45F6DBE00362
:101E70000CD553462146179A039800F095F905446E
:101E800004E030205246179990476D1C0099481E77
:101E900000900029F5DC08E002980299524600788B
:101EA000491C0291179990476D1CBBF10001ABF1E1
:101EB000010BF1DC5BE100F065F90544761C30783C
:101EC00000287FF40DAE19B02846BDE8F08F000061
:101ED0000928010030313233343536373839616200
:101EE00063646566000000003031323334353637C4
:101EF000383941424344454600000000600700D4A1
:101F0000062708F1070020F00700F0E802238046CA
:101F100003F0004C5FEA0C0001D097A009E0200517
:101F200001D596A005E0E00701D095A001E0AFF251
:101F30004C001390307823F0004365280CD006DC69
:101F4000452809D046281DD047287FD13BE0662888
:101F500018D067287AD136E00021112F01DB11203B
:101F600000E0781CCDE9000104A90CA8FFF7EEFC05
:101F7000DDE90D010C9A4FF0000B07F101091092F9
:101F800000914EE04FF000400097CDE9011004A908
:101F90000CA8FFF7DBFCDDE90D020C9B0F994FF05D
:101FA000000B91461093009211B9791C00EB0109C6
:101FB000B7EB090003D4C0F1FF3B07F10109A9EB1E
:101FC0000700019042E0012F00DA01270021112FC4
:101FD00001DD112000E03846CDE9000104A90CA87C
:101FE000FFF7B4FCDDE90D010C9A00914FF0000BF6
:101FF000B946109221070FD4009A4A4503DA914658
:1020000001E0A9F10109B9F1010F05DD109AA9F16B
:102010000101515C3029F4D0B84202DA10F1040F0A
:1020200003DA0121CDE9011010E0002803DC83442C
:10203000A9EB000102E0411C494500DD8946A0EB07
:102040000B00401C01904FF000400290200705D487
:102050000198484502DB4FF0FF30019000208DF8D9
:102060004B0002980DF14B07B0F1004F25D0022034
:102070000C902B200D90029800280CDA4042029020
:102080002D200D9007E00A210298FEF70BF9303160
:10209000029007F8011D0C99481E0C900029F2DCF3
:1020A00002980028EFD1791E0D980870307800F062
:1020B000200040F0450007F8020D11A8C01BC01D0C
:1020C00002901398007800B1012000EB09010198FB
:1020D00001EBE071029801440398401A401E0390FE
:1020E000E00306D453462146179A039800F05CF8A3
:1020F00005441398007818B15246179990476D1C03
:10210000E00323D553462146179A039800F04CF874
:1021100005441BE0BBF1000F07DB0098584504DDC8
:102120001098179910F80B0001E0179930205246CB
:10213000904701980BF1010B401E05F1010501903C
:1021400004D12E205246179990476D1CB9F1000119
:10215000A9F10109DEDC05E017F8010B52461799D9
:1021600090476D1C0299481E02900029F4DC5346EA
:102170002146179A03989EE62D0000002B000000D0
:10218000200000002DE9F041044600251E461746B8
:10219000880404D405E039462020B0476D1C641E35
:1021A000F9D52846BDE8F0812DE9F0410446002527
:1021B0001E469046C80301D5302700E0202788043A
:1021C00004D505E041463846B0476D1C641EF9D57C
:1021D0002846BDE8F08110B5044603E04FF47A705C
:1021E00000F005F8201EA4F10104F7D110BD01464E
:1021F00001EBC102D2004FF0E0235A6100229A6144
:102200001A46126942F004021A611A46126942F033
:1022100001021A6100BF4FF0E022106900F00102D4
:102220001AB100F48032002AF5D04FF0E022126992
:1022300022F001024FF0E0231A61704700BF054A07
:10224000126802F04002002AF9D0C2B2014B1B1DF5
:102250001A607047003801402DE9F0470024A1467C
:10226000012240211848FEF71DFC0F20FFF7BFFF99
:10227000002240211448FEF715FC00BF80211248BF
:10228000FEF708FC0028F9D000F022F9002000F049
:1022900019F900BF80210C48FEF7FCFB0128F9D09A
:1022A00000F01EF900F0F2F804462046FDF7BEFFEC
:1022B0000746064A064BFDF747FF0546FDF7D6FFE2
:1022C00081464846BDE8F087000C0140006F81045C
:1022D000C58F913F00B585B000BF1848806940F0B8
:1022E0000800164988610846806900F008000090DF
:1022F00000BF00BF00BF0846806940F00800886149
:102300000846806900F00800009000BF00BF402030
:10231000019001200290002003900320049001A965
:102320000748FEF727FA802001900020029001A9BB
:102330000348FEF71FFA05B000BD00000010024080
:10234000000C014010B500F0A9F8FFF7C3FF10BD65
:1023500010B5012211020248FEF7A4FB10BD0000D7
:10236000000C014010B5012251020248FEF79AFB11
:1023700010BD0000000C014000B585B000BF0F4843
:10238000806940F008000D4988610846806900F0C6
:102390000800009000BF00BF4FF440700190012082
:1023A000029003900320049001A90548FEF7E2F98A
:1023B000FFF7CEFFFFF7D6FF05B000BD00100240CB
:1023C000000C0140FEF786FB4FF4E01000F02AF805
:1023D000FFF7D2FF4FF4E13000F08AF8FFF7B2FFC9
:1023E00009A0FFF777FA0EE0FFF736FF0646FDF784
:1023F0002AFF044622460B4607A0FFF76BFA4FF46C
:102400007A70FFF7E8FEEFE768656C6C6F20776F16
:10241000726C64210D0A00006469733A20252E3223
:10242000660D0A0030B58FB005460124282105A8A5
:10243000FDF77FFE14216846FDF77BFE0120059025
:10244000000406900020079002200C90C1030D911B
:102450000E9505A8FEF700FD04460CB100BFFEE78F
:102460000F20009002200190002002904FF4806025
:1024700003900020049002216846FEF7C9FB044641
:102480000CB100BFFEE70FB030BD0000024800688D
:10249000406A80B2704700001800002010B54FF06D
:1024A000804007490860472048604FF6FF710448A4
:1024B000C160002181608161FEF71AFF10BD00003C
:1024C0001800002001490968486270471800002080
:1024D00010B50248FEF756FF10BD0000180000209E
:1024E00010B50248FEF784FF10BD00001800002060
:1024F00010B50446074808490860084644600021B2
:102500008160C160016181610C214161FEF789FF39
:1025100010BD0000003801406000002010B580218F
:102520000348FDF706FE00200249088010BD0000A8
:10253000A8000020040000200000000000000000AF
:102540000102030406070809000000000102030459
:1025500002030405060708090A0B0C0D0E0F1010E4
:10256000010200008425000800000020180000007F
:102570002C1900089C2500081800002010050000F8
:102580003C1900080024F4000000000000000000D6
:0C2590001000000001000000000000002E
:04000005080000E906
:00000001FF
