:020000040800F2
:100000001009002001010008851000087D1000087B
:10001000811000086D010008251400080000000090
:10002000000000000000000000000000B110000807
:100030009D0100080000000087100008B3100008B0
:100040001B0100081B0100081B0100081B01000820
:100050001B0100081B0100081B0100081B01000810
:100060001B0100081B0100081B0100081B01000800
:100070001B0100081B0100081B0100081B010008F0
:100080001B0100081B0100081B0100080000000004
:100090000000000000000000000000001B0100083C
:1000A0000000000000000000000000000000000050
:1000B0001B0100081B0100081B0100081B010008B0
:1000C0001B0100081B0100081B0100081B010008A0
:1000D0001B010008951300081B0100081B01000804
:1000E0001B0100081B010008DFF810D000F02CF8FD
:1000F00000480047FD160008AFF3008010090020FB
:100100000648804706480047FEE7FEE7FEE7FEE7B1
:10011000FEE7FEE7FEE7FEE7FEE7FEE7BB100008AE
:10012000E9000008D2B201E000F8012B491EFBD221
:1001300070470022F6E710B513460A4604461946F2
:10014000FFF7F0FF204610BD064C074D06E0E068C3
:1001500040F0010394E8070098471034AC42F6D30E
:10016000FFF7C6FF401800086018000800BFFEE750
:1001700030B590F840500124AC40C56B6C60046809
:1001800063604468102C04D10468A2600468E160D4
:1001900003E00468A1600468E26030BD70470000BD
:1001A0000146002209B901207047164B0868C01AA1
:1001B0001423B0FBF3F08000086412480838C863C9
:1001C000022081F821000868026843F6F07082433B
:1001D000D1E901031843CB6818430B6918434B69F5
:1001E00018438B691843CB691843024308680260BF
:1001F00000208863012081F82100002081F8200080
:1002000000BFD1E7080002402DE9F04104460D4649
:1002100016461F464FF0000800BF94F82000012842
:1002200002D10220BDE8F081012084F8200000BF47
:1002300094F8210001282CD1022084F8210000200C
:10024000A0632068006820F00100216808603B4638
:10025000324629462046FFF78BFFE06A30B120681E
:10026000006840F00E00216808600BE0206800681C
:1002700020F00400216808602068006840F00A004F
:10028000216808602068006840F00100216808606B
:1002900006E000BF002084F8200000BF4FF00208F5
:1002A0004046BFE72DE9F8470346002294466EE139
:1002B0004FF0010808FA02F4D1F8008008EA0400BF
:1002C000A0427DD1DFF8DCA2D1F80480A8EB0A09B6
:1002D000D0453AD014DCB8F1030F50D009DCB8F1A6
:1002E000000F31D0B8F1010F1CD0B8F1020F49D185
:1002F00020E0B8F1110F18D0B8F1120F42D11EE072
:10030000B9F5881F25D006DCB9F5803F20D0B9F5B6
:10031000801F37D11AE0B9F5001F18D0B9F5041FB6
:1003200030D117E0D1F80CC02DE0D1F80C8008F1E5
:10033000040C28E0D1F80C8008F1080C23E0D1F877
:100340000C8008F10C0C1EE000BF00BF00BF00BF16
:1003500000BF00BFD1F80880B8F1000F02D14FF004
:10036000040C0BE0D1F80880B8F1010F03D14FF075
:10037000080C1C6102E04FF0080C5C6103E04FF0D8
:10038000000C00E000BF00BFFF2801D8984601E044
:1003900003F104084646FF2802D84FEA820803E02A
:1003A000A2F108084FEA88084746D6F800804FF0C7
:1003B0000F0909FA07F928EA09080CFA07F900E019
:1003C00088E048EA0908C6F80080D1F8048008F0FF
:1003D0008058B8F1805F7DD100BFDFF8CC81D8F8BC
:1003E000188048F00108DFF8C091C9F81880C846A5
:1003F000D8F8188008F00108CDF8008000BF00BFD1
:100400004FEAB9384FEA920958F829504FEA8278F2
:100410004FEA18794FF00F0808FA09F825EA08059D
:10042000DFF88881434502D14FF0000816E0DFF87D
:100430008081434502D14FF001080FE0DFF874815D
:10044000434502D14FF0020808E0DFF86C814345D4
:1004500002D14FF0030801E04FF004084FEA82791F
:100460004FEA197908FA09F848EA0505DFF84C81DE
:100470004FEA920948F82950D1F8048008F480180E
:10048000B8F5801F0AD1DFF83881D8F8008048EA33
:100490000008DFF82C91C9F8008009E0DFF820811E
:1004A000D8F8008028EA0008DFF81491C9F8008025
:1004B000D1F8048008F40018B8F5001F10D1DFF857
:1004C000008108F10408D8F8008048EA0008DFF845
:1004D000F09000E05AE009F10409C9F800800DE04D
:1004E000DFF8DC8008F10408D8F8008028EA00086A
:1004F000DFF8CC9009F10409C9F80080D1F8048034
:1005000008F40038B8F5003F0ED1DFF8B480A8F148
:100510000408D8F8008048EA0008DFF8A490A9F1A0
:100520000409C9F800800DE0DFF89480A8F1040800
:10053000D8F8008028EA0008DFF88490A9F10409BF
:10054000C9F80080D1F8048008F48038B8F5803FFD
:100550000ED1DFF86C80A8F10808D8F8008048EACE
:100560000008DFF85C90A9F10809C9F800800DE0E7
:10057000DFF84C80A8F10808D8F8008028EA0008C5
:10058000DFF83C90A9F10809C9F80080521CD1F8A5
:10059000008028FA02F8B8F1000F7FF489AEBDE8B8
:1005A000F887000000001110001002400008014010
:1005B000000C0140001001400014014008000140FF
:1005C000080401400AB1016101E00B0403617047B6
:1005D00001480068704700000800002003480068D8
:1005E0000349097808440149086070470800002061
:1005F0001000002010B50848006840F010000649BF
:100600000860032000F080F80F2000F007F800F0E9
:100610002BF8002010BD00000020024070B50446F9
:100620000E4800784FF47A71B1FBF0F00C4909687C
:10063000B1FBF0F5284600F0D1FB08B1012070BDF8
:10064000102C07D200222146501E00F01EF805484B
:10065000046001E00120F2E70020F0E71000002034
:10066000000000200C0000207047014608460028CA
:1006700009DB00F01F0301229A4043099B0003F1AC
:10068000E023C3F8002100BF70472DE9F05F8046EA
:100690000D461646002700F0D7FE074639462A4683
:1006A000334601F00700C0F1070ABAF1040F02D97E
:1006B0004FF0040A01E0C0F1070AD14600F1040A34
:1006C000BAF1070F02D24FF0000A01E0A0F1030ACD
:1006D000D4464FF0010A0AFA09FAAAF1010A0AEA15
:1006E000020A0AFA0CFA4FF0010B0BFA0CFBABF101
:1006F000010B0BEA030B4AEA0B042146404600F0CB
:10070000ABFEBDE8F09F000000BF00F00702064B03
:1007100019684FF6FF031940044B0B4343EA0221CB
:10072000014B196000BF70470CED00E00000FA05B6
:1007300070B504460D460CB9012070BD5A480068DA
:1007400000F00700A8420ED25748006820F00700CA
:100750002843554908600846006800F00700A84291
:1007600001D00120E9E7207800F0020002281DD125
:10077000207800F00400042805D14C48406840F47B
:10078000E0604A494860207800F00800082805D158
:100790004648406840F460504449486043484068D7
:1007A00020F0F000A168084340494860207800F03C
:1007B000010078B36068012806D13C48006800F465
:1007C000003090B90120B8E76068022806D13748A8
:1007D000006800F0007040B90120AEE733480068BF
:1007E00000F0020008B90120A7E73048406820F077
:1007F0000300616808432D494860FFF7E9FE06469B
:1008000009E0FFF7E5FE801B41F28831884202D9FA
:10081000032092E707E02548406800F00C0061687B
:10082000B0EB810FEDD12048006800F00700A8422E
:100830000ED91D48006820F0070028431A490860B7
:100840000846006800F00700A84201D0012074E7C4
:10085000207800F00400042807D11448406820F4F0
:10086000E060E168084311494860207800F0080022
:10087000082808D10D48406820F46050216940EAFA
:10088000C1000A49486000F03FF808494968C1F3CF
:100890000311074A515CC8400649086006480068D1
:1008A000FFF7BCFE002048E7002002400010024095
:1008B00014180008000000200C0000200148006807
:1008C000704700000000002000B5FFF7F7FF044963
:1008D0004968C1F30221034A515CC84000BD0000D1
:1008E000001002402418000800B5FFF7E7FF044994
:1008F0004968C1F3C221034A515CC84000BD0000F1
:10090000001002402418000870B5002100220024C5
:1009100000230020134D696801F00C05F5B1042D8A
:1009200002D0082D19D101E00F4819E00F4DC1F395
:100930008346AB5D01F4803555B10A4D6D68C5F352
:1009400040450B4E725D084D5D43B5FBF2F402E08D
:10095000084D03FB05F4204602E000BF024800BF3B
:1009600000BF70BD0010024000127A002C18000871
:100970003C18000800093D00F8B504460CB90120F8
:10098000F8BD207800F00100002878D0F8484068D1
:1009900000F00C0004280CD0F548406800F00C0072
:1009A000082811D1F248406800F48030B0F5803F4B
:1009B0000AD1EF48006800F4003000285FD060687A
:1009C00000285CD10120DBE700BF6068B0F5803F04
:1009D00006D1E748006840F48030E549086028E027
:1009E000606858B9E248006820F48030E049086047
:1009F0000846006820F4802008601AE06068B0F5BE
:100A0000A02F0BD1DA48006840F48020D849086054
:100A10000846006840F4803008600AE0D448006866
:100A200020F48030D24908600846006820F4802015
:100A3000086000BF606888B1FFF7CAFD054606E0A0
:100A4000FFF7C6FD401B642801D9032098E7C8487A
:100A5000006800F400300028F2D010E0FFF7B8FD85
:100A6000054606E0FFF7B4FD401B642801D90320CA
:100A700086E7BF48006800F400300028F2D12078F3
:100A800000F00200022857D1B948406800F00C007D
:100A900050B1B748406800F00C00082818D1B4489D
:100AA000406800F4803098B9B148006800F0020056
:100AB00020B12069012801D0012061E7AC4800681D
:100AC00020F0F800616940EAC100A949086033E0FC
:100AD0002069E8B10120A7490860FFF779FD0546C4
:100AE00006E0FFF775FD401B022801D9032047E708
:100AF0009F48006800F002000028F2D09C4800687F
:100B000020F0F800616940EAC1009949086013E0EB
:100B1000002098490860FFF75BFD054606E0FFF7F7
:100B200057FD401B022801D9032029E7904800689F
:100B300000F002000028F2D1207800F00800082818
:100B40002DD1A069B8B101208B490860FFF740FDA5
:100B5000054606E0FFF73CFD401B022801D90320B3
:100B60000EE78348406A00F002000028F2D001201E
:100B700000F08AFA13E000207F490860FFF728FDA3
:100B8000054606E0FFF724FD401B022801D903209B
:100B9000F6E67748406A00F002000028F2D120789B
:100BA00000F00400042873D100277148C06900F0E8
:100BB000805070B900BF6E48C06940F080506C49E9
:100BC000C8610846C06900F08050009000BF00BFB7
:100BD00001276A48006800F48070B0B9674800686F
:100BE00040F4807065490860FFF7F2FC054606E0B6
:100BF000FFF7EEFC401B642801D90320C0E65F48E4
:100C0000006800F480700028F2D000BFE06801287E
:100C100006D15748006A40F001005549086227E0B4
:100C2000E06858B95248006A20F001005049086253
:100C30000846006A20F00400086219E0E068052810
:100C40000BD14B48006A40F004004949086208464D
:100C5000006A40F0010008620AE04548006A20F09E
:100C60000100434908620846006A20F00400086257
:100C700000BFE068A0B1FFF7ABFC054609E0FFF755
:100C8000A7FC401B41F28831884202D9032077E655
:100C900022E03748006A00F002000028EFD012E09E
:100CA000FFF796FC054608E0FFF792FC401B41F277
:100CB0008831884201D9032062E62D48006A00F09D
:100CC00002000028F0D1012F05D12948C06920F089
:100CD00080502749C86100BFE069C8B32448406814
:100CE00000F00C00082860D0E069022848D10020FC
:100CF00020490866FFF76CFC054606E0FFF768FC34
:100D0000401B022801D903203AE61948006800F088
:100D100000700028F2D1206AB0F5803F07D1144856
:100D2000406820F40030A168084311494860D4E9C4
:100D3000080108430E49496821F4741108430C491D
:100D4000486001200B490866FFF742FC054607E0B2
:100D50003DE0FFF73DFC401B022801D903200FE6D0
:100D60000348006800F000700028F2D02FE0000077
:100D700000100240000042428004424200700040E5
:100D8000002014490866FFF723FC054606E0FFF73C
:100D90001FFC401B022801D90320F1E50E48006822
:100DA00000F000700028F2D111E0E069012800D1C4
:100DB000E6E50948466806F48031206A814204D19C
:100DC00006F47011606A814201D00120D8E500204C
:100DD000D6E50000000042420010024070B5044613
:100DE0002546681EB0F1807F01D301200FE0681E08
:100DF0004FF0E02148610F214FF0FF3000F02CFB55
:100E000000204FF0E021886107200861002070BDBC
:100E1000704710B504460CB9012010BDA06900B19F
:100E200000E000BF94F8410028B9002084F8400099
:100E3000204600F029F8242084F841002068C0688A
:100E400020F400502168C860204600F0DBF92068DB
:100E5000006920F49040216808612068406920F012
:100E60002A00216848612068C06840F40050216869
:100E7000C86000206064202084F8410084F84200AB
:100E80000020606300BFC8E710B586B0044625495E
:100E90002068884243D100BF2348806940F00400A5
:100EA000214988610846806900F00400019000BF74
:100EB00000BF00BF0846806940F480408861084652
:100EC000806900F48040019000BF00BF4815029087
:100ED00002200390012004900320059002A91348EA
:100EE000FFF7E0F94FF4806002900020039002A920
:100EF0000E48FFF7D7F92520FFF7B7FB032211466D
:100F00002520FFF7C2FB2068C06840F02000216860
:100F1000C8602068C06840F010002168C86006B052
:100F200010BD0000003801400010024000080140E0
:100F30002DE9F84F04460E46174699464FF0000A31
:100F400094F8420020284FD106B117B90120BDE81E
:100F5000F88F00206064222084F842000020206383
:100F6000FFF736FB8246A785E785A068B0F5805F6E
:100F700004D1206910B90025B04602E035464FF093
:100F8000000829E05346002220212046CDF8009099
:100F900000F0B6F908B10320D9E745B920684068E8
:100FA000C0F30800A8F8000008F1020811E0A068EA
:100FB000B0F5805F03D0A06828B9206918B920680F
:100FC0004068287004E02068406800F07F002870C6
:100FD0006D1CE08D401EE085E08D0028D2D12020E0
:100FE00084F842000020B2E70220B0E7F7B50446DB
:100FF000154694F84100202836D1019800B10DB96A
:101000000120FEBD01982062A584E5840020606473
:10101000212084F841001548A16B88621448A16B17
:10102000C8621448A16B08630020A16B486301AE3D
:1010300023681A1D31682B46A06BFFF7E5F86FF0A7
:1010400040002168086000BF00BF2168143151E8EA
:10105000001F41F080002168143141E80002002A9D
:10106000F3D100BF0020CCE70220CAE70D11000831
:1010700065110008BD1000087047704700BFFEE70B
:1010800000BFFEE77047704708B508490968C908FE
:101090004FF47A72B1FBF2F14143009100BF00BFFF
:1010A00000994A1E00920029F9D108BD00000020D5
:1010B000704710B5FFF792FA10BD704770B506463D
:1010C0000025746A20684069C0F3C01594F8410097
:1010D000212805D125B10020E084204600F07FF8CA
:1010E00020684069C0F3801594F84200222805D199
:1010F00025B10020E085204600F03BF8606C40F010
:10110000100060642046FFF783FE70BD70B5054691
:101110006C6A2868006800F02000F8B90020E084BC
:1011200000BF00BF2168143151E8001F21F080008A
:101130002168143141E80002002AF3D100BF00BF4A
:1011400000BF21680C3151E8001F41F040002168C8
:101150000C3141E80002002AF3D102E02046FFF7FB
:101160008BFF70BD70B50446656A2846FFF785FFA2
:1011700070BD00BF00BF02680C3252E8002F22F49D
:10118000907102680C3242E80013002BF3D100BFCB
:1011900000BF00BF0268143252E8002F22F00101A4
:1011A0000268143242E80013002BF3D100BF016B38
:1011B00001290ED100BF00BF02680C3252E8002F97
:1011C00022F0100102680C3242E80013002BF3D128
:1011D00000BF202180F8421000210163704700BF4A
:1011E00000BF02680C3252E8002F22F0C0010268F2
:1011F0000C3242E80013002BF3D100BF202180F80D
:101200004110704770B504462168096921F44051C6
:10121000E2681143226811612269A1681143626981
:1012200041EA02052168C96841F20C6291432943F1
:101230002268D1602168496921F44071A269114393
:10124000226851612D4A2168914202D1FFF74CFB7F
:1012500001E0FFF739FB00EBC00101EB0011626810
:101260009200B1FBF2F100EBC00202EB00126368E6
:101270009B00B2FBF3F26423B2FBF3F202EBC20376
:1012800003EB0212A1EB8201322202EB0111642274
:10129000B1FBF2F101F0F00100EBC00202EB001231
:1012A00063689B00B2FBF3F26423B2FBF3F201EB41
:1012B000021200EBC00101EB001163689B00B1FB5F
:1012C000F3F100EBC00303EB00136668B600B3FB59
:1012D000F6F36426B3FBF6F303EBC30606EB031346
:1012E000A1EB8301322303EB01116423B1FBF3F182
:1012F00001F00F0111442268916070BD0038014077
:101300002DE9F04104460D4617469846069E34E006
:10131000701C88B32EB1FFF75BF9A0EB0800B04258
:101320002BD900BF00BF21680C3151E8001F21F408
:10133000D07021680C3141E80002002AF3D100BFCF
:1013400000BF00BF2168143151E8001F21F00100E7
:101350002168143141E80002002AF3D100BF2020A7
:1013600084F8410084F8420000BF002084F8400067
:1013700000BF0320BDE8F081FFE720680068284037
:10138000A84201D1012000E00020B842C0D00020D6
:10139000F0E700001CB5002001901C4800680068C0
:1013A000C0F34010B8B11A480088802802D300204A
:1013B000174908804FF47A73012201A91348FFF7F7
:1013C000B7FD9DF80410124802880088401C104B9D
:1013D0001880104881540D4800680068C0F3001060
:1013E00090B10C490CA000F01FF800F005FA00BF06
:1013F00000200090054800680068009003480068DD
:101400004068009000BF00BF1CBD000044040020E5
:10141000040000208C040020726563763A20257356
:101420000D0A000000BFFEE70FB4054B10B503A97D
:10143000044A029800F033F810BC5DF814FB000079
:10144000451600081400002002480068C0F302207E
:10145000704700000CED00E010B5002804DB0A071F
:10146000130E054A135406E00A07140E034A00F04F
:101470000F031B1FD45410BD00E400E018ED00E082
:1014800002E008C8121F08C1002AFAD1704770474D
:10149000002001E001C1121F002AFBD170472DE995
:1014A000F84F9946924688460546002706E02528CB
:1014B0000AD051464A4690476D1C7F1C2878002868
:1014C000F5D13846BDE8F88F002315F8011F1846FE
:1014D0002E2915D115F8011F04232A290DD06FF0EC
:1014E0002F022978A1F13004092C09D800EB8000E3
:1014F00002EB400008446D1CF3E758F8040B6D1C28
:101500002A78002ADDD0632A07D0732A0FD010462C
:1015100051464A4690477F1C2AE018F8042B8DF864
:10152000002000218DF801106E46012103E058F8DB
:10153000046B4FF0FF315A074FF0000401D409E06B
:10154000641C84420BDA8C42FADB325D002AF7D14C
:1015500005E0641C8C42FCDB305D0028F9D1274497
:1015600004E016F8010B51464A469047641EF8D233
:101570006D1CA3E710B5044603E04FF47A7000F049
:1015800005F8201EA4F10104F7D110BD014601EBBE
:10159000C102D2004FF0E0235A6100229A611A463C
:1015A000126942F004021A611A46126942F00102FD
:1015B0001A6100BF4FF0E022106900F001021AB179
:1015C00000F48032002AF5D04FF0E022126922F0B8
:1015D00001024FF0E0231A617047000008B500BF18
:1015E0001448406940F001001249486108464069CA
:1015F00000F00100009000BF00BF0F480F490860D5
:101600001020486000210D4841618021C160002107
:10161000016181604FF48051C16100218161FEF759
:10162000BFFD00BF05480649886308460349486274
:1016300000BF08BD0010024044000240000400202A
:101640004404002000BF054A126802F04002002A4C
:10165000F9D0C2B2014B1B1D1A607047003801401F
:1016600010B5012211020248FEF7ACFF10BD0000C8
:10167000000C014010B500224FF480710148FEF7C4
:10168000A1FF10BD000C014010B50122510202481B
:10169000FEF798FF10BD0000000C014010B50022BD
:1016A0004FF400710148FEF78DFF10BD000C0140A2
:1016B00000B585B000BF0F48806940F008000D49B3
:1016C00088610846806900F00800009000BF00BFF4
:1016D0004FF4407001900120029003900320049089
:1016E00001A90548FEF7DEFDFFF7BAFFFFF7CCFFC3
:1016F00005B000BD00100240000C0140FEF77AFF6B
:101700004FF4E01000F02EF8FFF7D2FF4FF4E13075
:1017100000F05CF8FFF762FF002400BF03E0412007
:101720000E490855641CB4F57A7FF8DB4FF47A72E1
:101730000A490B48FFF75AFC0FE0FFF79BFFFFF742
:10174000A3FF4FF4FA70FFF715FFFFF789FFFFF7CC
:10175000A5FF4FF4FA70FFF70DFFEEE71800002029
:101760004404002030B58FB005460124282105A887
:10177000FEF7DFFC14216846FEF7DBFC0120059034
:10178000000406900020079002200C90C1030D91E8
:101790000E9505A8FFF7F0F804460CB100BFFEE770
:1017A0000F20009002200190002002904FF48060F2
:1017B00003900020049002216846FEF7B9FF04461A
:1017C0000CB100BFFEE70FB030BD000010B50446FD
:1017D0000748084908600846446000218160C160EC
:1017E000016181610C214161FFF713FB10BD000015
:1017F000003801404404002010B580210348FEF762
:1018000098FC00200249088010BD00008C040020D4
:10181000040000200000000000000000010203049A
:101820000607080900000000010203040203040582
:10183000060708090A0B0C0D0E0F1010010200001C
:101840006018000800000020180000008014000844
:101850007818000818000020F8080000901400080C
:101860000024F40000000000000000001000000050
:0818700001000000000000006F
:04000005080000E906
:00000001FF
