:020000040800F2
:10000000300500200101000801150008F91400085E
:10001000FD140008990100081919000800000000EB
:100020000000000000000000000000002D15000886
:100030009D01000800000000031500082F150008AE
:100040001B0100081B0100081B0100081B01000820
:100050001B0100081B0100081B0100081B01000810
:100060001B0100081B0100081B0100081B01000800
:100070001B0100081B0100081B0100081B010008F0
:100080001B0100081B0100081B0100080000000004
:100090000000000000000000000000001B0100083C
:1000A0000000000000000000000000000000000050
:1000B000391500081B0100081B0100081B0100087E
:1000C0001B0100081B0100081B0100081B010008A0
:1000D0001B010008891800081B0100081B0100080B
:1000E0001B0100081B010008DFF810D000F042F8E7
:1000F00000480047A11C0008AFF300803005002035
:100100000648804706480047FEE7FEE7FEE7FEE7B1
:10011000FEE7FEE7FEE7FEE7FEE7FEE7371500082D
:10012000E9000008D2B201E000F8012B491EFBD221
:1001300070470022F6E710B513460A4604461946F2
:10014000FFF7F0FF204610BD30B50B4601460020FA
:100150002022012409E021FA02F59D4205D303FA89
:1001600002F5491B04FA02F52844151EA2F101020A
:10017000F1DC30BD064C074D06E0E06840F00103BD
:1001800094E8070098471034AC42F6D3FFF7B0FF6D
:10019000081E0008281E000800BFFEE77047000088
:1001A0002DE9F8470346002294466EE14FF001081E
:1001B00008FA02F4D1F8008008EA0400A0427DD1D8
:1001C000DFF8DCA2D1F80480A8EB0A09D0453AD0C8
:1001D00014DCB8F1030F50D009DCB8F1000F31D0B6
:1001E000B8F1010F1CD0B8F1020F49D120E0B8F1ED
:1001F000110F18D0B8F1120F42D11EE0B9F5881FC7
:1002000025D006DCB9F5803F20D0B9F5801F37D165
:100210001AE0B9F5001F18D0B9F5041F30D117E066
:10022000D1F80CC02DE0D1F80C8008F1040C28E0C6
:10023000D1F80C8008F1080C23E0D1F80C8008F10B
:100240000C0C1EE000BF00BF00BF00BF00BF00BF1E
:10025000D1F80880B8F1000F02D14FF0040C0BE088
:10026000D1F80880B8F1010F03D14FF0080C1C61E0
:1002700002E04FF0080C5C6103E04FF0000C00E07E
:1002800000BF00BFFF2801D8984601E003F1040831
:100290004646FF2802D84FEA820803E0A2F1080888
:1002A0004FEA88084746D6F800804FF00F0909FA50
:1002B00007F928EA09080CFA07F900E088E048EA9B
:1002C0000908C6F80080D1F8048008F08058B8F119
:1002D000805F7DD100BFDFF8CC81D8F8188048F06E
:1002E0000108DFF8C091C9F81880C846D8F818800E
:1002F00008F00108CDF8008000BF00BF4FEAB93810
:100300004FEA920958F829504FEA82784FEA187953
:100310004FF00F0808FA09F825EA0805DFF8888188
:10032000434502D14FF0000816E0DFF880814345D5
:1003300002D14FF001080FE0DFF87481434502D18C
:100340004FF0020808E0DFF86C81434502D14FF01E
:10035000030801E04FF004084FEA82794FEA197967
:1003600008FA09F848EA0505DFF84C814FEA9209D6
:1003700048F82950D1F8048008F48018B8F5801F97
:100380000AD1DFF83881D8F8008048EA0008DFF8A1
:100390002C91C9F8008009E0DFF82081D8F80080AE
:1003A00028EA0008DFF81491C9F80080D1F8048029
:1003B00008F40018B8F5001F10D1DFF8008108F12B
:1003C0000408D8F8008048EA0008DFF8F09000E060
:1003D0005AE009F10409C9F800800DE0DFF8DC807B
:1003E00008F10408D8F8008028EA0008DFF8CC906B
:1003F00009F10409C9F80080D1F8048008F4003834
:10040000B8F5003F0ED1DFF8B480A8F10408D8F8A1
:10041000008048EA0008DFF8A490A9F10409C9F8AF
:1004200000800DE0DFF89480A8F10408D8F800807F
:1004300028EA0008DFF88490A9F10409C9F80080CF
:10044000D1F8048008F48038B8F5803F0ED1DFF889
:100450006C80A8F10808D8F8008048EA0008DFF8A6
:100460005C90A9F10809C9F800800DE0DFF84C8024
:10047000A8F10808D8F8008028EA0008DFF83C90C6
:10048000A9F10809C9F80080521CD1F8008028FAA7
:1004900002F8B8F1000F7FF489AEBDE8F8870000DC
:1004A000000011100010024000080140000C014043
:1004B0000010014000140140080001400804014000
:1004C0000AB1016101E00B04036170470148006853
:1004D00070470000100000200348006803490978B5
:1004E00008440149086070471000002018000020EF
:1004F00010B50848006840F0100006490860032065
:1005000000F080F80F2000F007F800F02BF8002032
:1005100010BD00000020024070B504460E4800786F
:100520004FF47A71B1FBF0F00C490968B1FBF0F5BA
:10053000284600F0D1FB08B1012070BD102C07D275
:1005400000222146501E00F01EF80548046001E01C
:100550000120F2E70020F0E7180000200000002052
:1005600014000020704701460846002809DB00F00F
:100570001F0301229A4043099B0003F1E023C3F8C3
:10058000002100BF70472DE9F05F80460D461646FA
:10059000002701F0D3F9074639462A46334601F0D1
:1005A0000700C0F1070ABAF1040F02D94FF0040A9C
:1005B00001E0C0F1070AD14600F1040ABAF1070FC1
:1005C00002D24FF0000A01E0A0F1030AD4464FF036
:1005D000010A0AFA09FAAAF1010A0AEA020A0AFA5F
:1005E0000CFA4FF0010B0BFA0CFBABF1010B0BEA11
:1005F000030B4AEA0B042146404601F0A7F9BDE887
:10060000F09F000000BF00F00702064B19684FF68C
:10061000FF031940044B0B4343EA0221014B1960CD
:1006200000BF70470CED00E00000FA0570B504460D
:100630000D460CB9012070BD5A48006800F0070053
:10064000A8420ED25748006820F0070028435549B9
:1006500008600846006800F00700A84201D00120A9
:10066000E9E7207800F0020002281DD1207800F090
:100670000400042805D14C48406840F4E0604A4931
:100680004860207800F00800082805D146484068F6
:1006900040F46050444948604348406820F0F0000E
:1006A000A168084340494860207800F0010078B311
:1006B0006068012806D13C48006800F4003090B919
:1006C0000120B8E76068022806D13748006800F0CA
:1006D000007040B90120AEE73348006800F0020026
:1006E00008B90120A7E73048406820F0030061689E
:1006F00008432D494860FFF7E9FE064609E0FFF789
:10070000E5FE801B41F28831884202D9032092E73E
:1007100007E02548406800F00C006168B0EB810FED
:10072000EDD12048006800F00700A8420ED91D480E
:10073000006820F0070028431A490860084600684E
:1007400000F00700A84201D0012074E7207800F0F3
:100750000400042807D11448406820F4E060E168F0
:10076000084311494860207800F00800082808D1A3
:100770000D48406820F46050216940EAC1000A49F0
:10078000486000F03FF808494968C1F30311074A7F
:10079000515CC8400649086006480068FFF7BCFE87
:1007A000002048E70020024000100240DC1D000845
:1007B000000000201400002001480068704700007D
:1007C0000000002000B5FFF7F7FF04494968C1F3B6
:1007D0000221034A515CC84000BD000000100240E5
:1007E000EC1D000800B5FFF7E7FF04494968C1F3B5
:1007F000C221034A515CC84000BD00000010024005
:10080000EC1D000870B50021002200240023002008
:10081000134D696801F00C05F5B1042D02D0082DC7
:1008200019D101E00F4819E00F4DC1F38346AB5DCC
:1008300001F4803555B10A4D6D68C5F340450B4E46
:10084000725D084D5D43B5FBF2F402E0084D03FB19
:1008500005F4204602E000BF024800BF00BF70BDA3
:100860000010024000127A00F41D0008041E000867
:1008700000093D00F8B504460CB90120F8BD207808
:1008800000F00100002878D0F848406800F00C0023
:1008900004280CD0F548406800F00C00082811D15D
:1008A000F248406800F48030B0F5803F0AD1EF484C
:1008B000006800F4003000285FD0606800285CD138
:1008C0000120DBE700BF6068B0F5803F06D1E74854
:1008D000006840F48030E549086028E0606858B955
:1008E000E248006820F48030E0490860084600686B
:1008F00020F4802008601AE06068B0F5A02F0BD1CA
:10090000DA48006840F48020D8490860084600684A
:1009100040F4803008600AE0D448006820F4803059
:10092000D24908600846006820F48020086000BFB3
:10093000606888B1FFF7CAFD054606E0FFF7C6FD0F
:10094000401B642801D9032098E7C848006800F4D8
:1009500000300028F2D010E0FFF7B8FD054606E0B1
:10096000FFF7B4FD401B642801D9032086E7BF4888
:10097000006800F400300028F2D1207800F0020076
:10098000022857D1B948406800F00C0050B1B74870
:10099000406800F00C00082818D1B448406800F402
:1009A000803098B9B148006800F0020020B1206999
:1009B000012801D0012061E7AC48006820F0F80070
:1009C000616940EAC100A949086033E02069E8B1E3
:1009D0000120A7490860FFF779FD054606E0FFF70B
:1009E00075FD401B022801D9032047E79F48006896
:1009F00000F002000028F2D09C48006820F0F800C7
:100A0000616940EAC1009949086013E000209849F3
:100A10000860FFF75BFD054606E0FFF757FD401B4A
:100A2000022801D9032029E79048006800F002005D
:100A30000028F2D1207800F0080008282DD1A06904
:100A4000B8B101208B490860FFF740FD054606E07C
:100A5000FFF73CFD401B022801D903200EE7834825
:100A6000406A00F002000028F2D0012000F04AFDA8
:100A700013E000207F490860FFF728FD054606E0E7
:100A8000FFF724FD401B022801D90320F6E6774832
:100A9000406A00F002000028F2D1207800F0040043
:100AA000042873D100277148C06900F0805070B9E4
:100AB00000BF6E48C06940F080506C49C86108466C
:100AC000C06900F08050009000BF00BF01276A4855
:100AD000006800F48070B0B96748006840F4807026
:100AE00065490860FFF7F2FC054606E0FFF7EEFCFB
:100AF000401B642801D90320C0E65F48006800F469
:100B000080700028F2D000BFE068012806D1574865
:100B1000006A40F001005549086227E0E06858B9D2
:100B20005248006A20F00100504908620846006AF5
:100B300020F00400086219E0E06805280BD14B485A
:100B4000006A40F00400494908620846006A40F023
:100B5000010008620AE04548006A20F001004349AC
:100B600008620846006A20F00400086200BFE068DE
:100B7000A0B1FFF7ABFC054609E0FFF7A7FC401B5F
:100B800041F28831884202D9032077E622E03748D3
:100B9000006A00F002000028EFD012E0FFF796FC98
:100BA000054608E0FFF792FC401B41F2883188427D
:100BB00001D9032062E62D48006A00F002000028F7
:100BC000F0D1012F05D12948C06920F08050274974
:100BD000C86100BFE069C8B32448406800F00C0059
:100BE000082860D0E069022848D100202049086622
:100BF000FFF76CFC054606E0FFF768FC401B022887
:100C000001D903203AE61948006800F00070002876
:100C1000F2D1206AB0F5803F07D11448406820F433
:100C20000030A168084311494860D4E9080108432D
:100C30000E49496821F4741108430C4948600120A9
:100C40000B490866FFF742FC054607E03DE0FFF769
:100C50003DFC401B022801D903200FE60348006831
:100C600000F000700028F2D02FE0000000100240D9
:100C700000004242800442420070004000201449BB
:100C80000866FFF723FC054606E0FFF71FFC401B44
:100C9000022801D90320F1E50E48006800F0007039
:100CA0000028F2D111E0E069012800D1E6E5094809
:100CB000466806F48031206A814204D106F470113E
:100CC000606A814201D00120D8E50020D6E500000D
:100CD000000042420010024070B504462546681EDE
:100CE000B0F1807F01D301200FE0681E4FF0E021BA
:100CF00048610F214FF0FF3000F028FE00204FF038
:100D0000E021886107200861002070BD70477047AE
:100D100010B504462068B0F1804F5FD130480078AC
:100D200000285BD12E48807801281CD12DA000F02E
:100D3000F5FD01202A49087004212E4800F0D4FA5C
:100D40002D4908802B480068006A20F0A00029493E
:100D50000968086227480068006A40F020002549B9
:100D6000096808623AE025A000F0D8FD1C4800217F
:100D70000160818001201A49887000BF1D48006809
:100D8000006A41F21111084068B91A480068006A07
:100D90008910084038B917480068006820F0010041
:100DA00014490968086000BF0020124909684862B8
:100DB00010480068006A20F0A0000E490968086227
:100DC0000C480068006A0B49096808620948006815
:100DD000006840F0010007490968086010BD000084
:100DE00004000020B2B6BBF1B5BDC9CFC9FDD1D852
:100DF0000D0A0000200000200A000020B2B6BBF15E
:100E0000B5BDCFC2BDB5D1D80D0A00002DE9F04166
:100E100004460D461646002700BF94F83C00012802
:100E200002D10220BDE8F081012084F83C0000BF1F
:100E300096B9EB68D5E90012206800F0D1FB206874
:100E4000806920F00C002168886120688069A968A9
:100E500008432168886141E0042E13D1EB68D5E98D
:100E60000012206800F0F0FB2068806920F44060E8
:100E70002168886120688069A96840EA01202168AA
:100E800088612BE0082E12D1EB68D5E900122068AA
:100E900000F0F7FB2068C06920F00C002168C861F1
:100EA0002068C069A96808432168C86116E00C2E53
:100EB00013D1EB68D5E90012206800F0FEFB206832
:100EC000C06920F440602168C8612068C069A968D1
:100ED00040EA01202168C86100E0012700BF00202E
:100EE00084F83C0000BF38469CE710B504460CB9B6
:100EF000012010BD94F83D0028B9002084F83C0082
:100F0000204600F025F8022084F83D00211D2068CD
:100F100000F01AFB012084F8460000BF84F83E0070
:100F200001213F200155402001554120015500BFBE
:100F300000BF012084F842004320015544200155A0
:100F40004520015500BF012084F83D000020D0E776
:100F500010B586B004462068B0F1804F2FD100BF95
:100F60001848806940F00400164988610846806985
:100F700000F00400019000BF00BF00BF0846C06938
:100F800040F00100C8610846C06900F0010001900E
:100F900000BF00BF022002900020039001200490B7
:100FA0000320059002A90848FFF7FAF8022211462B
:100FB0001C20FFF7E8FA1C20FFF7D5FA00BF06B0A7
:100FC00010BD000000100240000801402DE9F04370
:100FD00004460D46002615B994F83E000BE0042D9A
:100FE00002D13F20005D06E0082D02D14020005DC7
:100FF00001E04120005D804615B994F842000BE005
:10100000042D02D14320005D06E0082D02D14420CA
:10101000005D01E04520005D8146B8F1010F02D17D
:10102000B9F1010F02D00120BDE8F0831DB9022003
:1010300084F83E000EE0042D03D102213F2001552B
:1010400008E0082D03D102214020015502E00221D1
:10105000412001551DB9022084F842000EE0042D04
:1010600003D102214320015508E0082D03D10221BC
:101070004420015502E002214520015535B1042DDF
:101080000BD0082D10D00C2D1CD114E02068C068A6
:1010900040F002002168C86016E02068C06840F097
:1010A00004002168C8600FE02068C06840F00800B4
:1010B0002168C86008E02068C06840F0100021681E
:1010C000C86001E0012600BF00BF06BB012229461F
:1010D000206800F073FA1249206888420BD020681B
:1010E000B0F1804F07D00F492068884203D00E49E5
:1010F000206888420CD12068806800F00707062F1E
:101100000CD02068006840F001002168086005E00C
:101110002068006840F0010021680860304683E7DD
:10112000002C0140000400400008004010B50446B7
:1011300020680069C0F34000D8B12068C068C0F3DF
:101140004000B0B16FF002002168086101202077F3
:101150002068806900F0030018B12046FFF7D8FD31
:1011600005E0204600F0ADF8204600F0ABF8002086
:10117000207720680069C0F38000D8B12068C0687B
:10118000C0F38000B0B16FF0040021680861022054
:1011900020772068806900F4407018B12046FFF77E
:1011A000B7FD05E0204600F08CF8204600F08AF8F4
:1011B0000020207720680069C0F3C000D8B1206803
:1011C000C068C0F3C000B0B16FF0080021680861CA
:1011D000042020772068C06900F0030018B1204681
:1011E000FFF796FD05E0204600F06BF8204600F082
:1011F00069F80020207720680069C0F30010D8B19A
:101200002068C068C0F30010B0B16FF01000216812
:101210000861082020772068C06900F4407018B188
:101220002046FFF775FD05E0204600F04AF820460D
:1012300000F048F8002020772068006900F00100E5
:1012400058B12068C06800F0010030B16FF00100B3
:1012500021680861204600F037F820680069C0F373
:10126000C01058B12068C068C0F3C01030B16FF032
:101270008000216808612046FFF748FD206800696A
:10128000C0F3801058B12068C068C0F3801030B13E
:101290006FF0400021680861204600F03EF82068A9
:1012A0000069C0F3401058B12068C068C0F3401016
:1012B00030B16FF02000216808612046FFF727FD5C
:1012C00010BD7047704700000168B1F1804F08D130
:1012D00004498978012904D102498988491C014AB5
:1012E00091807047040000200246002031B104299B
:1012F00007D0082908D00C290CD108E01368586BD6
:1013000009E01368986B06E01368D86B03E0136874
:10131000186C00E000BF00BF7047704710B504466E
:101320000CB9012010BDA06900B100E000BF94F825
:10133000410028B9002084F84000204600F02AF837
:10134000242084F841002068C06820F400502168FF
:10135000C860204600F0D0F92068006920F4904071
:10136000216808612068406920F02A0021684861EE
:101370002068C06840F400502168C86000206064A4
:10138000202084F8410084F842000020606300BF00
:10139000C8E7000010B586B0044625492068884299
:1013A00043D100BF2348806940F00400214988618F
:1013B0000846806900F00400019000BF00BF00BF34
:1013C0000846806940F4804088610846806900F4DE
:1013D0008040019000BF00BF48150290022003909A
:1013E000012004900320059002A91348FEF7D8FEBF
:1013F0004FF4806002900020039002A90E48FEF78F
:10140000CFFE2520FFF7AFF8032211462520FFF776
:10141000BAF82068C06840F020002168C8602068E1
:10142000C06840F010002168C86006B010BD000020
:101430000038014000100240000801402DE9F84F3B
:1014400004460E46174699464FF0000A94F84200AB
:1014500020284FD106B117B90120BDE8F88F002030
:101460006064222084F8420000202063FFF72EF8F9
:101470008246A785E785A068B0F5805F04D1206922
:1014800010B90025B04602E035464FF0000829E0CB
:101490005346002220212046CDF8009000F0AAF902
:1014A00008B10320D9E745B920684068C0F30800B7
:1014B000A8F8000008F1020811E0A068B0F5805F0C
:1014C00003D0A06828B9206918B92068406828703E
:1014D00004E02068406800F07F0028706D1CE08DFB
:1014E000401EE085E08D0028D2D1202084F8420003
:1014F0000020B2E70220B0E700BFFEE700BFFEE732
:101500007047704708B508490968C9084FF47A72EE
:10151000B1FBF2F14143009100BF00BF00994A1EA8
:1015200000920029F9D108BD00000020704710B5D5
:10153000FEF7D2FF10BD704710B50248FFF7F6FD69
:1015400010BD00002000002010B50268184B984222
:1015500008D0B0F1804F05D0164B984202D0164B00
:10156000984203D122F070024B681A43104B984204
:1015700008D0B0F1804F05D00E4B984202D00E4BF0
:10158000984203D122F44072CB681A4322F08003C0
:101590004C6943EA040202608B68C3620B68836291
:1015A000034B984201D10B6903630123436110BDD2
:1015B000002C0140000400400008004030B501F05C
:1015C0001F05012404FA05F3046A9C430462046ABB
:1015D00001F01F0502FA05F52C43046230BD00003E
:1015E00070B50C461546026A066A26F001060662C8
:1015F0008169124EB04208D0B0F1804F05D0104E34
:10160000B04202D00F4EB04201D1012600E00026C8
:101610001EB121F00301294301E041F0010121F055
:10162000F001F02606EA0316314322F00A0204F024
:101630000A0632438161026270BD0000002C014045
:10164000000400400008004070B50C461546026AD0
:10165000066A26F010060662816921F4407141EAAB
:10166000052121F470414FF4704606EA03363143F8
:1016700022F0A002A02606EA04163243816102622B
:1016800070BD70B50C461546026A066A26F480766F
:101690000662C16921F00301294321F0F001F0261F
:1016A00006EA0316314322F400724FF4007606EA8C
:1016B00004263243C161026270BD70B50C46154606
:1016C000026A066A26F480560662C16921F44071F6
:1016D00041EA052121F470414FF4704606EA0336D1
:1016E000314322F400524FF4005606EA04363243E6
:1016F000C161026270BD000070B5044621680969CD
:1017000021F44051E2681143226811612269A16805
:101710001143626941EA02052168C96841F20C621D
:10172000914329432268D1602168496921F44071BD
:10173000A2691143226851612D4A2168914202D168
:10174000FFF750F801E0FFF73DF800EBC00101EBB7
:10175000001162689200B1FBF2F100EBC00202EBF3
:10176000001263689B00B2FBF3F26423B2FBF3F256
:1017700002EBC20303EB0212A1EB8201322202EB65
:1017800001116422B1FBF2F101F0F00100EBC002A3
:1017900002EB001263689B00B2FBF3F26423B2FB1E
:1017A000F3F201EB021200EBC00101EB00116368E0
:1017B0009B00B1FBF3F100EBC00303EB0013666881
:1017C000B600B3FBF6F36426B3FBF6F303EBC306F4
:1017D00006EB0313A1EB8301322303EB0111642316
:1017E000B1FBF3F101F00F0111442268916070BD6B
:1017F000003801402DE9F04104460D461746984651
:10180000069E34E0701C88B32EB1FEF75FFEA0EB9D
:101810000800B0422BD900BF00BF21680C3151E84D
:10182000001F21F4D07021680C3141E80002002A29
:10183000F3D100BF00BF00BF2168143151E8001F81
:1018400021F001002168143141E80002002AF3D19F
:1018500000BF202084F8410084F8420000BF00202F
:1018600084F8400000BF0320BDE8F081FFE7206856
:1018700000682840A84201D1012000E00020B842C1
:10188000C0D00020F0E700001CB5002001901C48EB
:1018900000680068C0F34010B8B11A48008880287A
:1018A00002D30020174908804FF47A73012201A95E
:1018B0001348FFF7C3FD9DF8041012480288008802
:1018C000401C104B1880104881540D480068006877
:1018D000C0F3001090B10C490CA000F01FF800F00C
:1018E0006FFA00BF00200090054800680068009073
:1018F000034800684068009000BF00BF1CBD0000A6
:10190000680000200C000020B000002072656376A3
:101910003A2025730D0A000000BFFEE70FB4054B07
:1019200010B503A9044A029800F034F810BC5DF821
:1019300014FB0000B51B00081C00002002480068D2
:10194000C0F30220704700000CED00E010B5002845
:1019500004DB0A07130E054A135406E00A07140EA7
:10196000034A00F00F031B1FD45410BD00E400E035
:1019700018ED00E002E008C8121F08C1002AFAD1E1
:1019800070477047002001E001C1121F002AFBD1FF
:10199000704700002DE9FF4F8BB09A460F46054671
:1019A000002606E025280BD052460D9990476D1C65
:1019B000761C28780028F5D10FB03046BDE8F08FAE
:1019C0000024A0460122604900E0044315F8013FCD
:1019D000203B02FA03F00842F7D128782E2817D1CD
:1019E00015F8010F44F004042A280ED06FF02F02DE
:1019F0002878A0F1300109290AD808EB880102EB08
:101A0000410100EB01086D1CF2E757F8048B6D1CD7
:101A1000287869283ED006DC0028CDD063280BD07A
:101A2000642804D136E0732810D075284BD0524674
:101A30000D999047761C85E017F8040B8DF800008F
:101A400000208DF80100E946012003E057F8049BCF
:101A50004FF0FF3061074FF0000401D40AE0641C2E
:101A600044450DDA8442FADB19F804100029F6D156
:101A700006E0641C8442FCDB19F804100029F8D14C
:101A8000264404E019F8010B52460D999047641E54
:101A9000F8D257E001CF4FF00A0B002802DA40429B
:101AA0002D2102E0210504D52B218DF824100121E0
:101AB00003E0E10705D02021F7E70DF120090891A7
:101AC0000CE00021F9E701CF4FF00A0BF9E7594686
:101AD000FEF73AFB01F1300209F8012D0028F6D19A
:101AE000ADEB090000F1200B600701D44FF00108B5
:101AF000D84502DDA8EB0B0000E000208046002462
:101B000006E009A85246005D0D999047641C761CBA
:101B100008988442F5DB04E0302052460D99904746
:101B2000761CB8F10001A8F10108F5DC05E019F810
:101B3000010B52460D999047761CBBF10001ABF1A9
:101B4000010BF4DC6D1C34E70928010010B50446D4
:101B500003E04FF47A7000F005F8201EA4F10104B0
:101B6000F7D110BD014601EBC102D2004FF0E023D6
:101B70005A6100229A611A46126942F004021A61FF
:101B80001A46126942F001021A6100BF4FF0E022CA
:101B9000106900F001021AB100F48032002AF5D079
:101BA0004FF0E022126922F001024FF0E0231A61A7
:101BB0007047000000BF054A126802F04002002A88
:101BC000F9D0C2B2014B1B1D1A60704700380140AA
:101BD0007FB505460C4600200090019002900390CE
:101BE0004FF080401049086008464460C5600021FD
:101BF0008160FFF77AF90220009001200190002017
:101C000002900390042269460748FFF7FFF8064850
:101C10000068C06840F0010003490968C8600421F9
:101C20000148FFF7D3F97FBD2000002010B5012245
:101C300011020248FEF744FC10BD0000000C0140F8
:101C400010B5012251020248FEF73AFC10BD000017
:101C5000000C014000B585B000BF0F48806940F01E
:101C600008000D4988610846806900F0080000906E
:101C700000BF00BF4FF4407001900120029003901C
:101C80000320049001A90548FEF78AFAFFF7CEFF6A
:101C9000FFF7D6FF05B000BD00100240000C014068
:101CA000FEF726FC4FF4E01000F040F8FFF7D2FFFB
:101CB0004FF4E13000F06EF807A0FFF72FFE472148
:101CC0004FF6FF70FFF784FF04E000F00DF80A20E4
:101CD000FFF73CFFF9E7000068656C6C6F20776FD9
:101CE000726C64210D0A000010B5094800780128C3
:101CF0000CD107488088074A128802EB004106A0F1
:101D0000FFF70CFE024800210160818010BD000039
:101D1000040000200A000020B0B4CFC2CAB1BCE465
:101D2000A3BA25642075730D0A00000030B58FB08A
:101D300005460124282105A8FEF7FBF91421684671
:101D4000FEF7F7F9012005900004069000200790A7
:101D500002200C90C1030D910E9505A8FEF78AFD97
:101D600004460CB100BFFEE70F2000900220019056
:101D7000002002904FF48060039000200490022124
:101D80006846FEF753FC04460CB100BFFEE70FB0F7
:101D900030BD000010B504460748084908600846F1
:101DA000446000218160C160016181610C21416159
:101DB000FFF7B4FA10BD00000038014068000020B1
:101DC00010B580210348FEF7B4F9002002490880CD
:101DD00010BD0000B00000200C000020000000003A
:101DE00000000000010203040607080900000000CB
:101DF0000102030402030405060708090A0B0C0D7F
:101E00000E0F101001020000281E00080000002024
:101E10002000000074190008481E0008200000205F
:101E200010050000841900080024F40000000000E0
:101E30000000000000000000000000001000000092
:081E4000010000000000000099
:04000005080000E906
:00000001FF
